:030000000220A932
:1020A900787FE4F6D8FD9060007F007E07E4F0A316
:0A20B900DFFCDEFA7581660220FEEE
:0C000300000000000000000000000000F1
:0B004200EF1FAC0670011E4C70F62290
:10288C0090641612177E90641674FF12174BEC4D61
:0E289C004E4F60097F4C7E0412004280E922FC
:101E8C00907120E04480F07F057E001200427F00BC
:101E9C007E007D007C0012288C75A75575AC5C907B
:101EAC0071327450F09071307403F0907136742F5D
:101EBC00F090715C7403F090715BE054FCF07F184F
:101ECC00EF2466FDE434718D82F583E4F00FEFB4FA
:101EDC0033EE904011E4935407FF90711CE054F8DA
:101EEC004FF0904017E493547FFF90711DE05480A5
:101EFC004FF0904010E493FF5401C43333335480BB
:101F0C00FE907123E0547F4EF0EFC313543F4440D6
:101F1C00FFA3E054804FF0904012E493FF540FFE67
:101F2C00907146E054F04EF0EFC4540FFF90714F97
:101F3C00E054F04FF0904013E493543FFF90714005
:101F4C00E054C04FF0904014E493907126F0904010
:101F5C0015E493907128F0904016E49390712AF058
:011F6C002252
:10245F00436444000000506447E78175B593B6F6B6
:09246F0085F7B766F156D362C788
:1028010078D3E254C3F2E24428F278D0E24460F291
:1028110078DAE24460F2907168E04460F075CC02CD
:0428210043CC802202
:10258800E4FEED6401701E43CC50E5CF30E2FB530E
:10259800CCBFE5CF54F86408600BE5CF54F864105D
:1025A80060037F00228FCDE5CF30E2FBE5CF54F802
:1025B80064186010E5CF54F864286008E5CF54F833
:1025C800FFBF40047E018002E4FEEDB4020343CC69
:0325D80030AF061B
:0125DB0022DD
:1028F100AB07AA06EAFF7D01122588AF030D022569
:01290100884D
:102825007F017E481228F1906444E0FF746AFE122D
:1028350028F1A3E0FF746CFE1228F1A3E0FF746E8B
:04284500FE0228F176
:10252B00AE07EDF46006EDD3940F500AEEF4601095
:10253B00EED3940F400AE4906446F0906444F0228A
:10254B00EDB4FF07906444E05408F0EEB4FF07903D
:10255B006446E05408F0EDF4600F74472DF582E407
:10256B003464F583E0906444F0EEF4600F74472E0E
:0D257B00F582E43464F583E0906446F022BC
:10262B00EF7008906446E054F7800AEFB4010F9006
:10263B006446E04408F0906444E054F7F022EFB4B1
:10264B000208906446E054F7800AEFB4030F9064DD
:10265B0046E04408F0906444E04408F022E49064BF
:07266B0044F0A3F0A3F022EC
:101F6D00AE07E4906445F0EED3941F400AE490640C
:101F7D0044F0906446F022EE30E009906445E04470
:101F8D0004F0800BEE20E007906445E054FBF0EE8A
:101F9D00C313FD30E009906445E04402F0800BED81
:101FAD0020E007906445E054FDF0EE1313543FFD1F
:101FBD0030E009906445E04480F0800BED20E007AF
:101FCD00906445E0547FF0EE131313541FFF30E07F
:101FDD0009906445E04440F0800BEF20E0079064E9
:101FED0045E054BFF0EEC4540FFF30E00890644557
:101FFD00E04420F022EF20E007906445E054DFF04C
:01200D0022B0
:080051008FD7E5D430E4FB2257
:1000240078C2E254CFF2E24410F29071807404F08A
:0A00340075D60175D59F75D2102214
:082478004160240041602300D3
:1028AA0078D2E254F3F2907176E0440BF043AA40F6
:0C28BA00D2AF75F60175F59F75F2112282
:03004E000228493C
:0D284900C0E0C083C082C0D075D000C007C1
:0B285600E5F430E506AFF7906024E0E9
:0B286100D007D0D0D082D083D0E0326E
:1027D700000009C4006400C80101F4004B000A00AE
:1027E70000010F040505000F003200110032001729
:0A27F700003200180032001901F44E
:10149A00E4FF74E92FF582E43463F583E0C394082A
:1014AA00400302154B74E92FF582E43463F583E0B7
:1014BA00C39404504478C2C000E2FE74E92FF58256
:1014CA00E43463F583E025E0FDF87403088002C381
:1014DA0033D8FCF45ED000F278C2C000E2FE74E9B0
:1014EA002FF582E43463F583E025E0FDF874030800
:1014FA008002C333D8FC0216AD78C3C000E2FE7482
:10150A00E92FF582E43463F583E024FC25E0FDF855
:10151A007403088002C333D8FCF45ED000F278C3A7
:10152A00C000E2FE74E92FF582E43463F583E02417
:10153A00FC25E0FDF87403088002C333D8FC0216C8
:10154A00AD74E92FF582E43463F583E0C39408505F
:10155A000302161174E92FF582E43463F583E0C3BC
:10156A009410400302161174E92FF582E43463F5EE
:10157A0083E0C3940C504878D2C000E2FE74E92F8D
:10158A00F582E43463F583E024F825E0FDF874037A
:10159A00088002C333D8FCF45ED000F278D2C000CF
:1015AA00E2FE74E92FF582E43463F583E024F8253A
:1015BA00E0FDF87403088002C333D8FC0216AD7844
:1015CA00D3C000E2FE74E92FF582E43463F583E0C8
:1015DA0024F425E0FDF87403088002C333D8FCF430
:1015EA005ED000F278D3C000E2FE74E92FF582E4FF
:1015FA003463F583E024F425E0FDF87403088002DF
:10160A00C333D8FC0216AD74E92FF582E43463F5CE
:10161A0083E0C39414504778E2C000E2FE74E92FD5
:10162A00F582E43463F583E024F025E0FDF87403E1
:10163A00088002C333D8FCF45ED000F278E2C0001E
:10164A00E2FE74E92FF582E43463F583E024F025A1
:10165A00E0FDF87403088002C333D8FC804578E3C0
:10166A00C000E2FE74E92FF582E43463F583E024D6
:10167A00EC25E0FDF87403088002C333D8FCF45E5D
:10168A00D000F278E3C000E2FE74E92FF582E43478
:10169A0063F583E024EC25E0FDF87403088002C3B7
:1016AA0033D8FC4ED000F20FEF6405600302149C9D
:0116BA00220D
:03005D000226B8C0
:1026B800C0E0C0F0C083C082C0D075D000C000C0E8
:1026C80001C002C003C004C005C006C0077881E28B
:1026D80030E607E24440F21223EAD007D006D005DC
:1026E800D004D003D002D001D000D0D0D082D08383
:0526F800D0F0D0E0323B
:1025DC00D2AF43AB0843B6C0907132E04440F043F5
:1025EC00AB087877743FF208744BF2787A7430F257
:1025FC00788914F27871744FF2187427F278727427
:10260C00A8F2087410F208E4F208F208F2787E746A
:0F261C00D0F2087404F208741EF2087402F2225D
:03003F0002267224
:10267200C0E0C0F0C083C082C0D075D000C000C02E
:1026820001C002C003C004C005C006C00790715358
:10269200E030E707E04480F0122910D007D006D0DE
:1026A20005D004D003D002D001D000D0D0D082D047
:0626B20083D0F0D0E032FD
:10214300E4FBEB25E025E024EDF582E43427F58379
:10215300740193FF74E92BF582E43463F583EFF0A4
:10216300EB25E025E024EFF582E43427F583E493BF
:10217300FE740193FFEB25E02402F582E43464F559
:1021830083EEF0A3EFF0EB25E024D0F582E4346393
:10219300F583E4F0A3744BF0E47F01FEFDFC74E9E6
:1021A3002BF582E43463F583E0F9F8121726E53F53
:1021B3004FF53FE53E4EF53EE53D4DF53DE53C4CE7
:1021C300F53C0BEB6405600302214512149A1220BF
:0421D3000E0225DCF7
:10277800121E8C75D9DD75D95590715EE054FEF046
:1027880075D9BB12000F1226FD122801122143121F
:10279800002412286C1200607D0F7F0E12252B1268
:0427A800282580EE72
:101C07006B3120646F75626C652070726573730A3F
:101C1700006B312070726573730A006B3220646F3A
:101C270075626C652070726573730A006B32207081
:101C3700726573730A006B3320646F75626C65207D
:101C470070726573730A006B332070726573730A61
:101C5700006B3420646F75626C65207072657373F6
:101C67000A006B342070726573730A006B35206449
:101C77006F75626C652070726573730A006B35202F
:101C870070726573730A006B31206C6F6E6720701A
:101C9700726573730A006B3120636F6E74696E75BA
:101CA700652070726573730A006B32206C6F6E6704
:101CB7002070726573730A006B3220636F6E7469EC
:101CC7006E75652070726573730A006B33206C6FD5
:101CD7006E672070726573730A006B3320636F6ED3
:101CE70074696E75652070726573730A006B3420B2
:101CF7006C6F6E672070726573730A006B342063B4
:101D07006F6E74696E75652070726573730A006B08
:101D170035206C6F6E672070726573730A006B35C0
:101D270020636F6E74696E75652070726573730AD0
:101D3700006B31206C6F6E67207072657373206C57
:101D47006F6F73650A006B32206C6F6E672070725D
:101D5700657373206C6F6F73650A006B33206C6F4C
:101D67006E67207072657373206C6F6F73650A00FE
:101D77006B34206C6F6E67207072657373206C6FA5
:101D87006F73650A006B35206C6F6E672070726524
:0A1D97007373206C6F6F73650A0010
:1024800042646000004464570000000041645B0047
:0724900044645C0000000041
:10006000AF1BAE1AAD19AC1890640C12177E9064D9
:100070001012178A00000000E4906414F0A3F090BE
:10008000640CE0FCA3E0FDA3E0FEA3E0FFEC4D4E1A
:100090004F700302061490645BE060030206147F55
:1000A0004BFEFDFCA3E0F8A3E0F9A3E0FAA3E0FB1C
:1000B000C3121702400302061490641012178A003C
:1000C0000000007F207EA17D077C00906410E0F896
:1000D000A3E0F9A3E0FAA3E0FBC312170240030276
:1000E000016F7F0A7E007D007C0012288C12286C34
:1000F000AF1BAE1AAD19AC1890640CE0F8A3E0F990
:10010000A3E0FAA3E0FBC3121702706390645CE003
:10011000FCA3E0FDA3E0FEA3E02401FFE43EFEE437
:100120003DFDE43CFC90645C12177EE47F4BFEFDD9
:10013000FC90645CE0F8A3E0F9A3E0FAA3E0FBD351
:10014000121702400890645B7401F08022906410E2
:10015000E0FCA3E0FDA3E0FEA3E02401FFE43EFEFB
:10016000E43DFDE43CFC90641012177E0200C3E401
:100170007F4BFEFDFC90645CE0F8A3E0F9A3E0FA9D
:10018000A3E0FBD3121702400990645B7401F002F4
:10019000061490645C12178A00000000E4FFFEFD64
:1001A0007C0190640CE0F8A3E0F9A3E0FAA3E0FB83
:1001B000C3121702600302028090641012178A00B3
:1001C000000000E47F64FEFDFC906410E0F8A3E012
:1001D000F9A3E0FAA3E0FBC3121702400302027284
:1001E0007F017E007D007C0012288C12286CAF1BE2
:1001F000AE1AAD19AC1890640C12177EE4FFFEFD28
:100200007C0190640CE0F8A3E0F9A3E0FAA3E0FB22
:10021000C3121702703AE4FFFEFDFC90640CE0F894
:10022000A3E0F9A3E0FAA3E0FBC3121702601312E4
:10023000286CAF1BAE1AAD19AC1890640C12177E67
:1002400080D47BFF7A1C7907120C0F7D010205DD3B
:10025000906410E0FCA3E0FDA3E0FEA3E02401FF16
:10026000E43EFEE43DFDE43CFC90641012177E0287
:1002700001C37BFF7A1C7918120C0F7D0102060F57
:10028000E4FFFEFD7C0290640CE0F8A3E0F9A3E03B
:10029000FAA3E0FBC3121702600302036490641028
:1002A00012178A00000000E47F64FEFDFC906410D9
:1002B000E0F8A3E0F9A3E0FAA3E0FBC312170240C1
:1002C000030203567F017E007D007C0012288C1201
:1002D000286CAF1BAE1AAD19AC1890640C12177EC7
:1002E000E4FFFEFD7C0290640CE0F8A3E0F9A3E0DB
:1002F000FAA3E0FBC3121702703AE4FFFEFDFC9084
:10030000640CE0F8A3E0F9A3E0FAA3E0FBC3121742
:1003100002601312286CAF1BAE1AAD19AC189064B2
:100320000C12177E80D47BFF7A1C7922120C0F7D71
:10033000020205DD906410E0FCA3E0FDA3E0FEA353
:10034000E02401FFE43EFEE43DFDE43CFC9064104B
:1003500012177E0202A77BFF7A1C7933120C0F7DE5
:100360000202060FE4FFFE7D80FC90640CE0F8A31F
:10037000E0F9A3E0FAA3E0FBC31217026003020452
:100380004890641012178A00000000E47F64FEFDAC
:10039000FC906410E0F8A3E0F9A3E0FAA3E0FBC34B
:1003A000121702400302043A7F017E007D007C00A8
:1003B00012288C12286CAF1BAE1AAD19AC189064C1
:1003C0000C12177EE4FFFE7D80FC90640CE0F8A325
:1003D000E0F9A3E0FAA3E0FBC3121702703AE4FFCE
:1003E000FEFDFC90640CE0F8A3E0F9A3E0FAA3E0C2
:1003F000FBC3121702601312286CAF1BAE1AAD19A3
:10040000AC1890640C12177E80D47BFF7A1C793D67
:10041000120C0F7D030205DD906410E0FCA3E0FDEB
:10042000A3E0FEA3E02401FFE43EFEE43DFDE43C46
:10043000FC90641012177E02038B7BFF7A1C794EAE
:10044000120C0F7D0302060FE4FFFE7D02FC906498
:100450000CE0F8A3E0F9A3E0FAA3E0FBC312170253
:10046000600302052C90641012178A00000000E45B
:100470007F64FEFDFC906410E0F8A3E0F9A3E0FACD
:10048000A3E0FBC3121702400302051E7F017E009A
:100490007D007C0012288C12286CAF1BAE1AAD199F
:1004A000AC1890640C12177EE4FFFE7D02FC906491
:1004B0000CE0F8A3E0F9A3E0FAA3E0FBC3121702F3
:1004C000703AE4FFFEFDFC90640CE0F8A3E0F9A3B1
:1004D000E0FAA3E0FBC3121702601312286CAF1BF3
:1004E000AE1AAD19AC1890640C12177E80D47BFF45
:1004F0007A1C7958120C0F7D040205DD906410E01F
:10050000FCA3E0FDA3E0FEA3E02401FFE43EFEE443
:100510003DFDE43CFC90641012177E02046F7BFFEB
:100520007A1C7969120C0F7D0402060FE4FF7E80AD
:10053000FDFC90640CE0F8A3E0F9A3E0FAA3E0FB73
:10054000C3121702600302061490641012178A0087
:10055000000000E47F64FEFDFC906410E0F8A3E07E
:10056000F9A3E0FAA3E0FBC312170240030206045A
:100570007F017E007D007C0012288C12286CAF1B4E
:10058000AE1AAD19AC1890640C12177EE4FF7E8091
:10059000FDFC90640CE0F8A3E0F9A3E0FAA3E0FB13
:1005A000C3121702703CE4FFFEFDFC90640CE0F8FF
:1005B000A3E0F9A3E0FAA3E0FBC312170260131251
:1005C000286CAF1BAE1AAD19AC1890640C12177ED4
:1005D00080D47BFF7A1C7973120C0F7D057F040297
:1005E00028C6906410E0FCA3E0FDA3E0FEA3E02495
:1005F00001FFE43EFEE43DFDE43CFC906410121774
:100600007E0205537BFF7A1C7984120C0F7D05E472
:10061000FF1228C690645BE064016003020AEFFFEA
:10062000FEFDFC90640CE0F8A3E0F9A3E0FAA3E07F
:10063000FBC31217027003020AEF90640CE0FCA3E4
:10064000E0FDA3E0FEA3E0FF90645712177EE4FFF5
:10065000FEFD7C0190640CE0F8A3E0F9A3E0FAA3AE
:10066000E0FBC3121702600302073B7F4BFEFDFC59
:1006700090645CE0F8A3E0F9A3E0FAA3E0FBC31206
:1006800017024029E47F5AFEFDFC90645CE0F8A369
:10069000E0F9A3E0FAA3E0FB12170250107BFF7A07
:1006A0001C798E120C0F7D017F01020735E4FFFEDD
:1006B000FDFC90640CE0F8A3E0F9A3E0FAA3E0FBF2
:1006C000C31217027003020BA37F0A7E007D007C19
:1006D0000012288C90645CE0FCA3E0FDA3E0FEA384
:1006E000E02401FFE43EFEE43DFDE43CFC90645C5C
:1006F00012177E12286CAF1BAE1AAD19AC1890649D
:100700000C12177EE47F57FEFDFC90645CE0F8A3BA
:10071000E0F9A3E0FAA3E0FBC3121702408F906454
:100720005C12178A0000004B7BFF7A1C799D120C2B
:100730000F7D017F021228C60206ADE4FFFEFD7C9C
:100740000290640CE0F8A3E0F9A3E0FAA3E0FBC395
:1007500012170260030208287F4BFEFDFC90645CC8
:10076000E0F8A3E0F9A3E0FAA3E0FBC3121702400C
:1007700029E47F5AFEFDFC90645CE0F8A3E0F9A355
:10078000E0FAA3E0FB12170250107BFF7A1C79B04D
:10079000120C0F7D027F01020822E4FFFEFDFC9097
:1007A000640CE0F8A3E0F9A3E0FAA3E0FBC312179E
:1007B000027003020BA37F0A7E007D007C001228DA
:1007C0008C90645CE0FCA3E0FDA3E0FEA3E02401C8
:1007D000FFE43EFEE43DFDE43CFC90645C12177EC9
:1007E00012286CAF1BAE1AAD19AC1890640C12171E
:1007F0007EE47F57FEFDFC90645CE0F8A3E0F9A383
:10080000E0FAA3E0FBC3121702408F90645C12175A
:100810008A0000004B7BFF7A1C79BF120C0F7D020F
:100820007F021228C602079AE4FFFE7D80FC9064D6
:100830000CE0F8A3E0F9A3E0FAA3E0FBC31217026F
:1008400060030209157F4BFEFDFC90645CE0F8A399
:10085000E0F9A3E0FAA3E0FBC31217024029E47F0A
:100860005AFEFDFC90645CE0F8A3E0F9A3E0FAA373
:10087000E0FB12170250107BFF7A1C79D2120C0F8A
:100880007D037F0102090FE4FFFEFDFC90640CE094
:10089000F8A3E0F9A3E0FAA3E0FBC3121702700388
:1008A000020BA37F0A7E007D007C0012288C9064DE
:1008B0005CE0FCA3E0FDA3E0FEA3E02401FFE43E36
:1008C000FEE43DFDE43CFC90645C12177E12286C53
:1008D000AF1BAE1AAD19AC1890640C12177EE47FF2
:1008E00057FEFDFC90645CE0F8A3E0F9A3E0FAA3F6
:1008F000E0FBC3121702408F90645C12178A00005D
:10090000004B7BFF7A1C79E1120C0F7D037F0212F2
:1009100028C6020887E4FFFE7D02FC90640CE0F824
:10092000A3E0F9A3E0FAA3E0FBC3121702600302FD
:100930000A027F4BFEFDFC90645CE0F8A3E0F9A3A3
:10094000E0FAA3E0FBC31217024029E47F5AFEFD40
:10095000FC90645CE0F8A3E0F9A3E0FAA3E0FB12EA
:10096000170250107BFF7A1C79F4120C0F7D047F64
:10097000010209FCE4FFFEFDFC90640CE0F8A3E03A
:10098000F9A3E0FAA3E0FBC31217027003020BA362
:100990007F0A7E007D007C0012288C90645CE0FC65
:1009A000A3E0FDA3E0FEA3E02401FFE43EFEE43D5E
:1009B000FDE43CFC90645C12177E12286CAF1BAE09
:1009C0001AAD19AC1890640C12177EE47F57FEFD27
:1009D000FC90645CE0F8A3E0F9A3E0FAA3E0FBC3B9
:1009E000121702408F90645C12178A0000004B7B44
:1009F000FF7A1D7903120C0F7D047F021228C602B4
:100A00000974E4FF7E80FDFC90640CE0F8A3E0F93B
:100A1000A3E0FAA3E0FBC31217026003020BA37F5B
:100A20004BFEFDFC90645CE0F8A3E0F9A3E0FAA3C0
:100A3000E0FBC31217024029E47F5AFEFDFC9064DC
:100A40005CE0F8A3E0F9A3E0FAA3E0FB1217025080
:100A5000107BFF7A1D7916120C0F7D057F01020AAB
:100A6000E9E4FFFEFDFC90640CE0F8A3E0F9A3E0EC
:100A7000FAA3E0FBC31217027003020BA37F0A7EE6
:100A8000007D007C0012288C90645CE0FCA3E0FDFB
:100A9000A3E0FEA3E02401FFE43EFEE43DFDE43CD0
:100AA000FC90645C12177E12286CAF1BAE1AAD1955
:100AB000AC1890640C12177EE47F57FEFDFC906426
:100AC0005CE0F8A3E0F9A3E0FAA3E0FBC31217028D
:100AD000408F90645C12178A0000004B7BFF7A1DE8
:100AE0007925120C0F7D057F021228C6020A61903B
:100AF000645BE064016003020BA3FFFEFDFC9064F5
:100B00000CE0F8A3E0F9A3E0FAA3E0FBC31217029C
:100B10006003020BA3906457E0FCA3E0FDA3E0FE9A
:100B2000A3E0FF1217BB0B7C000080000B6F0002DC
:100B300000000B62008000000B48010000000B5514
:100B40000200000000000B8C7BFF7A1D7938120C2C
:100B50000F7D0180327BFF7A1D794D120C0F7D02D3
:100B600080257BFF7A1D7962120C0F7D0380187B34
:100B7000FF7A1D7977120C0F7D04800B7BFF7A1DA5
:100B8000798C120C0F7D057F031228C6E490645BFC
:100B9000F0A312178A0000000090645712178A0011
:030BA00000000052
:010BA300222F
:10249700C10B426021000041601E0041601F0041E6
:0324A700602000B2
:10000F0078D2E254F3F2E24404F2907187E4F0D232
:02001F0091222C
:1026FD00E5B154CF42B1789CE254F3F2E24414F2C6
:10270D00E254FCF2E24401F208E2547FF2E244208A
:10271D00F278A07432F2087401F2789EE4F208F2B5
:0E272D00789CE2541FF2E244A0F253A8BF22AF
:0E290200789CE2541FF2E244C0F243A8402247
:1028DD00789CE2541FF2E244A0F2789EE4F208F2F2
:0428ED0053A8BF220B
:03002100021DA11C
:101DA100C0E0C083C082C0D075D000C000C006C0F2
:011DB100072A
:101DB200789DE220E703021E7DE24480F2200B03BD
:101DC200021E7D90601FE0FFC3740F9FFF7E0074B0
:101DD20001A807088005C333CE33CED8F9FF90603F
:101DE20021E05EFEA3E05F4E602190601EE0146081
:101DF2000E14600F1460102403702FD291802BD226
:101E0200918027D2918023C291801F90601EE0149E
:101E1200600E14600F1460102403700ED291800AB9
:101E2200C2918006C2918002C29190601EE004F0CD
:101E3200E0C394044009A3E004F090601EE4F09033
:101E4200601FE0C394104014A3E0701004F090608F
:101E52001FE014F090601E7403F0801F90601FE07A
:101E6200C394104016A3E0B4011190601FE4F090F7
:0B1E7200601EF0906020F0C20BD291C7
:0F1E7D00D007D006D000D0D0D082D083D0E032B2
:1027AC00906021EEF0A3EFF0C2917F057E007D00DA
:1027BC007C0012288C122902D20B200BFD1228DD72
:0B27CC007F0A7E007D007C0002288C4C
:0228C600A90562
:1028C800EFC43354E0FCE9541F4CFCECF4FFEFFD7B
:0528D800AE040227AC74
:1024AA0041603C0142603D000041603F00416040A4
:0E24BA0000416041004160427F426043FFFFED
:10273B00E4F561AE3EAD3DAC3C853F178E168D1575
:10274B008C14787EE254FCF2E24514F218E515F293
:10275B0018E516F218E517F2787FE254FBF2E25413
:0D276B00FB4404F2E24401F27F0102226A05
:10124800906416EFF0E0FF24DAF582E43463F58366
:10125800E004F074E42FF582E43463F583E4F07479
:10126800DA2FF582E43463F583E0C3956350030213
:101278001499906416E0FB24DAF582E43463F5836C
:10128800E4F09027E8936401600302144A7F01FEAA
:10129800FDFC74E92BF582E43463F583E0F9F81278
:1012A8001726E51F4FF51FE51E4EF51EE51D4DF5EA
:1012B8001DE51C4CF51CAF1FAE1EAD1DFC780112C0
:1012C8001713EF5455FBEE5455FAED5455F9EC54F9
:1012D80055F8C3E51F9BF53BE51E9AF53AE51D99C0
:1012E800F539E51C98F538AF3BAE3AAD39FC7802D4
:1012F800121713EF5433FBEE5433FAED5433F9EC71
:101308005433F8E53B5433FFE53A5433FEE539549A
:1013180033FDE5385433FCEB2FF53BEA3EF53AE96B
:101328003DF539E83CF538AF3BAE3AAD39FC7804C9
:10133800121713EF253BFFEE353AFEED3539FDEC7C
:101348003538FCEF540FF53BEE540FF53AED540FDA
:10135800F539EC540FF538AF3BAE3AAD39FC7808A7
:10136800121713EF253BFFEE353AED3539FDEC3515
:1013780038EFF53BE4F53AEDF539E4F538AE3AAC3B
:10138800387810121713EF253BFFEE353AFEEFF5CC
:101398003BEEF53AE4F539F538906416E025E0249B
:1013A800EEF582E43463F583E0FEA3E0D39553EED3
:1013B80095524024906416E0FF25E024EEF582E47F
:1013C8003463F583E0F552A3E0F55374E92FF58211
:1013D800E43463F583E0F5649027E8E493FFE4FCE4
:1013E800FDFEAB3BAA3AA939A838D31217024052DE
:1013F800AF650565D3EF940374809480500302149D
:1014080099E4F565F51FF51EF51DF51C7F01FEFD38
:10141800FCA964A8011217268F1B8E1A8D198C1827
:10142800E47F01FEFDFCA8011217268F338E328D52
:10143800318C30E4F552F5537564201222EE4337AF
:101448000222E4F5657F01FEFDFC906416E0FB24B2
:10145800E9F582E43463F583E0F9F8121726E51B11
:101468004FF51BE51A4EF51AE5194DF519E5184C17
:10147800F518E47F01FEFDFCA803121726E5334F9B
:10148800F533E5324EF532E5314DF531E5304CF5C1
:02149800302200
:100F0900E4F5669027ECE493FFE566C39F4003028E
:100F19001247E56625E02400F582E4346085828A7B
:100F29007F548F8B7E0E8E8C758903758889E56653
:100F390025E02400F582E4346085828A8F8B758CE4
:100F490012758904758889E56625E02414F582E41B
:100F59003460F583E0FCA3E0C3950FEC950E502EA9
:100F6900E56625E02432F582E43460F583E0FCA3EC
:100F7900E0C39513EC95125015AF600560EF94022C
:100F890074809480400BE4F5605337FD8003E4F5E9
:100F990060E53730E125E56625E024EEF582E434A5
:100FA90063F583E4F0A3F0E56625E024F8F582E42F
:100FB9003463F583E4F0A3F0021057E56625E024D5
:100FC90014F582E4346085828A8E8B758C0A758962
:100FD900267588892088FDE5F130E00875F107E478
:100FE900F50AF50BAE0AE50B7802C333CE33CED83A
:100FF900F9FFE56625E024EEF582E43463F583EE36
:10100900F0A3EFF0E56625E02432F582E43460854B
:10101900828A758B12758C0A75892775888920884B
:10102900FDE5F130E00875F107E4F50AF50BAE0AC4
:10103900E50B7802C333CE33CED8F9FFE56625E058
:1010490024F8F582E43463F583EEF0A3EFF0E56666
:1010590025E02402F582E43464F583E0FEA3E07818
:1010690002CEC313CE13D8F9F5518E50E56625E0AB
:1010790024EEF582E43463F583E0FEA3E0FF9027D4
:10108900E4E493FC740193FDC3EF9DEE9C4017E5E6
:101099006625E024F8F582E43463F583E0FEA3E0F5
:1010A900C39DEE9C50028068E56625E024EEF5823A
:1010B900E43463F583E0FEA3E0C39551EE95504017
:1010C9001CE56625E024F8F582E43463F583E0FE47
:1010D900A3E0C39551EE9550400302116374DF25D7
:1010E90066F582E43463F583E004F074DF2566F580
:1010F90082E43463F583E0FF9027E9E493FEEFD3BC
:101109009E406474DF2566F582E43463F583E4F078
:10111900E56625E0240AF582E43460F583E0FEA360
:10112900E0FFE56625E02414F582E43460F583EEFA
:10113900F0A3EFF0E56625E02428F582E43460F5B4
:1011490083E0FEA3E0FFE56625E02432F582E4347E
:1011590060F583EEF0A3EFF0800D74DF2566F5826C
:10116900E43463F583E4F0E56625E0240AF582E4D6
:10117900346085828AE56625E02400F582E43460DE
:1011890085828B758C0A7589207588CB2088FDE549
:10119900F130E00875F107E4F50AF50BE56625E09D
:1011A900240AF582E4346085828A758B547F0E8F18
:1011B9008C7589237588897E0A8E8A8F8BE56625C9
:1011C900E0240AF582E4346085828CE4F589758827
:1011D90029E56625E02428F582E4346085828AE5DC
:1011E9006625E02400F582E4346085828B8E8C7557
:1011F90089207588CB2088FDE5F130E00875F10775
:10120900E4F50AF50BE56625E02428F582E4346067
:1012190085828A758B547F0E8F8C75892475888990
:10122900758A0A8F8BE56625E02428F582E4346007
:0F12390085828CE4F5897588290566020F0C22E1
:10189900E4F5669027ECE493FFE566C39F400302F5
:1018A9001A51E56625E02402F582E43464F583E003
:1018B900FEA3E07802CEC313CE13D8F9F5518E50AA
:1018C900E56625E024EEF582E43463F583E0FEA3C2
:1018D900E0D39551EE9550402EE56625E024F8F5C4
:1018E90082E43463F583E0FEA3E0D39551EE95508D
:1018F900401574E42566F582E43463F583E4F0AFBA
:1019090066121248021A4C9027EBE493FFC3E55183
:101919009FFFE5509400FED3EF9400EE940040023F
:1019290080047E007F00E56625E024EEF582E4343C
:1019390063F583E0FCA3E0C39FEC9E4003021A3FDA
:101949009027EBE493FFC3E5519FFFE5509400FE18
:10195900D3EF9400EE9400400280047E007F00E5FE
:101969006625E024F8F582E43463F583E0FCA3E01E
:10197900C39FEC9E4003021A3F74DA2566F582E4A0
:101989003463F583E4F074E42566F582E43463F5A1
:1019990083E004F074E42566F582E43463F583E0BA
:1019A900C395635003021A4C74E42566F582E43446
:1019B90063F583E4F07F01FEFDFC74E92566F58299
:1019C900E43463F583E0F9F81217261216D1E51FFE
:1019D9005FF51FE51E5EF51EE51D5DF51DE51C5C49
:1019E900F51CE47F01FEFDFCA966A8011217261269
:1019F90016D1E5335FF533E5325EF532E5315DF554
:101A090031E5305CF530E47F01FEFDFC74E92566C3
:101A1900F582E43463F583E0F9F81217261216D13A
:101A2900E51B5FF51BE51A5EF51AE5195DF519E584
:101A3900185CF518800D74E42566F582E43463F5C5
:091A490083E4F0056602189C22FA
:1022EE00E4F5669027ECE493FFE566C39F506EE538
:1022FE006625E024EEF582E43463F583E4F0A3F082
:10230E00E56625E024F8F582E43463F583E4F0A372
:10231E00F0E56625E0240AF582E43460F583E0FEFC
:10232E00A3E0FFE56625E02414F582E43460F5832E
:10233E00EEF0A3EFF0E56625E02428F582E43460A4
:10234E00F583E0FEA3E0FFE56625E02432F582E4A6
:0E235E003460F583EEF0A3EFF0056680862272
:1021D700E4F5669027ECE493FFE566C39F506790AC
:1021E700603CE0FF7E00C39410748094805053EFEE
:1021F7009408748094804025E56625E02400F582E4
:10220700E43460F583E0FEA3E0FFE56625E0240AF9
:10221700F582E43460F583EE8FF01216BBE5662590
:10222700E02400F582E43460F583E0FEA3E0FFE5F7
:102237006625E02428F582E43460F583EE8FF012FA
:1022470016BB0566808D90603CE0C3941074809443
:10225700804005433704800690603CE004F07F012E
:0322670002226AE6
:10236C00E4FFFEFDFCAB1BAA1AA919A818C312178F
:10237C0002606390603EE004F0700690603DE00403
:10238C00F09027E0E493FE740193FF4E602ED390FF
:10239C00603EE09F90603DE09E4021E4F0A3F0F5AC
:1023AC001FF51EF51DF51CF533F532F531F530F53D
:1023BC001BF51AF519F518C20A0222EE9027E2E471
:1023CC0093FE740193FFD390603EE09F90603DE0DC
:0D23DC009E400AD20A22E490603DF0A3F07A
:0123E90022D1
:051A520090643FEFF07D
:101A5700A3E0FCA3E0FDA3E0FEA3E0F52E8E2D8D11
:101A67002C8C2B7884E2F50A08E2F50B758A087549
:101A77008B2B758C2775881D2088FDE4FFFEFDFCE8
:101A8700AB2AAA29A928A827D31216EC4006AC2707
:101A9700A8048013AF2AAE29AD28AC271216DEABF7
:101AA70007AA06A905A804906043E0FEA3E0FFE4A7
:101AB700FCFDC31216EC5041E4FFFEFDFCAB2AAA65
:101AC70029A928A8271216EC4006AF2AAE29800BB1
:101AD700AF2AAE29AD28AC271216DE906043EEF090
:101AE700A3EFF090643FE025E024D0F582E434636F
:101AF700F583E0A3E0906042F09027DDE493FE7465
:101B07000193FFD3906044E09F906043E09E501B99
:101B170090643FE025E024D0F582E43463F583E068
:101B2700A3E0906042F090603F8079E4FFFEFDFC07
:101B3700AB2AAA29A928A827D31216EC4034906407
:101B47003FE0FF25E024D0F582E43463F583E0FC31
:101B5700A3E0D39400EC9400404DEF25E024D0F5AA
:101B670082E43463F58374FFF5F01216BB9060408E
:101B7700803290643FE0FF25E024D0F582E43463AF
:101B8700F583E0FCA3E0C3947FEC94005019EF25A4
:101B9700E024D0F582E43463F583E475F00112168E
:101BA700BB9060417401F0906040E064017011A344
:101BB700E06401700B906040F0A3F090603F04F088
:101BC70090603FE064017035906042E0FF90643FB1
:101BD700E025E024D0F582E43463F583E4F0A3EF55
:101BE700F074FF906043F0A3F0906042747FF0E4DC
:0F1BF700906040F0A3F090603FF07F01227F00EC
:011C060022BB
:1024C900E490643EF09027D7121739780112172645
:1024D90090644012177EAF61121A52EF60220561B3
:1024E900E53730E4095337EF90643E7401F09027E3
:1024F900ECE493FFE561C39F4006E4F561433710BF
:10250900C39027DB7401939562E49394004008908B
:10251900643EE064017005D20902273BE4FF122200
:012529006A47
:01252A00228E
:10226A00EF70607F01FEFDFC74E92561F582E434BC
:10227A0063F583E0F9F81217268F178E168D158CE1
:10228A0014787EE254FCF2E24514F218E515F218CD
:10229A00E516F218E517F2E56125E024D0F582E4A7
:1022AA003463F583E0A3E0547FFF7878E254804FEB
:1022BA00F2787FE254FBF2E254FB4404F2E2440176
:1022CA00F2801CE56125E024D0F582E43463F583CD
:1022DA00E0A3E0547FFF7878E254804FF2787FE2FF
:0422EA004402F22296
:10200E00E490640CF0A3F090640CE0FEA3E0FFC338
:10201E009488EE94035031EF2409FFEE340F8F8233
:10202E00F583E493FF90640DE02445FD90640CE08D
:10203E0034608D82F583EFF090640DE004F070C78C
:08204E0090640CE004F080BF77
:102056009063CD7401F0A37460F0A37445F0E4F5C9
:1020660061F537F536F535F534C209C20AF51FF5BF
:102076001EF51DF51CF533F532F531F530F51BF57A
:102086001AF519F5189027E693FF9027EAE493FED0
:10209600A807088002C333D8FCF563756420E4FF03
:0320A60002226AA9
:1023EA007884E2F50A08E2F50BAE0A7803CEC31345
:1023FA00CE13D8F97802C333CE33CED8F9FFE561CC
:10240A0025E02400F582E43460F583EEF0A3EFF0D2
:10241A0020090F9027DFE4937005D20902273B02B7
:10242A0024C905619027ECE493FFE561C39F401F2F
:10243A00787FE254FBF2E254FB4404F2E24401F2F4
:10244A00E4F561E53720E2030221D7433701227F11
:05245A000112226A22BC
:05291000056202236CCA
:10286C00E53730E01A9063CDA3E0FAA3E0F9121734
:10287C00F5121899E4F5617F0112226A5337FE2292
:1020C300022778E493A3F8E493A34003F68001F294
:1020D30008DFF48029E493A3F85407240CC8C3331E
:1020E300C4540F4420C8834004F456800146F6DFED
:1020F300E4800B010204081020408090245FE47EFA
:10210300019360BCA3FF543F30E509541FFEE493E1
:10211300A360010ECF54C025E060A840B8E493A3A8
:10212300FAE493A3F8E493A3C8C582C8CAC583CAD3
:10213300F0A3C8C582C8CAC583CADFE9DEE780BE8B
:0124C8000013
:1016BB00C5F0F8A3E028F0C5F0F8E58215827002BA
:0616CB001583E038F02257
:0D16D100CFF4CFCEF4CECDF4CDCCF4CC22AE
:0E16DE00C3E49FFFE49EFEE49DFDE49CFC221D
:1016EC00EB9FF5F0EA9E42F0E99D42F0EC6480C875
:0616FC0064809845F02215
:10170200EB9FF5F0EA9E42F0E99D42F0E89C45F03D
:0117120022B4
:10171300E8600FECC313FCED13FDEE13FEEF13FFB4
:03172300D8F122D8
:10172600E8600FEFC333FFEE33FEED33FDEC33FC21
:03173600D8F122C5
:10173900E493FC740193FD740293FE740393FF22F6
:101749007401FF3395E0FEFDFCA3A3A3E0CF2FF0C6
:10175900E582158270021583E0CE3EF0E58215829E
:1017690070021583E0CD3DF0E58215827002158384
:05177900E0CC3CF02271
:0C177E00ECF0A3EDF0A3EEF0A3EFF022DE
:10178A00A8828583F0D083D0821217A11217A112E2
:10179A0017A11217A1E473E493A3C583C5F0C58307
:1017AA00C8C582C8F0A3C583C5F0C583C8C582C8A9
:0117BA00220C
:1017BB00D083D082E4937012740193700DA3A39322
:1017CB00F8740193F5828883E4737402936C70123E
:1017DB007403936D700C7404936E70067405936FA1
:0A17EB0060DDA3A3A3A3A3A380CA9B
:0617F5008A838982E4737F
:100BA400E5222419F582E43464F583E005222290D9
:100BB4006416300703906419E475F00112185302A7
:100BC40017FB2000E97F2ED2008018EF540F2490E9
:100BD400D43440D4FF30040BEF24BFB41A005003C4
:100BE4002461FFE523600215230526E5267002052E
:100BF4002530070E906416E475F001121853EF02C5
:100C040018410200517403D2078003E4C207F5229D
:100C140090641612186AE4F523F525F526E5236099
:100C2400077F20120BE780F57524FFC201C200C2C2
:100C340002C203C205C206C208120BB3FF700D3014
:100C440007057F00120BF8AF26AE2522B4255FC23C
:100C5400D5C204120BB3FF24D0B40A00501A75F0A5
:100C64000A782330D50508B6FF0106C6A426F62067
:100C7400D5047002D20380D924CFB41A00EF5004F3
:100C8400C2E5D204020DF9D20180C6D20080C0D2DE
:100C94000280BCD2D580BAD20580B47F20120BE783
:100CA4002002077401B5230040F1120BA4FF120BBC
:100CB400E7020C21D208D2068095120BA4FB120B7A
:100CC400A4FA120BA4F94A4B700679CA7A0E7BFF78
:100CD40020022EE523602A7E008E8275830012187E
:100CE4001460060EEE652470F0C2D5EBC0E0EAC0D5
:100CF400E0E9C0E0EE120E40D0E0F9D0E0FAD0E036
:100D0400FB1217FBFF60AAEBC0E0EAC0E0E9C0E019
:100D1400120BE7D0E02401F9D0E03400FAD0E0FB74
:100D2400E5240460DCD524D980877BFF7A0E793CE6
:100D3400D202809C791080027908C206C208800819
:100D4400D2D5790A8004790AC2D5E524047002F563
:100D540024E4FAFDFEFF120BA4FC7B08200113120D
:100D64000BA4FD7B1030000A120BA4FE120BA4FF8F
:100D74007B20EC3382D592D55013C3E43000069F18
:100D8400FFE49EFEE42001039DFDE49CFCE4CBF81B
:100D9400C201EC700CCFCECDCCE824F8F870F3800F
:100DA40017C3EF33FFEE33FEED33FDEC33FCEB33CF
:100DB400FB994002FB0FD8E9EB300105F8D0E0C401
:100DC40048B201C0E00AEC4D4E4F78207B0070C25F
:100DD400EAB5240040BCC0E0120E42D0F0D0E020BE
:100DE4000104C4C0E0C4B201C0F0120BD0D0F0D5ED
:100DF400F0EB020C211218730CBE530D38580C8FF3
:100E04004C0C8B420D3C4F0D44440D44490CA443FF
:080E14000D4A550D2E460D2E6E
:100E1C00450D2E470EEA500C932D0C972E0CBA2B29
:100E2C000C9B230CB8200ED32A0C534800000CB298
:100E3C003F3F3F00790AA2D5200314300509B910B1
:100E4C00020404B9080104A2D520060250010420B2
:100E5C0002689202B523005034C0E07F20300319A1
:100E6C007F30A20272067205500F120E99C202C296
:100E7C0006C205C2087F30800F300503E9C0E012BE
:100E8C000BE7300503D0E0F9D0E0B523CC300517E3
:100E9C007F30B9100C120BE77F583004077F788035
:100EAC0003B90803120BE73002057F2D020BE77F15
:100EBC00202008F87F2B2006F322920280CF286E88
:100ECC00756C6C2900D201120BA43001F8C20178A8
:100EDC002330D50108F6020C532D50434958120B00
:100EEC00A42403B405004001E4900EE593120BD842
:0D0EFC00743A120BD8D203752304020D388E
:1017FB00BB010689828A83E0225002E722BBFE02EC
:09180B00E32289828A83E493221E
:10181400BB010CE58229F582E5833AF583E0225089
:1018240006E92582F8E622BBFE06E92582F8E222D3
:0D183400E58229F582E5833AF583E49322ED
:10184100BB010689828A83F0225002F722BBFE0186
:02185100F32280
:10185300F8E0FBA3A3E0F925F0F0E582158270021E
:071863001583E0FA38F022C2
:09186A00EBF0A3EAF0A3E9F0227F
:10187300D083D082F8E4937012740193700DA3A304
:1018830093F8740193F5828883E473740293686018
:06189300EFA3A3A380DF18
:00000001FF
