:03000000021CCF10
:101CCF00787FE4F6D8FD9060007F007E07E4F0A3F4
:0A1CDF00DFFCDEFA758166021D24A9
:0C000300000000000000000000000000F1
:0B004200EF1FAC0670011E4C70F62290
:1026F400906419120E7890641974FF120E45EC4D13
:0E2704004E4F60097F4C7E0412004280E92295
:101A9000907120E04480F07F057E001200427F00BC
:101AA0007E007D007C001226F475A75575AC5C9015
:101AB00071327450F09071307403F0907136742F5D
:101AC000F090715C7403F090715BE054FCF07F184F
:101AD000EF2466FDE434718D82F583E4F00FEFB4FA
:101AE00033EE904011E4935407FF90711CE054F8DA
:101AF0004FF0904017E493547FFF90711DE05480A5
:101B00004FF0904010E493FF5401C43333335480BA
:101B1000FE907123E0547F4EF0EFC313543F4440D6
:101B2000FFA3E054804FF0904012E493FF540FFE67
:101B3000907146E054F04EF0EFC4540FFF90714F97
:101B4000E054F04FF0904013E493543FFF90714005
:101B5000E054C04FF0904014E493907126F0904010
:101B600015E493907128F0904016E49390712AF058
:011B70002252
:10212B0043643F000000C10C526442E78175B593D4
:0D213B00B6F685F7B766F156D362C757E3D5
:10268C0078D3E254C3F2E24428F278D0E24460F208
:10269C0078DAE24460F2907168E04460F075CC0244
:0426AC0043CC802279
:10239B00E4FEED6401701E43CC50E5CF30E2FB53FD
:1023AB00CCBFE5CF54F86408600BE5CF54F864104C
:1023BB0060037F00228FCDE5CF30E2FBE5CF54F8F1
:1023CB0064186010E5CF54F864286008E5CF54F822
:1023DB00FFBF40047E018002E4FEEDB4020343CC58
:0323EB0030AF060A
:0123EE0022CC
:10279800AB07AA06EAFF7D0112239BAF030D0223B4
:0127A8009B95
:1026B0007F017E4812279890643FE0FF746AFE1203
:1026C0002798A3E0FF746CFE122798A3E0FF746EB6
:0426D000FE02279847
:10250900AE07EDB4FF0790643FE05408F0EEB4FF66
:1025190007906441E05408F0EDF4600F74422DF522
:1025290082E43464F583E090643FF0EEF4600F7464
:0F253900422EF582E43464F583E0906441F02291
:10258600EF7008906441E054F7800AEFB4010F90B1
:102596006441E04408F090643FE054F7F022EFB461
:1025A6000208906441E054F7800AEFB4030E906489
:0D25B60041E04408F090643FE04408F0224A
:101E9000AE07E4906440F0EE30E006E04404F080E9
:101EA0000BEE20E007906440E054FBF0EEC313FD1E
:101EB00030E009906440E04402F0800BED20E00740
:101EC000906440E054FDF0EE1313543FFD30E00900
:101ED000906440E04480F0800BED20E00790644087
:101EE000E0547FF0EE131313541FFF30E0099064A9
:101EF00040E04440F0800BEF20E007906440E05465
:101F0000BFF0EEC4540FFF30E008906440E044207E
:0E1F1000F022EF20E007906440E054DFF02262
:1022EB0090640CE0FFF46006EFD39411501D9064E2
:1022FB000DE0FFF46006EFD39411500F90640EE0E5
:10230B00D394035006A3E0941F40117E007F037DFE
:10231B00007B017A64793F120EBB801B90640CE04A
:10232B00FFA3E0FD12250990640EE0FF12258690B5
:0B233B00640FE0FF121E901226B0227B
:080051008FD7E5D430E4FB2257
:1000240078C2E254CFF2E24410F29071807404F08A
:0A00340075D60175D59F75D2102214
:10272E0072656376206572720A0072656376207434
:09273E00696D65206F75740A00D5
:0B2148004160220044601EFFFFFFFF0B
:1027120078D2E254CFF2907176E0440BF043AA40B3
:0C272200D2AF75F60175F59F75F211221B
:101F1E00906022E06406702EFE7F047DFF7B017AC6
:101F2E0060791E120EBB7E007F037D007B017A64FA
:101F3E00793F120EBB1226B07BFF7A27792E12063E
:101F4E0086E4906022F0E47F0AFEFDFC90645FE080
:101F5E00F8A3E0F9A3E0FAA3E0FBC3120DFC403CAA
:101F6E007E007F047DFF7B017A60791E120EBB7EA0
:101F7E00007F037D007B017A64793F120EBB12262F
:101F8E00B0E4906022F012275E90645F120E84001F
:0D1F9E000000007BFF7A27793812068622AA
:03004E000218B8DD
:1018B800C0E0C0F0C083C082C0D075D000C000C0F6
:0D18C80001C002C003C004C005C006C00777
:1018D500906438E4F0E5F420E50302198AE5F7F0B1
:1018E50090645F120E84000000001227A990602208
:1018F500E07010906438E0B4A5099060227401F09E
:1019050002198A906022E0B40110906438E090607A
:101915001EF09060227402F0806B906022E0B402A9
:1019250010906438E090601FF09060227403F0809E
:1019350054906022E0B40310906438E0906020F089
:101945009060227404F0803D906022E0B4040E9013
:101955006438E0906021F0A37405F080289060223F
:10196500E0B4050E906438E0B45A0790602274071D
:1019750080059060227406F012275E90645F120E57
:051985008400000000D9
:10198A00D007D006D005D004D003D002D001D000B1
:0B199A00D0D0D082D083D0F0D0E0325B
:0721530044645F000000007E
:1024C900E5B154F342B153A8DFD2AF7892E4F208F0
:1024D900F27890E254F3F2E2441CF2E254FCF2E2A4
:1024E9004401F208E2547FF2E24420F27895740143
:1024F900F2187476F27890E2541FF2E244A0F222C4
:1027A9007890E2541FF2E244C0F243A820D2AF224B
:10275E007890E2541FF2E244A0F27892E4F208F28A
:04276E0053A8DF226B
:03001E0002234674
:10234600C0E0C0F0C083C082C0D075D000C000C05D
:1023560004C005C006C0077891E230E723E2448056
:10236600F290645FE0FCA3E0FDA3E0FEA3E024019D
:10237600FFE43EFEE43DFDE43CFC90645F120E7813
:10238600D007D006D005D004D000D0D0D082D083DC
:05239600D0F0D0E032A0
:10266200000009C4006400C80101F4004B000A0024
:1026720000010F040505000F00320011003200179F
:0A268200003200180032001901F4C4
:1011D700E4FF74E92FF582E43463F583E0C39408F0
:1011E700400302128874E92FF582E43463F583E043
:1011F700C39404504478C2C000E2FE74E92FF5821C
:10120700E43463F583E025E0FDF87403088002C346
:1012170033D8FCF45ED000F278C2C000E2FE74E975
:101227002FF582E43463F583E025E0FDF8740308C5
:101237008002C333D8FC0213EA78C3C000E2FE740D
:10124700E92FF582E43463F583E024FC25E0FDF81B
:101257007403088002C333D8FCF45ED000F278C36D
:10126700C000E2FE74E92FF582E43463F583E024DD
:10127700FC25E0FDF87403088002C333D8FC021391
:10128700EA74E92FF582E43463F583E0C3940850E8
:101297000302134E74E92FF582E43463F583E0C348
:1012A7009410400302134E74E92FF582E43463F57A
:1012B70083E0C3940C504878D2C000E2FE74E92F53
:1012C700F582E43463F583E024F825E0FDF8740340
:1012D700088002C333D8FCF45ED000F278D2C00095
:1012E700E2FE74E92FF582E43463F583E024F82500
:1012F700E0FDF87403088002C333D8FC0213EA78D0
:10130700D3C000E2FE74E92FF582E43463F583E08D
:1013170024F425E0FDF87403088002C333D8FCF4F5
:101327005ED000F278D3C000E2FE74E92FF582E4C4
:101337003463F583E024F425E0FDF87403088002A4
:10134700C333D8FC0213EA74E92FF582E43463F55A
:1013570083E0C39414504778E2C000E2FE74E92F9B
:10136700F582E43463F583E024F025E0FDF87403A7
:10137700088002C333D8FCF45ED000F278E2C000E4
:10138700E2FE74E92FF582E43463F583E024F02567
:10139700E0FDF87403088002C333D8FC804578E386
:1013A700C000E2FE74E92FF582E43463F583E0249C
:1013B700EC25E0FDF87403088002C333D8FCF45E23
:1013C700D000F278E3C000E2FE74E92FF582E4343E
:1013D70063F583E024EC25E0FDF87403088002C37D
:1013E70033D8FC4ED000F20FEF640560030211D929
:0113F70022D3
:03005D00022484F6
:10248400C0E0C0F0C083C082C0D075D000C000C01E
:1024940001C002C003C004C005C006C0077881E2C1
:1024A40030E607E24440F21221A3D007D006D0055B
:1024B400D004D003D002D001D000D0D0D082D083B9
:0524C400D0F0D0E03271
:1023EF00D2AF43AB0843B6C0907132E04440F043E4
:1023FF00AB087877743FF208744BF2787A7430F246
:10240F00788914F27871744FF2187427F278727415
:10241F00A8F2087410F208E4F208F208F2787E7459
:0F242F00D0F2087404F208741EF2087402F2224C
:03003F0002243E5A
:10243E00C0E0C0F0C083C082C0D075D000C000C064
:10244E0001C002C003C004C005C006C0079071538E
:10245E00E030E707E04480F01227B9D007D006D06D
:10246E0005D004D003D002D001D000D0D0D082D07D
:06247E0083D0F0D0E03233
:101D6900E4FBEB25E025E02478F582E43426F583CD
:101D7900740193FF74E92BF582E43463F583EFF082
:101D8900EB25E025E0247AF582E43426F583E49313
:101D9900FE740193FFEB25E02402F582E43464F537
:101DA90083EEF0A3EFF0EB25E024D0F582E4346371
:101DB900F583E4F0A3744BF0E47F01FEFDFC74E9C4
:101DC9002BF582E43463F583E0F9F8120E20E53F40
:101DD9004FF53FE53E4EF53EE53D4DF53DE53C4CC5
:101DE900F53C0BEB64056003021D6B1211D7121C45
:041DF900340223EF9E
:102600007265637620636F6D706C6574650A007324
:10261000656731202523780A0073656732202523FA
:10262000780A00706F696E74202523780A006C6543
:0726300064202523780A0055
:101B7100121A9075D9DD75D95590715EE054FEF059
:101B810075D9BB12278612254812268C121D69129F
:101B910024C9120024122712120060121F1E906025
:101BA10022E0B407F37BFF7A2679001206867BFFD9
:101BB1007A26790F90601EE0FF906413E4F0A3EFA2
:101BC100F01206867BFF7A26791990601FE0FF905C
:101BD1006413E4F0A3EFF01206867BFF7A267923E3
:101BE100906020E0FF906413E4F0A3EFF01206860A
:101BF1007BFF7A26792E906021E0FF906413E4F058
:101C0100A3EFF0120686780C7C647D017B017A607B
:101C1100791E7E007F04120D8F1222EB7E007F045D
:101C21007DFF7B017A60791E120EBBE4906022F089
:031C3100021B99FA
:101766006C6F6E672070726573730A006B3120644C
:101776006F75626C652070726573730A006B312039
:1017860070726573730A006B3220646F75626C65E4
:101796002070726573730A006B3220707265737302
:1017A6000A006B3320646F75626C65207072657316
:1017B600730A006B332070726573730A006B3420F2
:1017C600646F75626C652070726573730A006B34A2
:1017D6002070726573730A006B3520646F75626CD6
:1017E600652070726573730A006B352070726573BD
:1017F600730A006B31206C6F6E67207072657373AD
:101806000A006B32206C6F6E672070726573730A04
:10181600006B33206C6F6E672070726573730A00FD
:101826006B34206C6F6E672070726573730A006B81
:1018360035206C6F6E672070726573730A006B31AA
:1018460020636F6E74696E75652070726573730AB6
:10185600006B3220636F6E74696E756520707265F9
:1018660073730A006B3320636F6E74696E7565203F
:1018760070726573730A006B3420636F6E74696EE1
:1018860075652070726573730A006B3520636F6E21
:1018960074696E75652070726573730A006B31200A
:1018A6006C6F6E67207072657373206C6F6F7365F3
:0218B6000A0026
:10215A0041645E004464560000000044645A000072
:07216A000000426454000074
:0E221800906456E0FCA3E0FDA3E0FEA3E0FF0F
:06222600906410120E7816
:10222C00E4906414F0A3120E84000000007F017E81
:10223C00007D007C001226F41226D4AF1BAE1AAD22
:10224C0019AC18906415120E78906415E0FCA3E09C
:10225C00FDA3E0FEA3E0FF906410E0F8A3E0F9A377
:10226C00E0FAA3E0FBC3120DFC70037F0122906423
:0C227C0014E004F0E0C3946440B37F0061
:012288002233
:1000600090640C120E84000000001226D4AF1BAE68
:100070001AAD19AC1890640C120E7890645EE060B2
:100080000302013AFFFEFDFC906456E0F8A3E0F99C
:10009000A3E0FAA3E0FBC3120DFC701690640CE021
:1000A000FCA3E0FDA3E0FEA3E0FF906456120E78EF
:1000B000807D90640CE0FCA3E0FDA3E0FEA3E0FFE4
:1000C000906456E0F8A3E0F9A3E0FAA3E0FBC312C2
:1000D0000DFC705590645AE0FCA3E0FDA3E0FEA384
:1000E000E02401FFE43EFEE43DFDE43CFC90645A64
:1000F000120E78E47FEE7E02FDFC90645AE0F8A3D5
:10010000E0F9A3E0FAA3E0FBC3120DFC40219064E8
:100110005A120E84000000007BFF7A1779661206DF
:100120008690645E7402F0800690645E7404F07FD2
:10013000017E007D007C001226F490645EE0640481
:0501400060030202A1B2
:10014500C200FFFEFD7C01906456E0F8A3E0F9A330
:10015500E0FAA3E0FBC3120DFC702B122218EF246A
:10016500FF92007BFF30000D7A1779721206867DAB
:10017500017F04800B7A1779831206867D01E4FFDF
:1001850012274702029BE4FFFEFD7C02906456E0C5
:10019500F8A3E0F9A3E0FAA3E0FBC3120DFC702B72
:1001A500122218EF24FF92007BFF30000D7A177999
:1001B5008D1206867D027F04800B7A17799E1206C2
:1001C500867D02E4FF12274702029BE4FFFE7D8045
:1001D500FC906456E0F8A3E0F9A3E0FAA3E0FBC3C2
:1001E500120DFC702B122218EF24FF92007BFF30BA
:1001F500000D7A1779A81206867D037F04800B7A95
:100205001779B91206867D03E4FF12274702029B80
:10021500E4FFFE7D02FC906456E0F8A3E0F9A3E05C
:10022500FAA3E0FBC3120DFC702A122218EF24FF7B
:1002350092007BFF30000D7A1779C31206867D0484
:100245007F04800B7A1779D41206867D04E4FF12A9
:1002550027478042E4FF7E80FDFC906456E0F8A3CA
:10026500E0F9A3E0FAA3E0FBC3120DFC702E122205
:1002750018EF24FF92007BFF30000D7A1779DE120C
:1002850006867D057F04800B7A1779EF1206867D39
:0C02950005E4FF12274790645E7405F03A
:1002A10090645EE064026003020378FFFEFD7C015E
:1002B10090640CE0F8A3E0F9A3E0FAA3E0FBC31219
:1002C1000DFC700E7BFF7A1779F91206867D01020B
:1002D100036DE4FFFEFD7C0290640CE0F8A3E0F9FD
:1002E100A3E0FAA3E0FBC3120DFC700D7BFF7A18AB
:1002F10079081206867D028073E4FFFE7D80FC9002
:10030100640CE0F8A3E0F9A3E0FAA3E0FBC3120D4B
:10031100FC700D7BFF7A1879171206867D03804CDD
:10032100E4FFFE7D02FC90640CE0F8A3E0F9A3E099
:10033100FAA3E0FBC3120DFC700D7BFF7A1879263E
:100341001206867D048025E4FF7E80FDFC90640C0E
:10035100E0F8A3E0F9A3E0FAA3E0FBC3120DFC70FF
:10036100107BFF7A1879351206867D057F011227E9
:100371004790645E7403F090645EE064036003027E
:10038100055B90640CE0FCA3E0FDA3E0FEA3E0FFAD
:10039100906456E0F8A3E0F9A3E0FAA3E0FBC312EE
:1003A1000DFC600302055590645AE0FCA3E0FDA337
:1003B100E0FEA3E02401FFE43EFEE43DFDE43CFC5D
:1003C10090645A120E78E4FFFEFD7C0190640CE00B
:1003D100F8A3E0F9A3E0FAA3E0FBC3120DFC70342B
:1003E1007F96FEFDFC90645AE0F8A3E0F9A3E0FAE1
:1003F100A3E0FBC3120DFC500302054890645A129E
:100401000E84000000007BFF7A1879441206867D75
:1004110001020543E4FFFEFD7C0290640CE0F8A3B9
:10042100E0F9A3E0FAA3E0FBC3120DFC70347F9660
:10043100FEFDFC90645AE0F8A3E0F9A3E0FAA3E022
:10044100FBC3120DFC500302054890645A120E843E
:10045100000000007BFF7A1879571206867D0202A0
:100461000543E4FFFE7D80FC90640CE0F8A3E0F915
:10047100A3E0FAA3E0FBC3120DFC70347F96FEFDEE
:10048100FC90645AE0F8A3E0F9A3E0FAA3E0FBC30F
:10049100120DFC500302054890645A120E840000AC
:1004A10000007BFF7A18796A1206867D03020543F4
:1004B100E4FFFE7D02FC90640CE0F8A3E0F9A3E008
:1004C100FAA3E0FBC3120DFC70307F96FEFDFC9099
:1004D100645AE0F8A3E0F9A3E0FAA3E0FBC3120D2C
:1004E100FC406490645A120E84000000007BFF7A85
:1004F10018797D1206867D048048E4FF7E80FDFC2C
:1005010090640CE0F8A3E0F9A3E0FAA3E0FBC312C6
:100511000DFC70337F96FEFDFC90645AE0F8A3E079
:10052100F9A3E0FAA3E0FBC3120DFC401A90645A50
:10053100120E84000000007BFF7A18799012068663
:100541007D057F021227477F017E007D007C00121E
:1005510026F4800690645E7406F090645EE06406A2
:0A0561006008E0640560030205F085
:10056B00E4FFFEFDFC90640CE0F8A3E0F9A3E0FAD5
:10057B00A3E0FBC3120DFC701B906455E004F070FC
:10058B0006906454E004F07F017E007D007C001235
:10059B0026F48007E4906454F0A3F0C3906455E014
:1005AB0094C8906454E09400403BE4F0A3F0906452
:1005BB005EE0B4062AE4FFFEFD7C01906456E0F891
:1005CB00A3E0F9A3E0FAA3E0FBC3120DFC70107BD0
:1005DB00FF7A1879A31206867D017F0312274790B5
:0505EB00645E7407F0DE
:1005F00090645EE0B4072390640C120E8400000047
:1006000000906456120E840000000090645A120E8E
:0A0610008400000000E490645EF036
:01061A0022BD
:10217100C10D4260260000416023004160240041FE
:03218100602500D6
:1027860078D2E254F3F2E24404F2907187E4F0D294
:0227960091228E
:10254800E5B154CF42B1789CE254F3F2E24414F27C
:10255800E254FCF2E24401F208E2547FF2E2442041
:10256800F278A07432F2087401F2789EE4F208F26C
:0E257800789CE2541FF2E244A0F253A8BF2266
:0E000F00789CE2541FF2E244C0F243A8402263
:10277200789CE2541FF2E244A0F2789EE4F208F25E
:0427820053A8BF2277
:030021000219A51C
:1019A500C0E0C083C082C0D075D000C000C006C0F2
:0119B500072A
:1019B600789DE220E703021A81E24480F2200D03BB
:1019C600021A81906024E0FFC3740F9FFF7E0074AB
:1019D60001A807088005C333CE33CED8F9FF90603F
:1019E60026E05EFEA3E05F4E6021906023E0146077
:1019F6000E14600F1460102403702FD291802BD226
:101A0600918027D2918023C291801F906023E01499
:101A1600600E14600F1460102403700ED291800AB9
:101A2600C2918006C2918002C291906023E004F0C8
:101A3600E0C394044009A3E004F0906023E4F0902E
:101A46006024E0C394104014A3E0701004F090608A
:101A560024E014F09060237403F0801F906024E06B
:101A6600C394104016A3E0B40111906024E4F090F2
:0B1A76006023F0906025F0C20DD291BB
:0F1A8100D007D006D000D0D0D082D083D0E032B2
:10263700906026EEF0A3EFF0C2917F057E007D004B
:102647007C001226F412000FD20D200DFD12277206
:0B2657007F0A7E007D007C000226F45C
:02274700A905E2
:10274900EFC43354E0FCE9541F4CFCECF4FFEFFDFB
:05275900AE040226376A
:1021840041603C0142603D000041603F00416040CD
:0E21940000416041004160427F426043FFFF16
:1025C300E4F561AE3EAD3DAC3C853F178E168D15EF
:1025D3008C14787EE254FCF2E24514F218E515F20D
:1025E30018E516F218E517F2787FE254FBF2E2548D
:0D25F300FB4404F2E24401F27F01021FAB41
:100F8500906419EFF0E0FF24DAF582E43463F58329
:100F9500E004F074E42FF582E43463F583E4F0743F
:100FA500DA2FF582E43463F583E0C39563500302D9
:100FB50011D6906419E0FB24DAF582E43463F583F5
:100FC500E4F090267393640160030211877F01FEAC
:100FD500FDFC74E92BF582E43463F583E0F9F8123E
:100FE5000E20E51F4FF51FE51E4EF51EE51D4DF5BF
:100FF5001DE51C4CF51CAF1FAE1EAD1DFC78011286
:101005000E0DEF5455FBEE5455FAED5455F9EC54CD
:1010150055F8C3E51F9BF53BE51E9AF53AE51D9985
:10102500F539E51C98F538AF3BAE3AAD39FC780299
:10103500120E0DEF5433FBEE5433FAED5433F9EC45
:101045005433F8E53B5433FFE53A5433FEE5395460
:1010550033FDE5385433FCEB2FF53BEA3EF53AE931
:101065003DF539E83CF538AF3BAE3AAD39FC78048F
:10107500120E0DEF253BFFEE353AFEED3539FDEC51
:101085003538FCEF540FF53BEE540FF53AED540FA0
:10109500F539EC540FF538AF3BAE3AAD39FC78086D
:1010A500120E0DEF253BFFEE353AED3539FDEC35EA
:1010B50038EFF53BE4F53AEDF539E4F538AE3AAC01
:1010C500387810120E0DEF253BFFEE353AFEEFF5A1
:1010D5003BEEF53AE4F539F538906419E025E0245E
:1010E500EEF582E43463F583E0FEA3E0D39553EE99
:1010F50095524024906419E0FF25E024EEF582E442
:101105003463F583E0F552A3E0F55374E92FF582D6
:10111500E43463F583E0F564902673E493FFE4FC1F
:10112500FDFEAB3BAA3AA939A838D3120DFC4052B3
:10113500AF650565D3EF9403748094805003021165
:10114500D6E4F565F51FF51EF51DF51C7F01FEFDC1
:10115500FCA964A801120E208F1B8E1A8D198C18FC
:10116500E47F01FEFDFCA801120E208F338E328D27
:10117500318C30E4F552F55375642012202F433736
:101185000222E4F5657F01FEFDFC906419E0FB2475
:10119500E9F582E43463F583E0F9F8120E20E51BE6
:1011A5004FF51BE51A4EF51AE5194DF519E5184CDD
:1011B500F518E47F01FEFDFCA803120E20E5334F70
:1011C500F533E5324EF532E5314DF531E5304CF587
:0211D5003022C6
:10098000E4F566902677E493FFE566C39F40030293
:100990000CBEE56625E02400F582E4346085828A99
:1009A0007F548F8B7E0E8E8C758903758889E566E2
:1009B00025E02400F582E4346085828A8F8B758C73
:1009C00012758904758889E56625E02414F582E4AA
:1009D0003460F583E0FCA3E0C3950FEC950E502E38
:1009E000E56625E02432F582E43460F583E0FCA37B
:1009F000E0C39513EC95125015AF600560EF9402BB
:100A000074809480400BE4F5605337FD8003E4F577
:100A100060E53730E125E56625E024EEF582E43433
:100A200063F583E4F0A3F0E56625E024F8F582E4BD
:100A30003463F583E4F0A3F0020ACEE56625E024F2
:100A400014F582E4346085828A8E8B758C0A7589F0
:100A5000267588892088FDE5F130E00875F107E406
:100A6000F50AF50BAE0AE50B7802C333CE33CED8C8
:100A7000F9FFE56625E024EEF582E43463F583EEC4
:100A8000F0A3EFF0E56625E02432F582E4346085DA
:100A9000828A758B12758C0A7589277588892088DA
:100AA000FDE5F130E00875F107E4F50AF50BAE0A53
:100AB000E50B7802C333CE33CED8F9FFE56625E0E7
:100AC00024F8F582E43463F583EEF0A3EFF0E566F5
:100AD00025E02402F582E43464F583E0FEA3E078A7
:100AE00002CEC313CE13D8F9F5518E50E56625E03A
:100AF00024EEF582E43463F583E0FEA3E0FF902664
:100B00006FE493FC740193FDC3EF9DEE9C4017E5E9
:100B10006625E024F8F582E43463F583E0FEA3E083
:100B2000C39DEE9C50028068E56625E024EEF582C8
:100B3000E43463F583E0FEA3E0C39551EE955040A5
:100B40001CE56625E024F8F582E43463F583E0FED5
:100B5000A3E0C39551EE95504003020BDA74DF25F4
:100B600066F582E43463F583E004F074DF2566F50E
:100B700082E43463F583E0FF902674E493FEEFD3C0
:100B80009E406474DF2566F582E43463F583E4F007
:100B9000E56625E0240AF582E43460F583E0FEA3EF
:100BA000E0FFE56625E02414F582E43460F583EE89
:100BB000F0A3EFF0E56625E02428F582E43460F543
:100BC00083E0FEA3E0FFE56625E02432F582E4340D
:100BD00060F583EEF0A3EFF0800D74DF2566F582FB
:100BE000E43463F583E4F0E56625E0240AF582E465
:100BF000346085828AE56625E02400F582E434606D
:100C000085828B758C0A7589207588CB2088FDE5D7
:100C1000F130E00875F107E4F50AF50BE56625E02B
:100C2000240AF582E4346085828A758B547F0E8FA6
:100C30008C7589237588897E0A8E8A8F8BE5662557
:100C4000E0240AF582E4346085828CE4F5897588B5
:100C500029E56625E02428F582E4346085828AE56A
:100C60006625E02400F582E4346085828B8E8C75E5
:100C700089207588CB2088FDE5F130E00875F10703
:100C8000E4F50AF50BE56625E02428F582E43460F6
:100C900085828A758B547F0E8F8C7589247588891F
:100CA000758A0A8F8BE56625E02428F582E4346096
:0F0CB00085828CE4F589758829056602098322FF
:1013F800E4F566902677E493FFE566C39F40030211
:1014080015B0E56625E02402F582E43464F583E04E
:10141800FEA3E07802CEC313CE13D8F9F5518E504F
:10142800E56625E024EEF582E43463F583E0FEA367
:10143800E0D39551EE9550402EE56625E024F8F569
:1014480082E43463F583E0FEA3E0D39551EE955032
:10145800401574E42566F582E43463F583E4F0AF5F
:1014680066120F850215AB902676E493FFC3E5510B
:101478009FFFE5509400FED3EF9400EE94004002E5
:1014880080047E007F00E56625E024EEF582E434E2
:1014980063F583E0FCA3E0C39FEC9E400302159E26
:1014A800902676E493FFC3E5519FFFE5509400FE34
:1014B800D3EF9400EE9400400280047E007F00E5A4
:1014C8006625E024F8F582E43463F583E0FCA3E0C4
:1014D800C39FEC9E400302159E74DA2566F582E4EC
:1014E8003463F583E4F074E42566F582E43463F547
:1014F80083E004F074E42566F582E43463F583E060
:10150800C3956350030215AB74E42566F582E43491
:1015180063F583E4F07F01FEFDFC74E92566F5823E
:10152800E43463F583E0F9F8120E20120DCBE51FC1
:101538005FF51FE51E5EF51EE51D5DF51DE51C5CEE
:10154800F51CE47F01FEFDFCA966A801120E20121D
:101558000DCBE5335FF533E5325EF532E5315DF508
:1015680031E5305CF530E47F01FEFDFC74E9256669
:10157800F582E43463F583E0F9F8120E20120DCBFE
:10158800E51B5FF51BE51A5EF51AE5195DF519E52A
:10159800185CF518800D74E42566F582E43463F56B
:0915A80083E4F005660213FB2246
:10202F00E4F566902677E493FFE566C39F506EE56F
:10203F006625E024EEF582E43463F583E4F0A3F043
:10204F00E56625E024F8F582E43463F583E4F0A334
:10205F00F0E56625E0240AF582E43460F583E0FEBE
:10206F00A3E0FFE56625E02414F582E43460F583F0
:10207F00EEF0A3EFF0E56625E02428F582E4346066
:10208F00F583E0FEA3E0FFE56625E02432F582E468
:0E209F003460F583EEF0A3EFF0056680862234
:101DFD00E4F566902677E493FFE566C39F50679000
:101E0D00603CE0FF7E00C39410748094805053EFCB
:101E1D009408748094804025E56625E02400F582C1
:101E2D00E43460F583E0FEA3E0FFE56625E0240AD7
:101E3D00F582E43460F583EE8FF0120DB5E566257D
:101E4D00E02400F582E43460F583E0FEA3E0FFE5D5
:101E5D006625E02428F582E43460F583EE8FF012D8
:101E6D000DB50566808D90603CE0C3941074809430
:101E7D00804005433704800690603CE004F07F010C
:031E8D00021FAB86
:1020AD00E4FFFEFDFCAB1BAA1AA919A818C3120D5B
:1020BD00FC606390603EE004F0700690603DE004CB
:1020CD00F090266BE493FE740193FF4E602ED39037
:1020DD00603EE09F90603DE09E4021E4F0A3F0F56E
:1020ED001FF51EF51DF51CF533F532F531F530F5FF
:1020FD001BF51AF519F518C20B02202F90266DE469
:10210D0093FE740193FFD390603EE09F90603DE09D
:0D211D009E400AD20B22E490603DF0A3F03A
:01212A002292
:0515B10090643AEFF028
:1015B600A3E0FCA3E0FDA3E0FEA3E0F52E8E2D8DB7
:1015C6002C8C2B7884E2F50A08E2F50B758A0875EF
:1015D6008B2B758C2775881D2088FDE4FFFEFDFC8E
:1015E600AB2AAA29A928A827D3120DE64006AC27BC
:1015F600A8048013AF2AAE29AD28AC27120DD8ABAC
:1016060007AA06A905A804906043E0FEA3E0FFE44C
:10161600FCFDC3120DE65041E4FFFEFDFCAB2AAA19
:1016260029A928A827120DE64006AF2AAE29800B65
:10163600AF2AAE29AD28AC27120DD8906043EEF044
:10164600A3EFF090643AE025E024D0F582E4346319
:10165600F583E0A3E0906042F0902668E493FE7480
:101666000193FFD3906044E09F906043E09E501B3F
:1016760090643AE025E024D0F582E43463F583E013
:10168600A3E0906042F090603F8079E4FFFEFDFCAD
:10169600AB2AAA29A928A827D3120DE640349064BC
:1016A6003AE0FF25E024D0F582E43463F583E0FCDC
:1016B600A3E0D39400EC9400404DEF25E024D0F550
:1016C60082E43463F58374FFF5F0120DB590604043
:1016D600803290643AE0FF25E024D0F582E434635A
:1016E600F583E0FCA3E0C3947FEC94005019EF254A
:1016F600E024D0F582E43463F583E475F001120D3D
:10170600B59060417401F0906040E064017011A3EF
:10171600E06401700B906040F0A3F090603F04F02D
:1017260090603FE064017035906042E0FF90643A5B
:10173600E025E024D0F582E43463F583E4F0A3EFFA
:10174600F074FF906043F0A3F0906042747FF0E481
:0F175600906040F0A3F090603FF07F01227F0091
:011765002261
:10228900E4906439F0902662120E337801120E2020
:1022990090643B120E78AF611215B1EF60220561AF
:1022A900E53730E4095337EF9064397401F090262B
:1022B90077E493FFE561C39F4006E4F56143371076
:1022C900C39026667401939562E493940040089044
:1022D9006439E064017005D20A0225C3E4FF121FC4
:0122E900AB49
:0122EA0022D1
:101FAB00EF70607F01FEFDFC74E92561F582E4347E
:101FBB0063F583E0F9F8120E208F178E168D158CB2
:101FCB0014787EE254FCF2E24514F218E515F2188F
:101FDB00E516F218E517F2E56125E024D0F582E469
:101FEB003463F583E0A3E0547FFF7878E254804FAD
:101FFB00F2787FE254FBF2E254FB4404F2E2440138
:10200B00F2801CE56125E024D0F582E43463F5838E
:10201B00E0A3E0547FFF7878E254804FF2787FE2C0
:04202B004402F22257
:101C3400E490640CF0A3F090640CE0FEA3E0FFC316
:101C44009488EE94035031EF2480FFEE34098F82A0
:101C5400F583E493FF90640DE02445FD90640CE06B
:101C640034608D82F583EFF090640DE004F070C76A
:081C740090640CE004F080BF55
:101C7C009063CD7401F0A37460F0A37445F0E4F5A7
:101C8C0061F537F536F535F534C20AC20BF51FF59B
:101C9C001EF51DF51CF533F532F531F530F51BF558
:101CAC001AF519F51890267193FF902675E493FE9A
:101CBC00A807088002C333D8FCF563756420E4FFE1
:031CCC00021FAB49
:1021A3007884E2F50A08E2F50BAE0A7803CEC3138E
:1021B300CE13D8F97802C333CE33CED8F9FFE56115
:1021C30025E02400F582E43460F583EEF0A3EFF01C
:1021D300200A0F90266AE4937005D20A0225C302EF
:1021E30022890561902677E493FFE561C39F401F31
:1021F300787FE254FBF2E254FB4404F2E24401F23E
:10220300E4F561E53720E203021DFD433701227F38
:0522130001121FAB22C7
:0527B90005620220ADE5
:1026D400E53730E01A9063CDA3E0FAA3E0F9120ED7
:1026E400B51213F8E4F5617F01121FAB5337FE22D4
:101CE900021B71E493A3F8E493A34003F68001F285
:101CF90008DFF48029E493A3F85407240CC8C333FC
:101D0900C4540F4420C8834004F456800146F6DFCA
:101D1900E4800B010204081020408090212BE47E0E
:101D2900019360BCA3FF543F30E509541FFEE493BF
:101D3900A360010ECF54C025E060A840B8E493A386
:101D4900FAE493A3F8E493A3C8C582C8CAC583CAB1
:101D5900F0A3C8C582C8CAC583CADFE9DEE780BE69
:0121A200003C
:100CBF00E709F608DFFA8046E709F208DFFA803E17
:100CCF0088828C83E709F0A3DFFA8032E309F60804
:100CDF00DFFA8078E309F208DFFA807088828C836C
:100CEF00E309F0A3DFFA806489828A83E0A3F60820
:100CFF00DFFA805889828A83E0A3F208DFFA804CFA
:100D0F0080D280FA80C680D4806980F280338010D0
:100D1F0080A680EA809A80A880DA80E280CA803339
:100D2F0089828A83ECFAE493A3C8C582C8CCC583B1
:100D3F00CCF0A3C8C582C8CCC583CCDFE9DEE78081
:100D4F000D89828A83E493A3F608DFF9ECFAA9F000
:100D5F00EDFB2289828A83ECFAE0A3C8C582C8CC56
:100D6F00C583CCF0A3C8C582C8CCC583CCDFEADE6F
:100D7F00E880DB89828A83E493A3F208DFF980CCD1
:100D8F0088F0EF60010E4E60C388F0ED2402B404CA
:100D9F000050B9F582EB2402B4040050AF23234571
:060DAF008223900D0F737A
:100DB500C5F0F8A3E028F0C5F0F8E58215827002C9
:060DC5001583E038F02266
:0D0DCB00CFF4CFCEF4CECDF4CDCCF4CC22BD
:0E0DD800C3E49FFFE49EFEE49DFDE49CFC222C
:100DE600EB9FF5F0EA9E42F0E99D42F0EC6480C884
:060DF60064809845F02224
:100DFC00EB9FF5F0EA9E42F0E99D42F0E89C45F04D
:010E0C0022C3
:100E0D00E8600FECC313FCED13FDEE13FEEF13FFC3
:030E1D00D8F122E7
:100E2000E8600FEFC333FFEE33FEED33FDEC33FC30
:030E3000D8F122D4
:100E3300E493FC740193FD740293FE740393FF2205
:100E43007401FF3395E0FEFDFCA3A3A3E0CF2FF0D5
:100E5300E582158270021583E0CE3EF0E5821582AD
:100E630070021583E0CD3DF0E58215827002158393
:050E7300E0CC3CF02280
:0C0E7800ECF0A3EDF0A3EEF0A3EFF022ED
:100E8400A8828583F0D083D082120E9B120E9B120F
:100E94000E9B120E9BE473E493A3C583C5F0C58334
:100EA400C8C582C8F0A3C583C5F0C583C8C582C8B8
:010EB400221B
:060EB5008A838982E473C8
:10061B00E5222413F582E43464F583E0052222906D
:10062B006410300803906413E475F001120F3F025D
:10063B000EE72001E97F2ED2018018EF540F249092
:10064B00D43440D4FF30050BEF24BFB41A00500351
:10065B002461FFE523600215230526E526700205BC
:10066B002530080E906410E475F001120F3FEF0275
:10067B000F2D0200517403D2088003E4C208F52247
:10068B00906410120F56E4F523F525F526E523604B
:10069B00077F2012065E80F57524FFC202C201C2DD
:1006AB0003C204C206C207C20912062AFF700D302C
:1006BB0008057F0012066FAF26AE2522B4255FC258
:1006CB00D5C20512062AFF24D0B40A00501A75F0C1
:1006DB000A782330D50508B6FF0106C6A426F620F6
:1006EB00D5047002D20480D924CFB41A00EF500481
:1006FB00C2E5D205020870D20280C6D20180C0D2F8
:10070B000380BCD2D580BAD20680B47F2012065E9D
:10071B002003077401B5230040F112061BFF1206DC
:10072B005E020698D209D207809512061BFB1206B1
:10073B001BFA12061BF94A4B700679417A097BFFAB
:10074B0020032EE523602A7E008E82758300120F14
:10075B000060060EEE652470F0C2D5EBC0E0EAC077
:10076B00E0E9C0E0EE1208B7D0E0F9D0E0FAD0E053
:10077B00FB120EE7FF60AAEBC0E0EAC0E0E9C0E0C5
:10078B0012065ED0E02401F9D0E03400FAD0E0FB91
:10079B00E5240460DCD524D980877BFF7A0879B304
:1007AB00D203809C791080027908C207C2098008A5
:1007BB00D2D5790A8004790AC2D5E524047002F5F2
:1007CB0024E4FAFDFEFF12061BFC7B082002131229
:1007DB00061BFD7B1030010A12061BFE12061BFFC7
:1007EB007B20EC3382D592D55013C3E43001069FA6
:1007FB00FFE49EFEE42002039DFDE49CFCE4CBF8A9
:10080B00C202EC700CCFCECDCCE824F8F870F3809C
:10081B0017C3EF33FFEE33FEED33FDEC33FCEB335D
:10082B00FB994002FB0FD8E9EB300205F8D0E0C48E
:10083B0048B202C0E00AEC4D4E4F78207B0070C2EC
:10084B00EAB5240040BCC0E01208B9D0F0D0E020DB
:10085B000204C4C0E0C4B202C0F0120647D0F0D507
:10086B00F0EB020698120F5F07355307AF580706D8
:10087B004C07024207B34F07BB4407BB49071B4357
:08088B0007C15507A54607A5AA
:100893004507A547096150070A2D070E2E07312B7F
:1008A300071223072F20094A2A06CA4800000729EE
:1008B3003F3F3F00790AA2D5200414300609B9103E
:1008C300020404B9080104A2D52007025001042040
:1008D30003689203B523005034C0E07F203004192D
:1008E3007F30A20372077206500F120910C203C2AF
:1008F30007C206C2097F30800F300603E9C0E01249
:10090300065E300603D0E0F9D0E0B523CC300617FD
:100913007F30B9100C12065E7F583005077F788050
:1009230003B9080312065E3003057F2D02065E7FBE
:10093300202009F87F2B2007F322920380CF286E13
:10094300756C6C2900D20212061B3002F8C20278C1
:100953002330D50108F60206CA2D50434958120622
:100963001B2403B405004001E490095C9312064F75
:0D097300743A12064FD2047523040207AF38
:100EBB00EF4E6012EF60010EEDBB010B89828A834E
:100ECB00F0A3DFFCDEFA2289F05007F709DFFCA95B
:0C0EDB00F022BBFEFCF309DFFCA9F022B2
:100EE700BB010689828A83E0225002E722BBFE0209
:090EF700E32289828A83E493223C
:100F0000BB010CE58229F582E5833AF583E02250A6
:100F100006E92582F8E622BBFE06E92582F8E222F0
:0D0F2000E58229F582E5833AF583E493220A
:100F2D00BB010689828A83F0225002F722BBFE01A3
:020F3D00F3229D
:100F3F00F8E0FBA3A3E0F925F0F0E582158270023B
:070F4F001583E0FA38F022DF
:090F5600EBF0A3EAF0A3E9F0229C
:100F5F00D083D082F8E4937012740193700DA3A321
:100F6F0093F8740193F5828883E473740293686035
:060F7F00EFA3A3A380DF35
:00000001FF
