:03000000021C2AB5
:101C2A00787FE4F6D8FD9060007F007E07E4F0A399
:0A1C3A00DFFCDEFA758166021C7FF4
:0C000300000000000000000000000000F1
:0B270A00EF1FAC0670011E4C70F622A1
:10263F00AB07AA06EB1BAE0270011A4E60097FAA08
:08264F007E0512270A80ED222E
:101A0B00907120E04480F07F057E0012270AE4FFEE
:101A1B00FE12263F75A75575AC5C9071327450F071
:101A2B009071307403F0907136742FF090715C7478
:101A3B0003F090715BE054FCF07F18EF2466FDE43B
:101A4B0034718D82F583E4F00FEFB433EE904011D7
:101A5B00E4935407FF90711CE054F84FF09040173B
:101A6B00E493547FFF90711DE054804FF090401031
:101A7B00E493FF5401C43333335480FE907123E05D
:101A8B00547F4EF0EFC313543F4440FFA3E0548008
:101A9B004FF0904012E493FF540FFE907146E054C8
:101AAB00F04EF0EFC4540FFF90714FE054F04FF035
:101ABB00904013E493543FFF907140E054C04FF0BB
:101ACB00904014E493907126F0904015E49390713C
:0B1ADB0028F0904016E49390712AF070
:011AE60022DD
:101EFC004C64263F065B4F666D7D077F6F0040414B
:0B1F0C006424004164250041643201A0
:1025A40078D3E254C3F2E24428F278D0E24460F2F1
:1025B40078DAE24460F2907168E04460F075CC022D
:0425C40043CC802262
:10226D00E4FEED6401701E43CC50E5CF30E2FB532C
:10227D00CCBFE5CF54F86408600BE5CF54F864107B
:10228D0060037F00228FCDE5CF30E2FBE5CF54F820
:10229D0064186010E5CF54F864286008E5CF54F851
:1022AD00FFBF40047E018002E4FEEDB4020343CC87
:0322BD0030AF0639
:0122C00022FB
:10257C00906024EBF0A3EAF0A3E9F07E007F047DE9
:10258C00002401F9E43AFA121793906024E0FBA3BB
:08259C00E0FAA3E0F90220ECD3
:10002D00AB07AA06EAFF7D0112226DAF030D022276
:01003D006D55
:1017BF009064257401F01460401460751470030276
:1017CF001878240360030218B490000112163954DC
:1017DF0080FF906431E0FE4F90000112166690007A
:1017EF000212163954804E900002121666900003B2
:1017FF0012163954804E0218AE9000011216395449
:10180F0080FF906430E04F90000112166690000246
:10181F001216395480FF90642CE04F90000212167C
:10182F00669000031216395480FF906426E04F80B3
:10183F006E9000011216395480FF906430E04F9083
:10184F0000011216669000021216395480FF906440
:10185F002FE04F90000212166690000312163954B3
:10186F0080FF906426E04F803690000112163954A5
:10187F0080FF906427E04F900001121666900002DF
:10188F001216395480FF906428E04F900002121610
:10189F00669000031216395480FF906426E04F9033
:1018AF0000031216669000011216395480FF9064DF
:1018BF0024E0FE2426F582E43464F583E04F9000A3
:1018CF00011216669000021216395480FF74262EEC
:1018DF00F582E43464F583E04F90000212166690AF
:1018EF0000031216395480FF906424E02426F582F9
:1018FF00E43464F583E04F9000031216669064247D
:0C190F00E004F0E0D394094002E4F02270
:1020EC00906027EBF0A3EAF0A3E9F07F017E4812A1
:1020FC00002D906027E0FBA3E0FAA3E0F99000012B
:10210C00121639FF7468FE12002D906027E0FBA3B5
:10211C00E0FAA3E0F9900002121639FF746AFE127D
:10212C00002D906027E0FBA3E0FAA3E0F9900003F8
:10213C00121639FF746CFE12002D906027E0FBA381
:10214C00E0FAA3E0F9900004121639FF746EFE0257
:02215C00002D54
:1024ED00906024EFF0AC03A9057F017E4812002D0A
:1024FD00E0FF7468FE12002DAF04746AFE12002D09
:10250D00AF01746CFE12002D906027E0FF746EFE1B
:03251D0002002D8C
:10004200906432E0FDFFFB906027F01224ED906493
:0A00520032E025E0F0700204F02215
:10252000000009C4006400C80101F4004B000A0067
:1025300000010F0405060000003200020032000313
:0E254000003200090032000A00320018004B81
:1010AA00E4FF74FA2FF582E43463F583E0C394080D
:1010BA00400302115B74FA2FF582E43463F583E08E
:1010CA00C39404504478C2C000E2FE74FA2FF58239
:1010DA00E43463F583E025E0FDF87403088002C375
:1010EA0033D8FCF45ED000F278C2C000E2FE74FA93
:1010FA002FF582E43463F583E025E0FDF8740308F4
:10110A008002C333D8FC0212BD78C3C000E2FE7469
:10111A00FA2FF582E43463F583E024FC25E0FDF838
:10112A007403088002C333D8FCF45ED000F278C39B
:10113A00C000E2FE74FA2FF582E43463F583E024FA
:10114A00FC25E0FDF87403088002C333D8FC0212C0
:10115A00BD74FA2FF582E43463F583E0C394085032
:10116A000302122174FA2FF582E43463F583E0C393
:10117A009410400302122174FA2FF582E43463F5C5
:10118A0083E0C3940C504878D2C000E2FE74FA2F70
:10119A00F582E43463F583E024F825E0FDF874036E
:1011AA00088002C333D8FCF45ED000F278D2C000C3
:1011BA00E2FE74FA2FF582E43463F583E024F8251D
:1011CA00E0FDF87403088002C333D8FC0212BD782C
:1011DA00D3C000E2FE74FA2FF582E43463F583E0AB
:1011EA0024F425E0FDF87403088002C333D8FCF424
:1011FA005ED000F278D3C000E2FE74FA2FF582E4E2
:10120A003463F583E024F425E0FDF87403088002D2
:10121A00C333D8FC0212BD74FA2FF582E43463F5A5
:10122A0083E0C39414504778E2C000E2FE74FA2FB8
:10123A00F582E43463F583E024F025E0FDF87403D5
:10124A00088002C333D8FCF45ED000F278E2C00012
:10125A00E2FE74FA2FF582E43463F583E024F02584
:10126A00E0FDF87403088002C333D8FC804578E3B4
:10127A00C000E2FE74FA2FF582E43463F583E024B9
:10128A00EC25E0FDF87403088002C333D8FCF45E51
:10129A00D000F278E3C000E2FE74FA2FF582E4345B
:1012AA0063F583E024EC25E0FDF87403088002C3AB
:1012BA0033D8FC4ED000F20FEF640660030210AC84
:0112CA002201
:03005D000223A9D2
:1023A900C0E0C0F0C083C082C0D075D000C000C0FA
:1023B90001C002C003C004C005C006C0077881E29D
:1023C90030E607E24440F2122077D007D006D00564
:1023D900D004D003D002D001D000D0D0D082D08395
:0523E900D0F0D0E0324D
:10231400D2AF43AB0843B6C0907132E04440F043BF
:10232400AB087877743FF208744BF2787A7430F221
:10233400788914F27871744FF2187427F2787274F1
:10234400A8F2087410F208E4F208F208F2787E7435
:0F235400D0F2087404F208741EF2087402F22228
:03003F0002236336
:10236300C0E0C0F0C083C082C0D075D000C000C040
:1023730001C002C003C004C005C006C0079071536A
:10238300E030E707E04480F012271CD007D006D0E6
:1023930005D004D003D002D001D000D0D0D082D059
:0623A30083D0F0D0E0320F
:101CC400E4FBEB25E025E02436F582E43425F583B6
:101CD400740193FF74FA2BF582E43463F583EFF017
:101CE400EB25E025E02438F582E43425F583E493FC
:101CF400FE740193FFEB25E02418F582E43464F5C7
:101D040083EEF0A3EFF0EB25E024DCF582E434630A
:101D1400F583E4F0A3744BF0E47F01FEFDFC74FA58
:101D24002BF582E43463F583E0F9F81216F3E53F0A
:101D34004FF53FE53E4EF53EE53D4DF53DE53C4C6A
:101D4400F53C0BEB64066003021CC61210AA121BBE
:041D54008F022314C3
:01003E00229F
:10254E00121A0B75D9DD75D95590715EE054FEF0F7
:10255E0075D9BB12005C1225A47B017A6479331203
:0E256E00257C1200427FF47E0112263F80F48D
:101F170042644300004464380000000041643C0010
:071F270044643D00000000CE
:101AE70078E3E2543FF2E24440F278BC7401F278C2
:101AF700C2E2543FF278F2E254FCF278D2E254FCAC
:101B0700F278C3E2543FF218E24440F278F2E2443A
:101B170001F278D2E24401F278C3E24440F29071D4
:101B2700817412F090719604F090718604F09071B0
:101B37008504F078AA7401F278F9F278D9F278AED0
:101B4700F2907195741AF0907132E04410F075D9E3
:101B57005590715EE04404F075D9BB907132E04452
:101B670010F07807740FF278097401F27C64EC784E
:101B77000DF2187441F2187481F2187401F290642E
:081B870041740FF0A3E4F02209
:01005C002281
:10006000AF1BAE1AAD19AC18906445121716906408
:100070004912172200000000E490644DF0A3F090B4
:100080006445E0FCA3E0FDA3E0FEA3E0FFEC4D4EE1
:100090004F700302064290643CE060030206427F18
:1000A0004BFEFDFCA3E0F8A3E0F9A3E0FAA3E0FB1C
:1000B000C31216CF40030206429064491217220071
:1000C0000000007F207EA17D077C00906449E0F85D
:1000D000A3E0F9A3E0FAA3E0FBC31216CF400302AA
:1000E000016B7F0A7E0012263F1225C8AF1BAE1A95
:1000F000AD19AC18906445E0F8A3E0F9A3E0FAA3C9
:10010000E0FBC31216CF706390643DE0FCA3E0FDFA
:10011000A3E0FEA3E02401FFE43EFEE43DFDE43C59
:10012000FC90643D121716E47F4BFEFDFC90643D8D
:10013000E0F8A3E0F9A3E0FAA3E0FBD31216CF4066
:100140000890643C7401F08022906449E0FCA3E0D4
:10015000FDA3E0FEA3E02401FFE43EFEE43DFDE458
:100160003CFC9064491217160200C3E47F4BFEFD6D
:10017000FC90643DE0F8A3E0F9A3E0FAA3E0FBD330
:100180001216CF400990643C7401F002064290645C
:100190003D12172200000000E4FFFEFD7C01906488
:1001A00045E0F8A3E0F9A3E0FAA3E0FBC31216CF01
:1001B000600302025F90644912172200000000E40D
:1001C0007F64FEFDFC906449E0F8A3E0F9A3E0FA47
:1001D000A3E0FBC31216CF40030206427F017E005C
:1001E00012263F1225C8AF1BAE1AAD19AC18906489
:1001F00045121716E4FFFEFD7C01906445E0F8A36C
:10020000E0F9A3E0FAA3E0FBC31216CF702FE4FFDE
:10021000FEFDFC906445E0F8A3E0F9A3E0FAA3E05A
:10022000FBC31216CF7003020B181225C8AF1BAE0A
:100230001AAD19AC1890644512171680D190644914
:10024000E0FCA3E0FDA3E0FEA3E02401FFE43EFE0A
:10025000E43DFDE43CFC9064491217160201BFE442
:100260007F08FEFDFC906445E0F8A3E0F9A3E0FA06
:10027000A3E0FBC31216CF60030203269064491269
:10028000172200000000E47F64FEFDFC906449E05A
:10029000F8A3E0F9A3E0FAA3E0FBC31216CF4003F2
:1002A0000206427F017E0012263F1225C8AF1BAE18
:1002B0001AAD19AC18906445121716E47F08FEFDBC
:1002C000FC906445E0F8A3E0F9A3E0FAA3E0FBC3E7
:1002D0001216CF702FE4FFFEFDFC906445E0F8A3FA
:1002E000E0F9A3E0FAA3E0FBC31216CF7003020B00
:1002F000181225C8AF1BAE1AAD19AC189064451280
:10030000171680D1906449E0FCA3E0FDA3E0FEA3B2
:10031000E02401FFE43EFEE43DFDE43CFC90644942
:10032000121716020286E47F04FEFDFC906445E08D
:10033000F8A3E0F9A3E0FAA3E0FBC31216CF600331
:100340000203ED90644912172200000000E47F646C
:10035000FEFDFC906449E0F8A3E0F9A3E0FAA3E015
:10036000FBC31216CF40030206427F017E00122615
:100370003F1225C8AF1BAE1AAD19AC1890644512D8
:100380001716E47F04FEFDFC906445E0F8A3E0F955
:10039000A3E0FAA3E0FBC31216CF702FE4FFFEFD2B
:1003A000FC906445E0F8A3E0F9A3E0FAA3E0FBC306
:1003B0001216CF7003020B181225C8AF1BAE1AAD70
:1003C00019AC1890644512171680D1906449E0FC6E
:1003D000A3E0FDA3E0FEA3E02401FFE43EFEE43D34
:1003E000FDE43CFC90644912171602034DE47F01C2
:1003F000FEFDFC906445E0F8A3E0F9A3E0FAA3E079
:10040000FBC31216CF60030204B490644912172292
:1004100000000000E47F64FEFDFC906449E0F8A366
:10042000E0F9A3E0FAA3E0FBC31216CF40030206F3
:10043000427F017E0012263F1225C8AF1BAE1AADC7
:1004400019AC18906445121716E47F01FEFDFC906C
:100450006445E0F8A3E0F9A3E0FAA3E0FBC31216B9
:10046000CF702FE4FFFEFDFC906445E0F8A3E0F9B7
:10047000A3E0FAA3E0FBC31216CF7003020B18121D
:1004800025C8AF1BAE1AAD19AC18906445121716EB
:1004900080D1906449E0FCA3E0FDA3E0FEA3E0244A
:1004A00001FFE43EFEE43DFDE43CFC90644912178C
:1004B00016020414E4FF7E02FDFC906445E0F8A3FC
:1004C000E0F9A3E0FAA3E0FBC31216CF6003020534
:1004D0007B90644912172200000000E47F64FEFD57
:1004E000FC906449E0F8A3E0F9A3E0FAA3E0FBC3C1
:1004F0001216CF40030206427F017E0012263F12F1
:1005000025C8AF1BAE1AAD19AC189064451217166A
:10051000E4FF7E02FDFC906445E0F8A3E0F9A3E06F
:10052000FAA3E0FBC31216CF702FE4FFFEFDFC9090
:100530006445E0F8A3E0F9A3E0FAA3E0FBC31216D8
:10054000CF7003020B181225C8AF1BAE1AAD19AC41
:100550001890644512171680D1906449E0FCA3E01E
:10056000FDA3E0FEA3E02401FFE43EFEE43DFDE444
:100570003CFC9064491217160204DBE4FF7E04FD84
:10058000FC906445E0F8A3E0F9A3E0FAA3E0FBC324
:100590001216CF600302064290644912172200002F
:1005A0000000E47F64FEFDFC906449E0F8A3E0F9FC
:1005B000A3E0FAA3E0FBC31216CF40030206427F7A
:1005C000017E0012263F1225C8AF1BAE1AAD19AC32
:1005D00018906445121716E4FF7E04FDFC906445F4
:1005E000E0F8A3E0F9A3E0FAA3E0FBC31216CF7092
:1005F0002FE4FFFEFDFC906445E0F8A3E0F9A3E0E2
:10060000FAA3E0FBC31216CF7003020B181225C821
:10061000AF1BAE1AAD19AC1890644512171680D1F5
:10062000906449E0FCA3E0FDA3E0FEA3E02401FF09
:10063000E43EFEE43DFDE43CFC90644912171602E2
:1006400005A290643CE064016003020AA8FFFEFD7D
:10065000FC906445E0F8A3E0F9A3E0FAA3E0FBC353
:100660001216CF7003020AA8906445E0FCA3E0FDD7
:10067000A3E0FEA3E0FF906438121716E4FFFEFD2E
:100680007C01906445E0F8A3E0F9A3E0FAA3E0FB65
:10069000C31216CF600302072E7F4BFEFDFC906451
:1006A0003DE0F8A3E0F9A3E0FAA3E0FBC31216CF04
:1006B000400390643DE4FFFEFDFC906445E0F8A338
:1006C000E0F9A3E0FAA3E0FBC31216CF7003020B1C
:1006D000187F0A7E0012263F90643DE0FCA3E0FDF7
:1006E000A3E0FEA3E02401FFE43EFEE43DFDE43C84
:1006F000FC90643D1217161225C8AF1BAE1AAD1937
:10070000AC18906445121716E47F57FEFDFC906408
:100710003DE0F8A3E0F9A3E0FAA3E0FBC31216CF93
:10072000409390643D1217220000004B8087E47FC5
:1007300008FEFDFC906445E0F8A3E0F9A3E0FAA30D
:10074000E0FBC31216CF60030207E07F4BFEFDFC07
:1007500090643DE0F8A3E0F9A3E0FAA3E0FBC31244
:1007600016CF400390643DE4FFFEFDFC906445E03D
:10077000F8A3E0F9A3E0FAA3E0FBC31216CF7003DD
:10078000020B187F0A7E0012263F90643DE0FCA316
:10079000E0FDA3E0FEA3E02401FFE43EFEE43DFD16
:1007A000E43CFC90643D1217161225C8AF1BAE1A2C
:1007B000AD19AC18906445121716E47F57FEFDFC86
:1007C00090643DE0F8A3E0F9A3E0FAA3E0FBC312D4
:1007D00016CF409390643D1217220000004B808793
:1007E000E47F04FEFDFC906445E0F8A3E0F9A3E09B
:1007F000FAA3E0FBC31216CF60030208927F4BFE00
:10080000FDFC90643DE0F8A3E0F9A3E0FAA3E0FB6F
:10081000C31216CF400390643DE4FFFEFDFC9064DC
:1008200045E0F8A3E0F9A3E0FAA3E0FBC31216CF7A
:100830007003020B187F0A7E0012263F90643DE091
:10084000FCA3E0FDA3E0FEA3E02401FFE43EFEE400
:100850003DFDE43CFC90643D1217161225C8AF1B09
:10086000AE1AAD19AC18906445121716E47F57FE06
:10087000FDFC90643DE0F8A3E0F9A3E0FAA3E0FBFF
:10088000C31216CF409390643D1217220000004B14
:100890008087E47F01FEFDFC906445E0F8A3E0F969
:1008A000A3E0FAA3E0FBC31216CF60030209447F62
:1008B0004BFEFDFC90643DE0F8A3E0F9A3E0FAA351
:1008C000E0FBC31216CF400390643DE4FFFEFDFC45
:1008D000906445E0F8A3E0F9A3E0FAA3E0FBC312BB
:1008E00016CF7003020B187F0A7E0012263F906419
:1008F0003DE0FCA3E0FDA3E0FEA3E02401FFE43E15
:10090000FEE43DFDE43CFC90643D1217161225C840
:10091000AF1BAE1AAD19AC18906445121716E47FE0
:1009200057FEFDFC90643DE0F8A3E0F9A3E0FAA3D4
:10093000E0FBC31216CF409390643D1217220000D3
:10094000004B8087E4FF7E02FDFC906445E0F8A345
:10095000E0F9A3E0FAA3E0FBC31216CF600302099B
:10096000F67F4BFEFDFC90643DE0F8A3E0F9A3E0C8
:10097000FAA3E0FBC31216CF400390643DE4FFFEF0
:10098000FDFC906445E0F8A3E0F9A3E0FAA3E0FBE6
:10099000C31216CF7003020B187F0A7E0012263F87
:1009A00090643DE0FCA3E0FDA3E0FEA3E02401FF92
:1009B000E43EFEE43DFDE43CFC90643D121716125B
:1009C00025C8AF1BAE1AAD19AC18906445121716A6
:1009D000E47F57FEFDFC90643DE0F8A3E0F9A3E05E
:1009E000FAA3E0FBC31216CF409390643D12172286
:1009F0000000004B8087E4FF7E04FDFC906445E02E
:100A0000F8A3E0F9A3E0FAA3E0FBC31216CF60035A
:100A1000020B187F4BFEFDFC90643DE0F8A3E0F96B
:100A2000A3E0FAA3E0FBC31216CF400390643DE4B9
:100A3000FFFEFDFC906445E0F8A3E0F9A3E0FAA313
:100A4000E0FBC31216CF7003020B187F0A7E001260
:100A5000263F90643DE0FCA3E0FDA3E0FEA3E0247C
:100A600001FFE43EFEE43DFDE43CFC90643D1217D2
:100A7000161225C8AF1BAE1AAD19AC1890644512FA
:100A80001716E47F57FEFDFC90643DE0F8A3E0F903
:100A9000A3E0FAA3E0FBC31216CF409390643D128B
:100AA00017220000004B808790643CE0B40169E4A9
:100AB000FFFEFDFC906445E0F8A3E0F9A3E0FAA393
:100AC000E0FBC31216CF7050906438E0FCA3E0FD49
:100AD000A3E0FEA3E0FF1217530B01000000010B7F
:100AE00001000000040B01000000080B01000002DF
:100AF000000B01000004000B010100000000000BCE
:100B000001E490643CF0A3121722000000009064FE
:080B100038121722000000005A
:010B180022BA
:10000F0078D2E254FBF2E24404F2907187E4F0D22A
:02001F0091222C
:1025E80078D2E254EFF2E24410F2907188E4F07885
:0D25F800D0E24404F208E24404F2D2922240
:1026050078C2E254FBF2E24404F290717FE4F07880
:0D261500C0E24402F208E24402F2C2812257
:1026220078E3E254EFF2E24410F2907194E4F0782D
:0D263200E0E24440F208E24440F2C2A62279
:101F2E0041645200426453000041644F00416450CA
:051F3E000041645100A8
:1026570078F2E254FBF2E24404F278F0E24402F248
:08266700907197E4F0D2B1225A
:10247200E5B154CF42B1789CE254F3F2E24414F253
:10248200E254FCF2E24401F208E2547FF2E2442018
:10249200F278A07432F2087401F2789EE4F208F243
:0E24A200789CE2541FF2E244A0F253A8BF223D
:0E26FC00789CE2541FF2E244C0F243A8402250
:1026CA00789CE2541FF2E244A0F2789EE4F208F207
:0426DA0053A8BF2220
:0300210002191BA6
:10191B00C0E0C083C082C0D075D000C000C006C07C
:01192B0007B4
:10192C00789DE220E7030219FCE24480F2906452B5
:10193C00E0640160030219FC906450E0FFC3740F73
:10194C009FFF7E007401A807088005C333CE33CEF9
:10195C00D8F9FF906453E05EFEA3E05F4E602190E7
:10196C00644FE014600E14600F1460102403702F89
:10197C00D2B1802BD2B18027D2B18023C2B1801FCB
:10198C0090644FE014600E14600F14601024037008
:10199C000ED2B1800AC2B18006C2B18002C2B1902F
:1019AC00644FE004F0E0C394044009A3E004F09019
:1019BC00644FE4F0906450E0C394104014A3E070C2
:1019CC001004F0906450E014F090644F7403F080B5
:1019DC001F906450E0C394104016A3E0B401119022
:1019EC006450E4F090644FF0906451F0A3F0D2B1E5
:0F19FC00D007D006D000D0D0D082D083D0E03238
:1021C000906453EEF0A3EFF0C2B11226EDE47F016C
:1021D000FEFDFC906456E0F8A3E0F9A3E0FAA3E06A
:1021E000FBC31216CF500575D9AA80E11226B4E4BC
:1021F000906455F0906456121722000000001226D9
:10220000FC9064527401F0906452E070FA1226CA95
:072210007F0A7E0002263F59
:02268700A905A3
:10268900EFC43354E0FCE9541F4CFCECF4FFEFFDBC
:05269900AE040221C0A7
:071F430044645A0000000095
:1023EE00E5B254F342B2907108E054F3F0E04414B5
:1023FE00F0E054FCF0E04401F0A3E0547FF0E04440
:10240E0020F053A9FD90710C7437F0A3743BF0903B
:10241E00710AE4F0A3F0907108E0541FF0E044A0BC
:02242E00F0229A
:0F26DE00907108E0541FF0E044C0F043A90222BD
:10269E00907108E0541FF0E044A0F090710AE4F04D
:0626AE00A3F053A9FD2278
:030027000222179B
:10221700C0E0C0F0C083C082C0D075D000C000C08D
:1022270004C005C006C007907109E030E723E04409
:1022370080F090645AE0FCA3E0FDA3E0FEA3E02455
:1022470001FFE43EFEE43DFDE43CFC90645A1217B6
:1022570016D007D006D005D004D000D0D0D082D079
:0622670083D0F0D0E0324C
:0B1F4A00416455004464560000000094
:10243000E5B254FC42B2907100E054F3F0E0441471
:10244000F0E054FCF0E04401F0A3E0547FF0E044FD
:1024500020F090710474E0F0A3741DF0907102E418
:10246000F0A3F0907100E0541FF0E044A0F053A9F5
:02247000FE224A
:0F26ED00907100E0541FF0E044C0F043A90122B7
:1026B400907100E0541FF0E044A0F0907102E4F047
:0626C400A3F053A9FE2261
:03002400021DEBCF
:101DEB00C0E0C0F0C083C082C0D075D000C000C0BE
:101DFB0001C002C003C004C005C006C0079071013A
:101E0B00E030E74EE04480F0906456E0FCA3E0FD48
:101E1B00A3E0FEA3E02401FFE43EFEE43DFDE43C31
:101E2B00FC906456121716E47FE87E03FDFC906469
:101E3B0056E0F8A3E0F9A3E0FAA3E0FBC31216CF38
:101E4B0070109064561217220000000090645574B5
:101E5B0001F0D007D006D005D004D003D002D001BA
:0D1E6B00D000D0D0D082D083D0F0D0E032B3
:071F550044645E000000007F
:10266F0043A90475D11075E6F075E70575DABC75E9
:08267F00DF20E4F5DED2AF22FA
:0427210075DE01223E
:07271500E4F5DE75D110228E
:03002A000222C1EE
:1022C100C0E0C0F0C083C082C0D075D000C000C0E3
:1022D10004C005C006C007E5EE30E52243E22090C8
:1022E100645EE0FCA3E0FDA3E0FEA3E02401FFE4C3
:1022F1003EFEE43DFDE43CFC90645E121716D007FF
:10230100D006D005D004D000D0D0D082D083D0F078
:03231100D0E032E7
:101F5C0041604801426049000041604B0041604CC7
:0E1F6C000041604D0041604E7F42604FFFFF1C
:1024B000E4F561AE3EAD3DAC3C853F178E168D1503
:1024C0008C14787EE254FCF2E24514F218E515F221
:1024D00018E516F218E517F2787FE254FBF2E254A1
:0D24E000FB4404F2E24401F27F01021E7889
:100E5800906464EFF0E0FF24E8F582E43463F583FE
:100E6800E004F074F42FF582E43463F583E4F0745D
:100E7800E82FF582E43463F583E0C39563500302F9
:100E880010A9906464E0FB24E8F582E43463F583F8
:100E9800E4F0902531936401600302105A7F01FE4B
:100EA800FDFC74FA2BF582E43463F583E0F9F8125B
:100EB80016F3E51F4FF51FE51E4EF51EE51D4DF512
:100EC8001DE51C4CF51CAF1FAE1EAD1DFC780112B4
:100ED80016E0EF5455FBEE5455FAED5455F9EC5421
:100EE80055F8C3E51F9BF53BE51E9AF53AE51D99B4
:100EF800F539E51C98F538AF3BAE3AAD39FC7802C8
:100F08001216E0EF5433FBEE5433FAED5433F9EC98
:100F18005433F8E53B5433FFE53A5433FEE539548E
:100F280033FDE5385433FCEB2FF53BEA3EF53AE95F
:100F38003DF539E83CF538AF3BAE3AAD39FC7804BD
:100F48001216E0EF253BFFEE353AFEED3539FDECA4
:100F58003538FCEF540FF53BEE540FF53AED540FCE
:100F6800F539EC540FF538AF3BAE3AAD39FC78089B
:100F78001216E0EF253BFFEE353AED3539FDEC353D
:100F880038EFF53BE4F53AEDF539E4F538AE3AAC2F
:100F98003878101216E0EF253BFFEE353AFEEFF5F4
:100FA8003BEEF53AE4F539F538906464E025E02441
:100FB80000F582E43464F583E0FEA3E0D39553EEB4
:100FC80095524024906464E0FF25E02400F582E413
:100FD8003464F583E0F552A3E0F55374FA2FF582F3
:100FE800E43463F583E0F564902531E493FFE4FC91
:100FF800FDFEAB3BAA3AA939A838D31216CF405206
:10100800AF650565D3EF9403748094805003021094
:10101800A9E4F565F51FF51EF51DF51C7F01FEFD1C
:10102800FCA964A8011216F38F1B8E1A8D198C184F
:10103800E47F01FEFDFCA8011216F38F338E328D7A
:10104800318C30E4F552F553756420121F7B433719
:101058000222E4F5657F01FEFDFC906464E0FB2458
:10106800FAF582E43463F583E0F9F81216F3E51B28
:101078004FF51BE51A4EF51AE5194DF519E5184C0B
:10108800F518E47F01FEFDFCA8031216F3E5334FC3
:10109800F533E5324EF532E5314DF531E5304CF5B5
:0210A8003022F4
:100B1900E4F566902535E493FFE566C39F4003023B
:100B29000E57E56625E02400F582E4346085828A63
:100B39007F548F8B7E0E8E8C758903758889E56647
:100B490025E02400F582E4346085828A8F8B758CD8
:100B590012758904758889E56625E02418F582E40B
:100B69003460F583E0FCA3E0C3950FEC950E502E9D
:100B7900E56625E0243CF582E43460F583E0FCA3D6
:100B8900E0C39513EC95125015AF600560EF940220
:100B990074809480400BE4F5605337FD8003E4F5DD
:100BA90060E53730E125E56625E02400F582E43487
:100BB90064F583E4F0A3F0E56625E0240CF582E40E
:100BC9003464F583E4F0A3F0020C67E56625E024BC
:100BD90018F582E4346085828A8E8B758C0A758952
:100BE900267588892088FDE5F130E00875F107E46C
:100BF900F50AF50BAE0AE50B7802C333CE33CED82E
:100C0900F9FFE56625E02400F582E43464F583EE16
:100C1900F0A3EFF0E56625E0243CF582E434608535
:100C2900828A758B12758C0A75892775888920883F
:100C3900FDE5F130E00875F107E4F50AF50BAE0AB8
:100C4900E50B7802C333CE33CED8F9FFE56625E04C
:100C5900240CF582E43464F583EEF0A3EFF0E56645
:100C690025E02418F582E43464F583E0FEA3E078F6
:100C790002CEC313CE13D8F9F5518E50E56625E09F
:100C89002400F582E43464F583E0FEA3E0FF9025B7
:100C99002DE493FC740193FDC3EF9DEE9C4017E591
:100CA9006625E0240CF582E43464F583E0FEA3E0D4
:100CB900C39DEE9C50028068E56625E02400F5821C
:100CC900E43464F583E0FEA3E0C39551EE9550400A
:100CD9001CE56625E0240CF582E43464F583E0FE26
:100CE900A3E0C39551EE95504003020D7374EE25B0
:100CF90066F582E43463F583E004F074EE2566F565
:100D090082E43463F583E0FF902532E493FEEFD368
:100D19009E406474EE2566F582E43463F583E4F05D
:100D2900E56625E0240CF582E43460F583E0FEA352
:100D3900E0FFE56625E02418F582E43460F583EEEA
:100D4900F0A3EFF0E56625E02430F582E43460F5A0
:100D590083E0FEA3E0FFE56625E0243CF582E43468
:100D690060F583EEF0A3EFF0800D74EE2566F58251
:100D7900E43463F583E4F0E56625E0240CF582E4C8
:100D8900346085828AE56625E02400F582E43460D2
:100D990085828B758C0A7589207588CB2088FDE53D
:100DA900F130E00875F107E4F50AF50BE56625E091
:100DB900240CF582E4346085828A758B547F0E8F0A
:100DC9008C7589237588897E0A8E8A8F8BE56625BD
:100DD900E0240CF582E4346085828CE4F589758819
:100DE90029E56625E02430F582E4346085828AE5C8
:100DF9006625E02400F582E4346085828B8E8C754B
:100E090089207588CB2088FDE5F130E00875F10768
:100E1900E4F50AF50BE56625E02430F582E4346053
:100E290085828A758B547F0E8F8C75892475888984
:100E3900758A0A8F8BE56625E02430F582E43460F3
:0F0E490085828CE4F5897588290566020B1C22C9
:1012CB00E4F566902535E493FFE566C39F40030282
:1012DB001483E56625E02418F582E43464F583E095
:1012EB00FEA3E07802CEC313CE13D8F9F5518E507E
:1012FB00E56625E02400F582E43464F583E0FEA383
:10130B00E0D39551EE9550402EE56625E0240CF583
:10131B0082E43464F583E0FEA3E0D39551EE95505F
:10132B00401574F42566F582E43463F583E4F0AF7D
:10133B0066120E5802147E902534E493FFC3E551D8
:10134B009FFFE5509400FED3EF9400EE9400400213
:10135B0080047E007F00E56625E02400F582E434FE
:10136B0064F583E0FCA3E0C39FEC9E400302147181
:10137B00902534E493FFC3E5519FFFE5509400FEA5
:10138B00D3EF9400EE9400400280047E007F00E5D2
:10139B006625E0240CF582E43464F583E0FCA3E0DD
:1013AB00C39FEC9E400302147174E82566F582E43A
:1013BB003463F583E4F074F42566F582E43463F565
:1013CB0083E004F074F42566F582E43463F583E07E
:1013DB00C39563500302147E74F42566F582E434DE
:1013EB0063F583E4F07F01FEFDFC74FA2566F5825C
:1013FB00E43463F583E0F9F81216F312169EE51F39
:10140B005FF51FE51E5EF51EE51D5DF51DE51C5C1C
:10141B00F51CE47F01FEFDFCA966A8011216F31270
:10142B00169EE5335FF533E5325EF532E5315DF55A
:10143B0031E5305CF530E47F01FEFDFC74FA256686
:10144B00F582E43463F583E0F9F81216F312169E75
:10145B00E51B5FF51BE51A5EF51AE5195DF519E558
:10146B00185CF518800D74F42566F582E43463F589
:09147B0083E4F005660212CE22A2
:101F7B00E4F566902535E493FFE566C39F506EE567
:101F8B006625E02400F582E43464F583E4F0A3F0E5
:101F9B00E56625E0240CF582E43464F583E4F0A3D4
:101FAB00F0E56625E0240CF582E43460F583E0FE71
:101FBB00A3E0FFE56625E02418F582E43460F583A1
:101FCB00EEF0A3EFF0E56625E02430F582E4346013
:101FDB00F583E0FEA3E0FFE56625E0243CF582E413
:0E1FEB003460F583EEF0A3EFF00566808622E9
:101D5800E4F566902535E493FFE566C39F506790E8
:101D68006048E0FF7E00C39410748094805053EF65
:101D78009408748094804025E56625E02400F58267
:101D8800E43460F583E0FEA3E0FFE56625E0240C7B
:101D9800F582E43460F583EE8FF0121688E5662547
:101DA800E02400F582E43460F583E0FEA3E0FFE57B
:101DB8006625E02430F582E43460F583EE8FF01276
:101DC80016880566808D906048E0C39410748094EE
:101DD8008040054337048006906048E004F07F01A6
:031DE800021E7860
:101FF900E4FFFEFDFCAB1BAA1AA919A818C3121607
:10200900CF606390604AE004F07006906049E00494
:10201900F0902529E493FE740193FF4E602ED3902E
:10202900604AE09F906049E09E4021E4F0A3F0F50A
:102039001FF51EF51DF51CF533F532F531F530F5B3
:102049001BF51AF519F518C201021F7B90252BE41F
:1020590093FE740193FFD390604AE09F906049E03A
:0D2069009E400AD20122E4906049F0A3F0ED
:012076002247
:0514840090602BEFF069
:10148900A3E0FCA3E0FDA3E0FEA3E0F5288E278DF1
:10149900268C257884E2F50A08E2F50B758A087529
:1014A9008B25758C2175881D2088FDE4FFFEFDFCC8
:1014B900AB24AA23A922A821D31216B94006AC212C
:1014C900A8048013AF24AE23AD22AC211216ABAB16
:1014D90007AA06A905A80490604FE0FEA3E0FFE46F
:1014E900FCFDC31216B95041E4FFFEFDFCAB24AA72
:1014F90023A922A8211216B94006AF24AE23800BD6
:10150900AF24AE23AD22AC211216AB90604FEEF0A2
:10151900A3EFF090602BE025E024DCF582E434634E
:10152900F583E0A3E090604EF0902526E493FE74E5
:101539000193FFD3906050E09F90604FE09E501B55
:1015490090602BE025E024DCF582E43463F583E048
:10155900A3E090604EF090604B8079E4FFFEFDFCC3
:10156900AB24AA23A922A821D31216B9403490602A
:101579002BE0FF25E024DCF582E43463F583E0FC0D
:10158900A3E0D39400EC9400404DEF25E024DCF572
:1015990082E43463F58374FFF5F012168890604C89
:1015A900803290602BE0FF25E024DCF582E434638F
:1015B900F583E0FCA3E0C3947FEC94005019EF2578
:1015C900E024DCF582E43463F583E475F001121656
:1015D9008890604D7401F090604CE064017011A333
:1015E900E06401700B90604CF0A3F090604B04F044
:1015F90090604BE06401703590604EE0FF90602B85
:10160900E025E024DCF582E43463F583E4F0A3EF1C
:10161900F074FF90604FF0A3F090604E747FF0E497
:0F16290090604CF0A3F090604BF07F01227F00A7
:01163800228F
:10215E00E490602AF090252012170678011216F3EB
:10216E0090602C121716AF61121484EF6022056175
:10217E00E53730E4095337EF90602A7401F090256B
:10218E0035E493FFE561C39F4006E4F561433710E4
:10219E00C39025247401939562E4939400400890B3
:1021AE00602AE064017005D2000224B0E4FF121E22
:0121BE0078A8
:0121BF0022FD
:101E7800EF70607F01FEFDFC74FA2561F582E434A1
:101E880063F583E0F9F81216F38F178E168D158C0B
:101E980014787EE254FCF2E24514F218E515F218C3
:101EA800E516F218E517F2E56125E024DCF582E491
:101EB8003463F583E0A3E0547FFF7878E254804FE1
:101EC800F2787FE254FBF2E254FB4404F2E244016C
:101ED800F2801CE56125E024DCF582E43463F583B7
:101EE800E0A3E0547FFF7878E254804FF2787FE2F5
:041EF8004402F2228C
:101B8F00E4906462F0A3F0906462E0FEA3E0FFC310
:101B9F009488EE94035031EF2419FFEE340B8F82AB
:101BAF00F583E493FF906463E02451FD906462E059
:101BBF0034608D82F583EFF0906463E004F070C7BA
:081BCF00906462E004F080BFA5
:101BD7009063D97401F0A37460F0A37451F0E4F535
:101BE70061F537F536F535F534C200C201F51FF555
:101BF7001EF51DF51CF533F532F531F530F51BF5FE
:101C07001AF519F51890252F93FF902533E493FEC5
:101C1700A807088002C333D8FCF563756420E4FF86
:031C2700021E7822
:102077007884E2F50A08E2F50BAE0A7803CEC313BB
:10208700CE13D8F97802C333CE33CED8F9FFE56142
:1020970025E02400F582E43460F583EEF0A3EFF049
:1020A70020000F902528E4937005D2000224B00287
:1020B700215E0561902535E493FFE561C39F401FCD
:1020C700787FE254FBF2E254FB4404F2E24401F26B
:1020D700E4F561E53720E203021D58433701227F0B
:0520E70001121E782229
:05271C000562021FF937
:1025C800E53730E01A9063D9A3E0FAA3E0F91217CF
:1025D8008D1212CBE4F5617F01121E785337FE226B
:101C440002254EE493A3F8E493A34003F68001F243
:101C540008DFF48029E493A3F85407240CC8C333A1
:101C6400C4540F4420C8834004F456800146F6DF70
:101C7400E4800B0102040810204080901EFCE47EE6
:101C8400019360BCA3FF543F30E509541FFEE49365
:101C9400A360010ECF54C025E060A840B8E493A32C
:101CA400FAE493A3F8E493A3C8C582C8CAC583CA57
:101CB400F0A3C8C582C8CAC583CADFE9DEE780BE0F
:011F7A000066
:10163900BB010CE58229F582E5833AF583E0225066
:1016490006E92582F8E622BBFE06E92582F8E222B0
:0D165900E58229F582E5833AF583E49322CA
:10166600F8BB010DE58229F582E5833AF583E8F0BA
:10167600225006E92582C8F622BBFE05E92582C866
:02168600F2224E
:10168800C5F0F8A3E028F0C5F0F8E58215827002ED
:061698001583E038F0228A
:0D169E00CFF4CFCEF4CECDF4CDCCF4CC22E1
:0E16AB00C3E49FFFE49EFEE49DFDE49CFC2250
:1016B900EB9FF5F0EA9E42F0E99D42F0EC6480C8A8
:0616C90064809845F02248
:1016CF00EB9FF5F0EA9E42F0E99D42F0E89C45F071
:0116DF0022E8
:1016E000E8600FECC313FCED13FDEE13FEEF13FFE8
:0316F000D8F1220C
:1016F300E8600FEFC333FFEE33FEED33FDEC33FC55
:03170300D8F122F8
:10170600E493FC740193FD740293FE740393FF2229
:0C171600ECF0A3EDF0A3EEF0A3EFF02246
:10172200A8828583F0D083D082121739121739121A
:101732001739121739E473E493A3C583C5F0C5833F
:10174200C8C582C8F0A3C583C5F0C583C8C582C811
:011752002274
:10175300D083D082E4937012740193700DA3A3938A
:10176300F8740193F5828883E4737402936C7012A6
:101773007403936D700C7404936E70067405936F09
:0A17830060DDA3A3A3A3A3A380CA03
:06178D008A838982E473E7
:10179300EF4E6012EF60010EEDBB010B89828A836D
:1017A300F0A3DFFCDEFA2289F05007F709DFFCA97A
:0C17B300F022BBFEFCF309DFFCA9F022D1
:00000001FF
