:03000000021B934D
:101B9300787FE4F6D8FD9060007F007E07E4F0A331
:0A1BA300DFFCDEFA758166021BE824
:0C000300000000000000000000000000F1
:0B004200EF1FAC0670011E4C70F62290
:10255F0090642B120FB590642B74FF120F82EC4D09
:0E256F004E4F60097F4C7E0412004280E9222C
:101A1700907120E04480F07F057E001200427F0035
:101A27007E007D007C0012255F75A75575AC5C9024
:101A370071327450F09071307403F0907136742FD6
:101A4700F090715C7403F090715BE054FCF07F18C8
:101A5700EF2466FDE434718D82F583E4F00FEFB473
:101A670033EE904011E4935407FF90711CE054F853
:101A77004FF0904017E493547FFF90711DE054801E
:101A87004FF0904010E493FF5401C4333333548034
:101A9700FE907123E0547F4EF0EFC313543F444050
:101AA700FFA3E054804FF0904012E493FF540FFEE1
:101AB700907146E054F04EF0EFC4540FFF90714F11
:101AC700E054F04FF0904013E493543FFF9071407F
:101AD700E054C04FF0904014E493907126F090408A
:101AE70015E493907128F0904016E49390712AF0D2
:011AF70022CC
:101FDD0043640C000000C10252640FE78175B59394
:0D1FED00B6F685F7B766F156D362C757E325
:1024F70078D3E254C3F2E24428F278D0E24460F29F
:1025070078DAE24460F2907168E04460F075CC02DA
:0425170043CC80220F
:10223D00E4FEED6401701E43CC50E5CF30E2FB535C
:10224D00CCBFE5CF54F86408600BE5CF54F86410AB
:10225D0060037F00228FCDE5CF30E2FBE5CF54F850
:10226D0064186010E5CF54F864286008E5CF54F881
:10227D00FFBF40047E018002E4FEEDB4020343CCB7
:03228D0030AF0669
:01229000222B
:1025EA00AB07AA06EAFF7D0112223DAF030D0222C4
:0125FA003DA3
:10251B007F017E481225EA90640CE0FF746AFE127C
:10252B0025EAA3E0FF746CFE1225EAA3E0FF746EAC
:04253B00FE0225EA8D
:1023AB00AE07EDB4FF0790640CE05408F0EEB4FFF9
:1023BB000790640EE05408F0EDF4600F740F2DF5E8
:1023CB0082E43464F583E090640CF0EEF4600F74F7
:0F23DB000F2EF582E43464F583E090640EF02257
:10242800EF700890640EE054F7800AEFB4010F9043
:10243800640EE04408F090640CE054F7F022EFB426
:10244800020890640EE054F7800AEFB4030E90641B
:0D2458000EE04408F090640CE04408F0220F
:101D5400AE07E490640DF0EE30E006E04404F08059
:101D64000BEE20E00790640DE054FBF0EEC313FD8E
:101D740030E00990640DE04402F0800BED20E007B0
:101D840090640DE054FDF0EE1313543FFD30E00970
:101D940090640DE04480F0800BED20E00790640D2A
:101DA400E0547FF0EE131313541FFF30E0099064E6
:101DB4000DE04440F0800BEF20E00790640DE05408
:101DC400BFF0EEC4540FFF30E00890640DE04420EF
:0E1DD400F022EF20E00790640DE054DFF022D3
:10218D00906421E0FFF46006EFD39411501D90642C
:10219D0022E0FFF46006EFD39411500F906423E01A
:1021AD00D394035006A3E0941F40117E007F037D5E
:1021BD00007B017A64790C121032801B906421E04F
:1021CD00FFA3E0FD1223AB906423E0FF12242890BF
:0B21DD006424E0FF121D5412251B2299
:080051008FD7E5D430E4FB2257
:1000240078C2E254CFF2E24410F29071807404F08A
:0A00340075D60175D59F75D2102214
:0B1FFA004160220044601EFFFFFFFF5B
:10257D0078D2E254CFF2907176E0440BF043AA404A
:0C258D00D2AF75F60175F59F75F21122B2
:101F6200906022E064067025FE7F047DFF7B017A8B
:101F720060791E1210327E007F037D007B017A643D
:101F8200790C12103212251BE4906022F0E47F0AD1
:101F9200FEFDFC906441E0F8A3E0F9A3E0FAA3E0BF
:101FA200FBC3120F3940337E007F047DFF7B017A31
:101FB20060791E1210327E007F037D007B017A64FD
:101FC200790C12103212251BE4906022F01225B017
:0B1FD200906441120FC10000000022CB
:03004E0002183F56
:10183F00C0E0C0F0C083C082C0D075D000C000C06F
:0D184F0001C002C003C004C005C006C007F0
:10185C0090642FE4F0E5F420E503021911E5F7F0AC
:10186C00906441120FC1000000001225FB90602211
:10187C00E0701090642FE0B4A5099060227401F020
:10188C00021911906022E0B4011090642FE0906076
:10189C001EF09060227402F0806B906022E0B40223
:1018AC001090642FE090601FF09060227403F08021
:1018BC0054906022E0B4031090642FE0906020F00C
:1018CC009060227404F0803D906022E0B4040E908D
:1018DC00642FE0906021F0A37405F08028906022C2
:1018EC00E0B4050E90642FE0B45A079060227407A0
:1018FC0080059060227406F01225B0906441120F9E
:05190C00C10000000015
:10191100D007D006D005D004D003D002D001D0002A
:0B192100D0D0D082D083D0F0D0E032D4
:0720050044644100000000EB
:10236B00E5B154F342B153A8DFD2AF7892E4F2084F
:10237B00F27890E254F3F2E2441CF2E254FCF2E203
:10238B004401F208E2547FF2E24420F278957401A2
:10239B00F2187476F27890E2541FF2E244A0F22223
:1025FB007890E2541FF2E244C0F243A820D2AF22FB
:1025B0007890E2541FF2E244A0F27892E4F208F23A
:0425C00053A8DF221B
:03001E000221E8D4
:1021E800C0E0C0F0C083C082C0D075D000C000C0BD
:1021F80004C005C006C0077891E230E723E24480B6
:10220800F2906441E0FCA3E0FDA3E0FEA3E024011A
:10221800FFE43EFEE43DFDE43CFC906441120FB552
:10222800D007D006D005D004D000D0D0D082D0833B
:05223800D0F0D0E032FF
:1024CD00000009C4006400C80101F4004B000A00BB
:1024DD0000010F040505000F003200110032001736
:0A24ED00003200180032001901F45B
:1012B000E4FF74E92FF582E43463F583E0C3940816
:1012C000400302136174E92FF582E43463F583E08F
:1012D000C39404504478C2C000E2FE74E92FF58242
:1012E000E43463F583E025E0FDF87403088002C36D
:1012F00033D8FCF45ED000F278C2C000E2FE74E99C
:101300002FF582E43463F583E025E0FDF8740308EB
:101310008002C333D8FC0214C378C3C000E2FE7459
:10132000E92FF582E43463F583E024FC25E0FDF841
:101330007403088002C333D8FCF45ED000F278C393
:10134000C000E2FE74E92FF582E43463F583E02403
:10135000FC25E0FDF87403088002C333D8FC0214B6
:10136000C374E92FF582E43463F583E0C394085035
:101370000302142774E92FF582E43463F583E0C394
:101380009410400302142774E92FF582E43463F5C6
:1013900083E0C3940C504878D2C000E2FE74E92F79
:1013A000F582E43463F583E024F825E0FDF8740366
:1013B000088002C333D8FCF45ED000F278D2C000BB
:1013C000E2FE74E92FF582E43463F583E024F82526
:1013D000E0FDF87403088002C333D8FC0214C3781C
:1013E000D3C000E2FE74E92FF582E43463F583E0B4
:1013F00024F425E0FDF87403088002C333D8FCF41C
:101400005ED000F278D3C000E2FE74E92FF582E4EA
:101410003463F583E024F425E0FDF87403088002CA
:10142000C333D8FC0214C374E92FF582E43463F5A6
:1014300083E0C39414504778E2C000E2FE74E92FC1
:10144000F582E43463F583E024F025E0FDF87403CD
:10145000088002C333D8FCF45ED000F278E2C0000A
:10146000E2FE74E92FF582E43463F583E024F0258D
:10147000E0FDF87403088002C333D8FC804578E3AC
:10148000C000E2FE74E92FF582E43463F583E024C2
:10149000EC25E0FDF87403088002C333D8FCF45E49
:1014A000D000F278E3C000E2FE74E92FF582E43464
:1014B00063F583E024EC25E0FDF87403088002C3A3
:1014C00033D8FC4ED000F20FEF640560030212B275
:0114D00022F9
:03005D0002232655
:10232600C0E0C0F0C083C082C0D075D000C000C07D
:1023360001C002C003C004C005C006C0077881E220
:1023460030E607E24440F2122055D007D006D00509
:10235600D004D003D002D001D000D0D0D082D08318
:05236600D0F0D0E032D0
:10229100D2AF43AB0843B6C0907132E04440F04343
:1022A100AB087877743FF208744BF2787A7430F2A5
:1022B100788914F27871744FF2187427F278727475
:1022C100A8F2087410F208E4F208F208F2787E74B9
:0F22D100D0F2087404F208741EF2087402F222AC
:03003F000222E0BA
:1022E000C0E0C0F0C083C082C0D075D000C000C0C4
:1022F00001C002C003C004C005C006C007907153EE
:10230000E030E707E04480F012260BD007D006D07B
:1023100005D004D003D002D001D000D0D0D082D0DC
:0623200083D0F0D0E03292
:101C2D00E4FBEB25E025E024E3F582E43424F583A1
:101C3D00740193FF74E92BF582E43463F583EFF0BF
:101C4D00EB25E025E024E5F582E43424F583E493E7
:101C5D00FE740193FFEB25E02402F582E43464F574
:101C6D0083EEF0A3EFF0EB25E024D0F582E43463AE
:101C7D00F583E4F0A3744BF0E47F01FEFDFC74E901
:101C8D002BF582E43463F583E0F9F8120F5DE53F3F
:101C9D004FF53FE53E4EF53EE53D4DF53DE53C4C02
:101CAD00F53C0BEB64056003021C2F1212B0121AE7
:041CBD00F802229176
:10212C00121A1775D9DD75D95590715EE054FEF011
:10213C0075D9BB1225D81223EA1224F7121C2D12C2
:10214C00236B12257D12253F120060121F629060D6
:10215C0022E0B407F078217C647D017B017A607900
:10216C001E7E007F04120ECC12218D7E007F047D1A
:10217C00FF7B017A60791E121032E4906022F080AD
:01218C00C48E
:10200C0042643F00004464360000000041643A0022
:07201C0044643B00000000DA
:10006000AF1BAE1AAD19AC18906421120FB5906495
:1000700025120FC100000000E4906429F0A3F09065
:100080006421E0FCA3E0FDA3E0FEA3E0FFEC4D4E05
:100090004F70030205BA90643AE060030205BA7F2C
:1000A0004BFEFDFCA3E0F8A3E0F9A3E0FAA3E0FB1C
:1000B000C3120F3940030205BA906425120FC10024
:1000C0000000007F207EA17D077C00906425E0F881
:1000D000A3E0F9A3E0FAA3E0FBC3120F3940030247
:1000E000016F7F0A7E007D007C0012255F12253F94
:1000F000AF1BAE1AAD19AC18906421E0F8A3E0F97B
:10010000A3E0FAA3E0FBC3120F39706390643BE0F5
:10011000FCA3E0FDA3E0FEA3E02401FFE43EFEE437
:100120003DFDE43CFC90643B120FB5E47F4BFEFDCB
:10013000FC90643BE0F8A3E0F9A3E0FAA3E0FBD372
:10014000120F39400890643A7401F08022906425BF
:10015000E0FCA3E0FDA3E0FEA3E02401FFE43EFEFB
:10016000E43DFDE43CFC906425120FB50200C3E4BD
:100170007F4BFEFDFC90643BE0F8A3E0F9A3E0FABE
:10018000A3E0FBD3120F39400990643A7401F002E6
:1001900005BA90643B120FC100000000E4FFFEFDB1
:1001A0007C01906421E0F8A3E0F9A3E0FAA3E0FB6E
:1001B000C3120F39600302026E906425120FC10052
:1001C000000000E47F64FEFDFC906425E0F8A3E0FD
:1001D000F9A3E0FAA3E0FBC3120F3940030202695E
:1001E0007F017E007D007C0012255F12253FAF1B42
:1001F000AE1AAD19AC18906421120FB5E4FFFEFDE4
:100200007C01906421E0F8A3E0F9A3E0FAA3E0FB0D
:10021000C3120F397031E4FFFEFDFC906421E0F859
:10022000A3E0F9A3E0FAA3E0FBC3120F39601312B5
:10023000253FAF1BAE1AAD19AC18906421120FB553
:1002400080D47D0102058C906425E0FCA3E0FDA331
:10025000E0FEA3E02401FFE43EFEE43DFDE43CFCBF
:10026000906425120FB50201C37D010205B5E4FFBC
:10027000FEFD7C02906421E0F8A3E0F9A3E0FAA37C
:10028000E0FBC3120F396003020340906425120F94
:10029000C100000000E47F64FEFDFC906425E0F8EE
:1002A000A3E0F9A3E0FAA3E0FBC3120F3940030275
:1002B000033B7F017E007D007C0012255F12253FFD
:1002C000AF1BAE1AAD19AC18906421120FB5E4FF44
:1002D000FEFD7C02906421E0F8A3E0F9A3E0FAA31C
:1002E000E0FBC3120F397031E4FFFEFDFC90642186
:1002F000E0F8A3E0F9A3E0FAA3E0FBC3120F396032
:100300001312253FAF1BAE1AAD19AC189064211221
:100310000FB580D47D0202058C906425E0FCA3E03B
:10032000FDA3E0FEA3E02401FFE43EFEE43DFDE486
:100330003CFC906425120FB50202957D020205B5C2
:10034000E4FFFE7D80FC906421E0F8A3E0F9A3E0E7
:10035000FAA3E0FBC3120F39600302041290642574
:10036000120FC100000000E47F64FEFDFC906425D4
:10037000E0F8A3E0F9A3E0FAA3E0FBC3120F3940D1
:100380000302040D7F017E007D007C0012255F12B8
:10039000253FAF1BAE1AAD19AC18906421120FB5F2
:1003A000E4FFFE7D80FC906421E0F8A3E0F9A3E087
:1003B000FAA3E0FBC3120F397031E4FFFEFDFC909D
:1003C0006421E0F8A3E0F9A3E0FAA3E0FBC3120F75
:1003D00039601312253FAF1BAE1AAD19AC189064EB
:1003E00021120FB580D47D0302058C906425E0FCBA
:1003F000A3E0FDA3E0FEA3E02401FFE43EFEE43D14
:10040000FDE43CFC906425120FB50203677D0302F6
:1004100005B5E4FFFE7D02FC906421E0F8A3E0F95D
:10042000A3E0FAA3E0FBC3120F3960030204E490D7
:100430006425120FC100000000E47F64FEFDFC9003
:100440006425E0F8A3E0F9A3E0FAA3E0FBC3120FF0
:100450003940030204DF7F017E007D007C0012250D
:100460005F12253FAF1BAE1AAD19AC189064211274
:100470000FB5E4FFFE7D02FC906421E0F8A3E0F9F3
:10048000A3E0FAA3E0FBC3120F397031E4FFFEFDD5
:10049000FC906421E0F8A3E0F9A3E0FAA3E0FBC339
:1004A000120F39601312253FAF1BAE1AAD19AC18ED
:1004B000906421120FB580D47D0402058C906425D0
:1004C000E0FCA3E0FDA3E0FEA3E02401FFE43EFE88
:1004D000E43DFDE43CFC906425120FB50204397D37
:1004E000040205B5E4FF7E80FDFC906421E0F8A3E2
:1004F000E0F9A3E0FAA3E0FBC3120F3960030205A1
:10050000BA906425120FC100000000E47F64FEFD74
:10051000FC906425E0F8A3E0F9A3E0FAA3E0FBC3B4
:10052000120F3940030205B37F017E007D007C007D
:1005300012255F12253FAF1BAE1AAD19AC1890649F
:1005400021120FB5E4FF7E80FDFC906421E0F8A34A
:10055000E0F9A3E0FAA3E0FBC3120F397033E4FF24
:10056000FEFDFC906421E0F8A3E0F9A3E0FAA3E02B
:10057000FBC3120F39601312253FAF1BAE1AAD1922
:10058000AC18906421120FB580D47D057F0402253C
:1005900099906425E0FCA3E0FDA3E0FEA3E0240124
:1005A000FFE43EFEE43DFDE43CFC906425120FB503
:1005B00002050B7D05E4FF12259990643AE0640181
:1005C0006003020A3BFFFEFDFC906421E0F8A3E01B
:1005D000F9A3E0FAA3E0FBC3120F397003020A3B50
:1005E000906421E0FCA3E0FDA3E0FEA3E0FF9064A3
:1005F00036120FB5E4FFFEFD7C01906421E0F8A304
:10060000E0F9A3E0FAA3E0FBC3120F39600302068E
:10061000CF7F4BFEFDFC90643BE0F8A3E0F9A3E044
:10062000FAA3E0FBC3120F394020E47F5AFEFDFC21
:1006300090643BE0F8A3E0F9A3E0FAA3E0FB120F1B
:100640003950077D017F010206C9E4FFFEFDFC90E1
:100650006421E0F8A3E0F9A3E0FAA3E0FBC3120FE2
:10066000397003020ABC7F0A7E007D007C001225DF
:100670005F90643BE0FCA3E0FDA3E0FEA3E0240167
:10068000FFE43EFEE43DFDE43CFC90643B120FB50C
:1006900012253FAF1BAE1AAD19AC18906421120F92
:1006A000B5E47F57FEFDFC90643BE0F8A3E0F9A3BE
:1006B000E0FAA3E0FBC3120F39408F90643B120FA6
:1006C000C10000004B7D017F0212259902064AE419
:1006D000FFFEFD7C02906421E0F8A3E0F9A3E0FABC
:1006E000A3E0FBC3120F3960030207AA7F4BFEFD94
:1006F000FC90643BE0F8A3E0F9A3E0FAA3E0FBC3BD
:10070000120F394020E47F5AFEFDFC90643BE0F874
:10071000A3E0F9A3E0FAA3E0FB120F3950077D0232
:100720007F010207A4E4FFFEFDFC906421E0F8A332
:10073000E0F9A3E0FAA3E0FBC3120F397003020A49
:10074000BC7F0A7E007D007C0012255F90643BE048
:10075000FCA3E0FDA3E0FEA3E02401FFE43EFEE4F1
:100760003DFDE43CFC90643B120FB512253FAF1BEE
:10077000AE1AAD19AC18906421120FB5E47F57FE84
:10078000FDFC90643BE0F8A3E0F9A3E0FAA3E0FBF2
:10079000C3120F39408F90643B120FC10000004B11
:1007A0007D027F02122599020725E4FFFE7D80FC71
:1007B000906421E0F8A3E0F9A3E0FAA3E0FBC31200
:1007C0000F3960030208857F4BFEFDFC90643BE01F
:1007D000F8A3E0F9A3E0FAA3E0FBC3120F3940202D
:1007E000E47F5AFEFDFC90643BE0F8A3E0F9A3E04F
:1007F000FAA3E0FB120F3950077D037F0102087F47
:10080000E4FFFEFDFC906421E0F8A3E0F9A3E0FA28
:10081000A3E0FBC3120F397003020ABC7F0A7E00FB
:100820007D007C0012255F90643BE0FCA3E0FDA30B
:10083000E0FEA3E02401FFE43EFEE43DFDE43CFCD9
:1008400090643B120FB512253FAF1BAE1AAD19AC29
:1008500018906421120FB5E47F57FEFDFC90643BB5
:10086000E0F8A3E0F9A3E0FAA3E0FBC3120F3940DC
:100870008F90643B120FC10000004B7D037F02127A
:100880002599020800E4FFFE7D02FC906421E0F857
:10089000A3E0F9A3E0FAA3E0FBC3120F396003025F
:1008A00009607F4BFEFDFC90643BE0F8A3E0F9A3F8
:1008B000E0FAA3E0FBC3120F394020E47F5AFEFDAB
:1008C000FC90643BE0F8A3E0F9A3E0FAA3E0FB129C
:1008D0000F3950077D047F0102095AE4FFFEFDFC39
:1008E000906421E0F8A3E0F9A3E0FAA3E0FBC312CF
:1008F0000F397003020ABC7F0A7E007D007C001263
:10090000255F90643BE0FCA3E0FDA3E0FEA3E024B0
:1009100001FFE43EFEE43DFDE43CFC90643B120F2D
:10092000B512253FAF1BAE1AAD19AC189064211259
:100930000FB5E47F57FEFDFC90643BE0F8A3E0F9BF
:10094000A3E0FAA3E0FBC3120F39408F90643B127F
:100950000FC10000004B7D047F021225990208DBC5
:10096000E4FF7E80FDFC906421E0F8A3E0F9A3E0C1
:10097000FAA3E0FBC3120F396003020ABC7F4BFEEF
:10098000FDFC90643BE0F8A3E0F9A3E0FAA3E0FBF0
:10099000C3120F394020E47F5AFEFDFC90643BE017
:1009A000F8A3E0F9A3E0FAA3E0FB120F3950077DAA
:1009B000057F01020A35E4FFFEFDFC906421E0F8AA
:1009C000A3E0F9A3E0FAA3E0FBC3120F397003021E
:1009D0000ABC7F0A7E007D007C0012255F90643B8C
:1009E000E0FCA3E0FDA3E0FEA3E02401FFE43EFE63
:1009F000E43DFDE43CFC90643B120FB512253FAF93
:100A00001BAE1AAD19AC18906421120FB5E47F57D4
:100A1000FEFDFC90643BE0F8A3E0F9A3E0FAA3E05C
:100A2000FBC3120F39408F90643B120FC1000000CE
:100A30004B7D057F021225990209B690643AE06465
:100A4000017079FFFEFDFC906421E0F8A3E0F9A3BA
:100A5000E0FAA3E0FBC3120F397061906436E0FC4A
:100A6000A3E0FDA3E0FEA3E0FF120FF20A9E000048
:100A700080000A9A000200000A96008000000A8E98
:100A8000010000000A920200000000000AA57D019A
:100A9000800E7D02800A7D0380067D0480027D0534
:100AA0007F03122599E490643AF0A3120FC100006D
:0C0AB0000000906436120FC1000000002E
:010ABC002217
:10202300C103426026000041602300416024004157
:0320330060250025
:1025D80078D2E254F3F2E24404F2907187E4F0D244
:0225E80091223E
:1023EA00E5B154CF42B1789CE254F3F2E24414F2DC
:1023FA00E254FCF2E24401F208E2547FF2E24420A1
:10240A00F278A07432F2087401F2789EE4F208F2CB
:0E241A00789CE2541FF2E244A0F253A8BF22C5
:0E000F00789CE2541FF2E244C0F243A8402263
:1025C400789CE2541FF2E244A0F2789EE4F208F20E
:0425D40053A8BF2227
:0300210002192C95
:10192C00C0E0C083C082C0D075D000C000C006C06B
:01193C0007A3
:10193D00789DE220E703021A08E24480F2200303B7
:10194D00021A08906024E0FFC3740F9FFF7E00749D
:10195D0001A807088005C333CE33CED8F9FF9060B8
:10196D0026E05EFEA3E05F4E6021906023E01460F0
:10197D000E14600F1460102403702FD291802BD29F
:10198D00918027D2918023C291801F906023E01413
:10199D00600E14600F1460102403700ED291800A33
:1019AD00C2918006C2918002C291906023E004F042
:1019BD00E0C394044009A3E004F0906023E4F090A8
:1019CD006024E0C394104014A3E0701004F0906004
:1019DD0024E014F09060237403F0801F906024E0E5
:1019ED00C394104016A3E0B40111906024E4F0906C
:0B19FD006023F0906025F0C203D2913F
:0F1A0800D007D006D000D0D0D082D083D0E0322B
:1024A200906026EEF0A3EFF0C2917F057E007D00E2
:1024B2007C0012255F12000FD2032003FD1225C4F7
:0B24C2007F0A7E007D007C0002255F89
:02259900A90592
:10259B00EFC43354E0FCE9541F4CFCECF4FFEFFDAB
:0525AB00AE040224A2B1
:1020360041603C0142603D000041603F004160401C
:0E20460000416041004160427F426043FFFF65
:10246500E4F561AE3EAD3DAC3C853F178E168D154E
:102475008C14787EE254FCF2E24514F218E515F26C
:1024850018E516F218E517F2787FE254FBF2E254EC
:0D249500FB4404F2E24401F27F01021DE26B
:10105E0090642BEFF0E0FF24DAF582E43463F5833D
:10106E00E004F074E42FF582E43463F583E4F07465
:10107E00DA2FF582E43463F583E0C39563500302FF
:10108E0012AF90642BE0FB24DAF582E43463F5832F
:10109E00E4F09024DE93640160030212607F01FE8F
:1010AE00FDFC74E92BF582E43463F583E0F9F81264
:1010BE000F5DE51F4FF51FE51E4EF51EE51D4DF5A7
:1010CE001DE51C4CF51CAF1FAE1EAD1DFC780112AC
:1010DE000F4AEF5455FBEE5455FAED5455F9EC54B6
:1010EE0055F8C3E51F9BF53BE51E9AF53AE51D99AC
:1010FE00F539E51C98F538AF3BAE3AAD39FC7802C0
:10110E00120F4AEF5433FBEE5433FAED5433F9EC2D
:10111E005433F8E53B5433FFE53A5433FEE5395486
:10112E0033FDE5385433FCEB2FF53BEA3EF53AE957
:10113E003DF539E83CF538AF3BAE3AAD39FC7804B5
:10114E00120F4AEF253BFFEE353AFEED3539FDEC39
:10115E003538FCEF540FF53BEE540FF53AED540FC6
:10116E00F539EC540FF538AF3BAE3AAD39FC780893
:10117E00120F4AEF253BFFEE353AED3539FDEC35D2
:10118E0038EFF53BE4F53AEDF539E4F538AE3AAC27
:10119E00387810120F4AEF253BFFEE353AFEEFF589
:1011AE003BEEF53AE4F539F53890642BE025E02472
:1011BE00EEF582E43463F583E0FEA3E0D39553EEBF
:1011CE009552402490642BE0FF25E024EEF582E456
:1011DE003463F583E0F552A3E0F55374E92FF582FD
:1011EE00E43463F583E0F5649024DEE493FFE4FCDD
:1011FE00FDFEAB3BAA3AA939A838D3120F3940529B
:10120E00AF650565D3EF940374809480500302128A
:10121E00AFE4F565F51FF51EF51DF51C7F01FEFD0E
:10122E00FCA964A801120F5D8F1B8E1A8D198C18E4
:10123E00E47F01FEFDFCA801120F5D8F338E328D0F
:10124E00318C30E4F552F553756420121E66433727
:10125E000222E4F5657F01FEFDFC90642BE0FB2489
:10126E00E9F582E43463F583E0F9F8120F5DE51BCE
:10127E004FF51BE51A4EF51AE5194DF519E5184C03
:10128E00F518E47F01FEFDFCA803120F5DE5334F58
:10129E00F533E5324EF532E5314DF531E5304CF5AD
:0212AE003022EC
:100ABD00E4F5669024E2E493FFE566C39F400302EC
:100ACD000DFBE56625E02400F582E4346085828A1D
:100ADD007F548F8B7E0E8E8C758903758889E566A4
:100AED0025E02400F582E4346085828A8F8B758C35
:100AFD0012758904758889E56625E02414F582E46C
:100B0D003460F583E0FCA3E0C3950FEC950E502EF9
:100B1D00E56625E02432F582E43460F583E0FCA33C
:100B2D00E0C39513EC95125015AF600560EF94027C
:100B3D0074809480400BE4F5605337FD8003E4F539
:100B4D0060E53730E125E56625E024EEF582E434F5
:100B5D0063F583E4F0A3F0E56625E024F8F582E47F
:100B6D003463F583E4F0A3F0020C0BE56625E02475
:100B7D0014F582E4346085828A8E8B758C0A7589B2
:100B8D00267588892088FDE5F130E00875F107E4C8
:100B9D00F50AF50BAE0AE50B7802C333CE33CED88A
:100BAD00F9FFE56625E024EEF582E43463F583EE86
:100BBD00F0A3EFF0E56625E02432F582E43460859C
:100BCD00828A758B12758C0A75892775888920889C
:100BDD00FDE5F130E00875F107E4F50AF50BAE0A15
:100BED00E50B7802C333CE33CED8F9FFE56625E0A9
:100BFD0024F8F582E43463F583EEF0A3EFF0E566B7
:100C0D0025E02402F582E43464F583E0FEA3E07868
:100C1D0002CEC313CE13D8F9F5518E50E56625E0FB
:100C2D0024EEF582E43463F583E0FEA3E0FF902427
:100C3D00DAE493FC740193FDC3EF9DEE9C4017E540
:100C4D006625E024F8F582E43463F583E0FEA3E045
:100C5D00C39DEE9C50028068E56625E024EEF5828A
:100C6D00E43463F583E0FEA3E0C39551EE95504067
:100C7D001CE56625E024F8F582E43463F583E0FE97
:100C8D00A3E0C39551EE95504003020D1774DF2577
:100C9D0066F582E43463F583E004F074DF2566F5D0
:100CAD0082E43463F583E0FF9024DFE493FEEFD319
:100CBD009E406474DF2566F582E43463F583E4F0C9
:100CCD00E56625E0240AF582E43460F583E0FEA3B1
:100CDD00E0FFE56625E02414F582E43460F583EE4B
:100CED00F0A3EFF0E56625E02428F582E43460F505
:100CFD0083E0FEA3E0FFE56625E02432F582E434CF
:100D0D0060F583EEF0A3EFF0800D74DF2566F582BC
:100D1D00E43463F583E4F0E56625E0240AF582E426
:100D2D00346085828AE56625E02400F582E434602E
:100D3D0085828B758C0A7589207588CB2088FDE599
:100D4D00F130E00875F107E4F50AF50BE56625E0ED
:100D5D00240AF582E4346085828A758B547F0E8F68
:100D6D008C7589237588897E0A8E8A8F8BE5662519
:100D7D00E0240AF582E4346085828CE4F589758877
:100D8D0029E56625E02428F582E4346085828AE52C
:100D9D006625E02400F582E4346085828B8E8C75A7
:100DAD0089207588CB2088FDE5F130E00875F107C5
:100DBD00E4F50AF50BE56625E02428F582E43460B8
:100DCD0085828A758B547F0E8F8C758924758889E1
:100DDD00758A0A8F8BE56625E02428F582E4346058
:0F0DED0085828CE4F5897588290566020AC02283
:1014D100E4F5669024E2E493FFE566C39F400302CE
:1014E1001689E56625E02402F582E43464F583E09B
:1014F100FEA3E07802CEC313CE13D8F9F5518E5076
:10150100E56625E024EEF582E43463F583E0FEA38D
:10151100E0D39551EE9550402EE56625E024F8F58F
:1015210082E43463F583E0FEA3E0D39551EE955058
:10153100401574E42566F582E43463F583E4F0AF85
:101541006612105E0216849024E1E493FFC3E55114
:101551009FFFE5509400FED3EF9400EE940040020B
:1015610080047E007F00E56625E024EEF582E43408
:1015710063F583E0FCA3E0C39FEC9E400302167772
:101581009024E1E493FFC3E5519FFFE5509400FEF1
:10159100D3EF9400EE9400400280047E007F00E5CA
:1015A1006625E024F8F582E43463F583E0FCA3E0EA
:1015B100C39FEC9E400302167774DA2566F582E438
:1015C1003463F583E4F074E42566F582E43463F56D
:1015D10083E004F074E42566F582E43463F583E086
:1015E100C39563500302168474E42566F582E434DE
:1015F10063F583E4F07F01FEFDFC74E92566F58265
:10160100E43463F583E0F9F8120F5D120F08E51F6A
:101611005FF51FE51E5EF51EE51D5DF51DE51C5C14
:10162100F51CE47F01FEFDFCA966A801120F5D1205
:101631000F08E5335FF533E5325EF532E5315DF5EF
:1016410031E5305CF530E47F01FEFDFC74E925668F
:10165100F582E43463F583E0F9F8120F5D120F08A7
:10166100E51B5FF51BE51A5EF51AE5195DF519E550
:10167100185CF518800D74E42566F582E43463F591
:0916810083E4F005660214D42292
:101E6600E4F5669024E2E493FFE566C39F506EE5D1
:101E76006625E024EEF582E43463F583E4F0A3F00E
:101E8600E56625E024F8F582E43463F583E4F0A3FF
:101E9600F0E56625E0240AF582E43460F583E0FE89
:101EA600A3E0FFE56625E02414F582E43460F583BB
:101EB600EEF0A3EFF0E56625E02428F582E4346031
:101EC600F583E0FEA3E0FFE56625E02432F582E433
:0E1ED6003460F583EEF0A3EFF00566808622FF
:101CC100E4F5669024E2E493FFE566C39F506790D4
:101CD100603CE0FF7E00C39410748094805053EF09
:101CE1009408748094804025E56625E02400F582FF
:101CF100E43460F583E0FEA3E0FFE56625E0240A15
:101D0100F582E43460F583EE8FF0120EF2E566257C
:101D1100E02400F582E43460F583E0FEA3E0FFE512
:101D21006625E02428F582E43460F583EE8FF01215
:101D31000EF20566808D90603CE0C394107480942F
:101D4100804005433704800690603CE004F07F0149
:031D5100021DE28E
:101EE400E4FFFEFDFCAB1BAA1AA919A818C3120F24
:101EF40039606390603EE004F0700690603DE00459
:101F0400F09024D6E493FE740193FF4E602ED39098
:101F1400603EE09F90603DE09E4021E4F0A3F0F538
:101F24001FF51EF51DF51CF533F532F531F530F5C9
:101F34001BF51AF519F518C201021E669024D8E49F
:101F440093FE740193FFD390603EE09F90603DE068
:0D1F54009E400AD20122E490603DF0A3F00F
:011F6100225D
:05168A00906431EFF057
:10168F00A3E0FCA3E0FDA3E0FEA3E0F5288E278DE9
:10169F00268C257884E2F50A08E2F50B758A087521
:1016AF008B25758C2175881D2088FDE4FFFEFDFCC0
:1016BF00AB24AA23A922A821D3120F234006AC21C1
:1016CF00A8048013AF24AE23AD22AC21120F15ABAB
:1016DF0007AA06A905A804906043E0FEA3E0FFE473
:1016EF00FCFDC3120F235041E4FFFEFDFCAB24AA07
:1016FF0023A922A821120F234006AF24AE23800B6B
:10170F00AF24AE23AD22AC21120F15906043EEF043
:10171F00A3EFF0906431E025E024D0F582E4346348
:10172F00F583E0A3E0906042F09024D3E493FE743D
:10173F000193FFD3906044E09F906043E09E501B65
:10174F00906431E025E024D0F582E43463F583E042
:10175F00A3E0906042F090603F8079E4FFFEFDFCD3
:10176F00AB24AA23A922A821D3120F2340349064BB
:10177F0031E0FF25E024D0F582E43463F583E0FC0B
:10178F00A3E0D39400EC9400404DEF25E024D0F576
:10179F0082E43463F58374FFF5F0120EF29060402B
:1017AF008032906431E0FF25E024D0F582E4346389
:1017BF00F583E0FCA3E0C3947FEC94005019EF2570
:1017CF00E024D0F582E43463F583E475F001120E62
:1017DF00F29060417401F0906040E064017011A3D9
:1017EF00E06401700B906040F0A3F090603F04F054
:1017FF0090603FE064017035906042E0FF9064318B
:10180F00E025E024D0F582E43463F583E4F0A3EF20
:10181F00F074FF906043F0A3F0906042747FF0E4A7
:0F182F00906040F0A3F090603FF07F01227F00B7
:01183E002287
:1020CA00E4906430F09024CD120F707801120F5D05
:1020DA00906432120FB5AF6112168AEF6022056161
:1020EA00E53730E4095337EF9064307401F09024F7
:1020FA00E2E493FFE561C39F4006E4F561433710CC
:10210A00C39024D17401939562E49394004008909B
:10211A006430E064017005D200022465E4FF121DF8
:01212A00E2D2
:01212B002291
:101DE200EF70607F01FEFDFC74E92561F582E43449
:101DF20063F583E0F9F8120F5D8F178E168D158C3F
:101E020014787EE254FCF2E24514F218E515F21859
:101E1200E516F218E517F2E56125E024D0F582E433
:101E22003463F583E0A3E0547FFF7878E254804F77
:101E3200F2787FE254FBF2E254FB4404F2E2440102
:101E4200F2801CE56125E024D0F582E43463F58359
:101E5200E0A3E0547FFF7878E254804FF2787FE28B
:041E62004402F22222
:101AF800E4906421F0A3F0906421E0FEA3E0FFC32A
:101B08009488EE94035031EF24BDFFEE340A8F829F
:101B1800F583E493FF906422E02445FD906421E07E
:101B280034608D82F583EFF0906422E004F070C792
:081B3800906421E004F080BF7D
:101B40009063CD7401F0A37460F0A37445F0E4F5E4
:101B500061F537F536F535F534C200C201F51FF5EC
:101B60001EF51DF51CF533F532F531F530F51BF595
:101B70001AF519F5189024DC93FF9024E0E493FE05
:101B8000A807088002C333D8FCF563756420E4FF1E
:031B9000021DE251
:102055007884E2F50A08E2F50BAE0A7803CEC313DD
:10206500CE13D8F97802C333CE33CED8F9FFE56164
:1020750025E02400F582E43460F583EEF0A3EFF06B
:1020850020000F9024D5E4937005D2000224650248
:1020950020CA05619024E2E493FFE561C39F401FD8
:1020A500787FE254FBF2E254FB4404F2E24401F28D
:1020B500E4F561E53720E203021CC1433701227FC5
:0520C50001121DE222E2
:05260B000562021EE45F
:10253F00E53730E01A9063CDA3E0FAA3E0F912106B
:10254F002C1214D1E4F5617F01121DE25337FE22E4
:101BAD0002212CE493A3F8E493A34003F68001F201
:101BBD0008DFF48029E493A3F85407240CC8C33339
:101BCD00C4540F4420C8834004F456800146F6DF08
:101BDD00E4800B0102040810204080901FDDE47E9C
:101BED00019360BCA3FF543F30E509541FFEE493FD
:101BFD00A360010ECF54C025E060A840B8E493A3C4
:101C0D00FAE493A3F8E493A3C8C582C8CAC583CAEE
:101C1D00F0A3C8C582C8CAC583CADFE9DEE780BEA6
:01205400008B
:100DFC00E709F608DFFA8046E709F208DFFA803ED9
:100E0C0088828C83E709F0A3DFFA8032E309F608C5
:100E1C00DFFA8078E309F208DFFA807088828C832D
:100E2C00E309F0A3DFFA806489828A83E0A3F608E1
:100E3C00DFFA805889828A83E0A3F208DFFA804CBB
:100E4C0080D280FA80C680D4806980F28033801092
:100E5C0080A680EA809A80A880DA80E280CA8033FB
:100E6C0089828A83ECFAE493A3C8C582C8CCC58373
:100E7C00CCF0A3C8C582C8CCC583CCDFE9DEE78043
:100E8C000D89828A83E493A3F608DFF9ECFAA9F0C2
:100E9C00EDFB2289828A83ECFAE0A3C8C582C8CC18
:100EAC00C583CCF0A3C8C582C8CCC583CCDFEADE31
:100EBC00E880DB89828A83E493A3F208DFF980CC93
:100ECC0088F0EF60010E4E60C388F0ED2402B4048C
:100EDC000050B9F582EB2402B4040050AF23234533
:060EEC008223900E4C73FE
:100EF200C5F0F8A3E028F0C5F0F8E582158270028B
:060F02001583E038F02227
:0D0F0800CFF4CFCEF4CECDF4CDCCF4CC227E
:0E0F1500C3E49FFFE49EFEE49DFDE49CFC22ED
:100F2300EB9FF5F0EA9E42F0E99D42F0EC6480C845
:060F330064809845F022E5
:100F3900EB9FF5F0EA9E42F0E99D42F0E89C45F00E
:010F49002285
:100F4A00E8600FECC313FCED13FDEE13FEEF13FF85
:030F5A00D8F122A9
:100F5D00E8600FEFC333FFEE33FEED33FDEC33FCF2
:030F6D00D8F12296
:100F7000E493FC740193FD740293FE740393FF22C7
:100F80007401FF3395E0FEFDFCA3A3A3E0CF2FF097
:100F9000E582158270021583E0CE3EF0E58215826F
:100FA00070021583E0CD3DF0E58215827002158355
:050FB000E0CC3CF02242
:0C0FB500ECF0A3EDF0A3EEF0A3EFF022AF
:100FC100A8828583F0D083D082120FD8120FD81255
:100FD1000FD8120FD8E473E493A3C583C5F0C5837A
:100FE100C8C582C8F0A3C583C5F0C583C8C582C87A
:010FF10022DD
:100FF200D083D082E4937012740193700DA3A393F3
:10100200F8740193F5828883E4737402936C70120E
:101012007403936D700C7404936E70067405936F71
:0A10220060DDA3A3A3A3A3A380CA6B
:06102C008A838982E4734F
:10103200EF4E6012EF60010EEDBB010B89828A83D5
:10104200F0A3DFFCDEFA2289F05007F709DFFCA9E2
:0C105200F022BBFEFCF309DFFCA9F02239
:00000001FF
