:0300000002166C79
:10166C00787FE4F6D8FD9060007F007E07E4F0A35D
:0A167C00DFFCDEFA7581660216C17C
:0C000300000000000000000000000000F1
:0B004200EF1FAC0670011E4C70F62290
:10208B00906419120D1A90641974FF120CE7EC4D41
:10209B004E4F600C75D9AA7F4C7E0412004280E62D
:0120AB002212
:1014F000907120E04480F07F057E001200427F0062
:101500007E007D007C0012208B75A75575AC5C9029
:1015100071327450F09071307403F0907136742F02
:10152000F090715C7403F090715BE054FCF07F18F4
:10153000EF2466FDE434718D82F583E4F00FEFB49F
:1015400033EE904011E4935407FF90711CE054F87F
:101550004FF0904017E493547FFF90711DE054804A
:101560004FF0904010E493FF5401C4333333548060
:10157000FE907123E0547F4EF0EFC313543F44407C
:10158000FFA3E054804FF0904012E493FF540FFE0D
:10159000907146E054F04EF0EFC4540FFF90714F3D
:1015A000E054F04FF0904013E493543FFF907140AB
:1015B000E054C04FF0904014E493907126F09040B6
:1015C00015E493907128F0904016E49390712AF0FE
:0115D00022F8
:101AB600436424000000C102526427E78175B59390
:0D1AC600B6F685F7B766F156D362C757E351
:1020430078D3E254C3F2E24428F278D0E24460F257
:1020530078DAE24460F2907168E04460F075CC0293
:0420630043CC8022C8
:101D8400E4FEED6401701E43CC50E5CF30E2FB531A
:101D9400CCBFE5CF54F86408600BE5CF54F8641069
:101DA40060037F00228FCDE5CF30E2FBE5CF54F80E
:101DB40064186010E5CF54F864286008E5CF54F83F
:101DC400FFBF40047E018002E4FEEDB4020343CC75
:031DD40030AF0627
:011DD70022E9
:10213900AB07AA06EAFF7D01121D84AF030D021D3C
:012149008411
:102067007F017E48122139906424E0FF746AFE12D2
:102077002139A3E0FF746CFE122139A3E0FF746ECF
:04208700FE022139FB
:101EF200AE07EDB4FF07906424E05408F0EEB4FF9F
:101F020007906426E05408F0EDF4600F74272DF575
:101F120082E43464F583E0906424F0EEF4600F749C
:0F1F2200272EF582E43464F583E0906426F022E4
:101F6F00EF7008906426E054F7800AEFB4010F90E9
:101F7F006426E04408F0906424E054F7F022EFB4B4
:101F8F000208906426E054F7800AEFB4030E9064C1
:0D1F9F0026E04408F0906424E04408F0229D
:10182D00AE07E4906425F0EE30E006E04404F0806D
:10183D000BEE20E007906425E054FBF0EEC313FDA2
:10184D0030E009906425E04402F0800BED20E007C4
:10185D00906425E054FDF0EE1313543FFD30E00984
:10186D00906425E04480F0800BED20E00790642526
:10187D00E0547FF0EE131313541FFF30E009906412
:10188D0025E04440F0800BEF20E007906425E05404
:10189D00BFF0EEC4540FFF30E008906425E0442003
:0E18AD00F022EF20E007906425E054DFF022E7
:101CD40090640CE0FFF46006EFD39411501D9064FF
:101CE4000DE0FFF46006EFD39411500F90640EE002
:101CF400D394035006A3E0941F40117E007F037D1C
:101D0400007B017A647924120D5D801B90640CE0E1
:101D1400FFA3E0FD121EF290640EE0FF121F6F900D
:0B1D2400640FE0FF12182D1220672250
:080051008FD7E5D430E4FB2257
:1000240078C2E254FCF2E24401F290717E7404F06E
:0A00340075D60175D59F75D2102214
:0B1AD3004160220044601EFFFFFFFF87
:1020CC0078D2E254CFF2907176E0440BF043AA4000
:0C20DC00D2AF75F60175F59F75F2112268
:101A3B00906022E064067025FE7F047DFF7B017AB7
:101A4B0060791E120D5D7E007F037D007B017A6441
:101A5B007924120D5D122067E4906022F0E47F0A76
:101A6B00FEFDFC906444E0F8A3E0F9A3E0FAA3E0E8
:101A7B00FBC3120C9E40337E007F047DFF7B017AFB
:101A8B0060791E120D5D7E007F037D007B017A6401
:101A9B007924120D5D122067E4906022F01220FF72
:0B1AAB00906444120D26000000002291
:03004E0002131882
:10131800C0E0C0F0C083C082C0D075D000C000C09B
:0D13280001C002C003C004C005C006C0071C
:1013350090641DE4F0E5F420E5030213EAE5F7F017
:10134500906444120D260000000012214A9060228C
:10135500E0701090641DE0B4A5099060227401F05E
:101365000213EA906022E0B4011090641DE09060E1
:101375001EF09060227402F0806B906022E0B4024F
:101385001090641DE090601FF09060227403F0805F
:1013950054906022E0B4031090641DE0906020F04A
:1013A5009060227404F0803D906022E0B4040E90B9
:1013B500641DE0906021F0A37405F0802890602200
:1013C500E0B4050E90641DE0B45A079060227407DE
:1013D50080059060227406F01220FF906444120D7F
:0513E5002600000000DD
:1013EA00D007D006D005D004D003D002D001D00057
:0B13FA00D0D0D082D083D0F0D0E03201
:071ADE004464440000000015
:101EB200E5B154F342B153A8DFD2AF7892E4F2080D
:101EC200F27890E254F3F2E2441CF2E254FCF2E2C1
:101ED2004401F208E2547FF2E24420F27895740160
:101EE200F2187476F27890E2541FF2E244A0F222E1
:10214A007890E2541FF2E244C0F243A820D2AF22B0
:1020FF007890E2541FF2E244A0F27892E4F208F2F0
:04210F0053A8DF22D0
:03001E00021D2F91
:101D2F00C0E0C0F0C083C082C0D075D000C000C07A
:101D3F0004C005C006C0077891E230E723E2448073
:101D4F00F2906444E0FCA3E0FDA3E0FEA3E02401D5
:101D5F00FFE43EFEE43DFDE43CFC906444120D1AAA
:101D6F00D007D006D005D004D000D0D0D082D083F9
:051D7F00D0F0D0E032BD
:10201900000009C4006400C80101F4004B000A0073
:1020290000010F0A0505000B00C8000C00C80011CB
:0A20390000C8001700C8001800C816
:100D8900E4FF74E92FF582E43463F583E0C3940842
:100D99004003020E3A74E92FF582E43463F583E0E7
:100DA900C39404504478C2C000E2FE74E92FF5826E
:100DB900E43463F583E025E0FDF87403088002C399
:100DC90033D8FCF45ED000F278C2C000E2FE74E9C8
:100DD9002FF582E43463F583E025E0FDF874030818
:100DE9008002C333D8FC020F9C78C3C000E2FE74B2
:100DF900E92FF582E43463F583E024FC25E0FDF86E
:100E09007403088002C333D8FCF45ED000F278C3BF
:100E1900C000E2FE74E92FF582E43463F583E0242F
:100E2900FC25E0FDF87403088002C333D8FC020FE7
:100E39009C74E92FF582E43463F583E0C394085088
:100E490003020F0074E92FF582E43463F583E0C3EC
:100E590094104003020F0074E92FF582E43463F51E
:100E690083E0C3940C504878D2C000E2FE74E92FA5
:100E7900F582E43463F583E024F825E0FDF8740392
:100E8900088002C333D8FCF45ED000F278D2C000E7
:100E9900E2FE74E92FF582E43463F583E024F82552
:100EA900E0FDF87403088002C333D8FC020F9C7874
:100EB900D3C000E2FE74E92FF582E43463F583E0E0
:100EC90024F425E0FDF87403088002C333D8FCF448
:100ED9005ED000F278D3C000E2FE74E92FF582E417
:100EE9003463F583E024F425E0FDF87403088002F7
:100EF900C333D8FC020F9C74E92FF582E43463F5FF
:100F090083E0C39414504778E2C000E2FE74E92FED
:100F1900F582E43463F583E024F025E0FDF87403F9
:100F2900088002C333D8FCF45ED000F278E2C00036
:100F3900E2FE74E92FF582E43463F583E024F025B9
:100F4900E0FDF87403088002C333D8FC804578E3D8
:100F5900C000E2FE74E92FF582E43463F583E024EE
:100F6900EC25E0FDF87403088002C333D8FCF45E75
:100F7900D000F278E3C000E2FE74E92FF582E43490
:100F890063F583E024EC25E0FDF87403088002C3CF
:100F990033D8FC4ED000F20FEF64056003020D8BCD
:010FA9002225
:03005D00021E6D13
:101E6D00C0E0C0F0C083C082C0D075D000C000C03B
:101E7D0001C002C003C004C005C006C0077881E2DE
:101E8D0030E607E24440F2121B2ED007D006D005F3
:101E9D00D004D003D002D001D000D0D0D082D083D6
:051EAD00D0F0D0E0328E
:101DD800D2AF43AB0843B6C0907132E04440F04301
:101DE800AB087877743FF208744BF2787A7430F263
:101DF800788914F27871744FF2187427F278727433
:101E0800A8F2087410F208E4F208F208F2787E7476
:0F1E1800D0F2087404F208741EF2087402F22269
:03003F00021E2777
:101E2700C0E0C0F0C083C082C0D075D000C000C081
:101E370001C002C003C004C005C006C007907153AB
:101E4700E030E707E04480F012215AD007D006D0EF
:101E570005D004D003D002D001D000D0D0D082D09A
:061E670083D0F0D0E03250
:10170600E4FBEB25E025E0242FF582E43420F58385
:10171600740193FF74E92BF582E43463F583EFF0EB
:10172600EB25E025E02431F582E43420F583E493CB
:10173600FE740193FFEB25E02402F582E43464F5A0
:1017460083EEF0A3EFF0EB25E024D0F582E43463DA
:10175600F583E4F0A3744BF0E47F01FEFDFC74E92D
:101766002BF582E43463F583E0F9F8120CC2E53F09
:101776004FF53FE53E4EF53EE53D4DF53DE53C4C2E
:10178600F53C0BEB64056003021708120D89121570
:04179600D1021DD887
:101C76001214F075D95590715EE054FEF075D9BB1B
:101C8600122127121F31122043121706121EB212FA
:101C960020CC120060121A3B906022E06407702983
:101CA600780C7C647D017B017A60791EFE7F0412CC
:101CB6000C31121CD47E007F047DFF7B017A607993
:0E1CC6001E120D5DE4906022F075D9AA80C454
:101AE5004164430044643B0000000044643F00003F
:071AF500000042643900000B
:0E1BA30090643BE0FCA3E0FDA3E0FEA3E0FFA6
:061BB100906410120D1AF1
:101BB700E4906414F0A3120D26000000007F017E5C
:101BC700007D007C0012208B1220ACAF1BAE1AAD3B
:101BD70019AC18906415120D1A906415E0FCA3E077
:101BE700FDA3E0FEA3E0FF906410E0F8A3E0F9A3F3
:101BF700E0FAA3E0FBC3120C9E70037F01229064FE
:0C1C070014E004F0E0C3946440B37F00DC
:011C130022AE
:1000600090640C120D26000000001220ACAF1BAEF5
:100070001AAD19AC1890640C120D1A906443E0602C
:1000800003020131FFFEFDFC90643BE0F8A3E0F9C0
:10009000A3E0FAA3E0FBC3120C9E701690640CE080
:1000A000FCA3E0FDA3E0FEA3E0FF90643B120D1A69
:1000B000807490640CE0FCA3E0FDA3E0FEA3E0FFED
:1000C00090643BE0F8A3E0F9A3E0FAA3E0FBC312DD
:1000D0000C9E704C90643FE0FCA3E0FDA3E0FEA307
:1000E000E02401FFE43EFEE43DFDE43CFC90643F7F
:1000F000120D1AE47FEE7E02FDFC90643FE0F8A34F
:10010000E0F9A3E0FAA3E0FBC3120C9E4018906450
:100110003F120D26000000009064437402F0800638
:100120009064437404F07F017E007D007C00122007
:0C0130008B906443E06404600302023D15
:10013C00C204FFFEFD7C0190643BE0F8A3E0F9A350
:10014C00E0FAA3E0FBC3120C9E7019121BA3EF2460
:10015C00FF92047D013004047F048002E4FF12202E
:10016C00E8020237E4FF7E08FDFC90643BE0F8A354
:10017C00E0F9A3E0FAA3E0FBC3120C9E7019121B6A
:10018C00A3EF24FF92047D023004047F048002E478
:10019C00FF1220E8020237E4FFFE7D80FC90643BF6
:1001AC00E0F8A3E0F9A3E0FAA3E0FBC3120C9E7005
:1001BC0018121BA3EF24FF92047D033004047F0468
:1001CC008002E4FF1220E88062E4FFFE7D02FC90D6
:1001DC00643BE0F8A3E0F9A3E0FAA3E0FBC3120C44
:1001EC009E7018121BA3EF24FF92047D04300404AC
:1001FC007F048002E4FF1220E88030E4FF7E10FDD3
:10020C00FC90643BE0F8A3E0F9A3E0FAA3E0FBC3A5
:10021C00120C9E701C121BA3EF24FF92047D053060
:10022C0004047F048002E4FF1220E8906443740508
:01023C00F0D1
:10023D00906443E0640260030202E6FFFEFD7C0170
:10024D0090640CE0F8A3E0F9A3E0FAA3E0FBC3127D
:10025D000C9E70047D018076E4FF7E08FDFC9064A9
:10026D000CE0F8A3E0F9A3E0FAA3E0FBC3120C9EA7
:10027D0070047D028058E4FFFE7D80FC90640CE0EC
:10028D00F8A3E0F9A3E0FAA3E0FBC3120C9E7004FF
:10029D007D03803AE4FFFE7D02FC90640CE0F8A340
:1002AD00E0F9A3E0FAA3E0FBC3120C9E70047D04F9
:1002BD00801CE4FF7E10FDFC90640CE0F8A3E0F9D7
:1002CD00A3E0FAA3E0FBC3120C9E70077D057F012E
:1002DD001220E89064437403F0906443E06403607B
:1002ED000302049C90640CE0FCA3E0FDA3E0FEA3DC
:1002FD00E0FF90643BE0F8A3E0F9A3E0FAA3E0FB94
:10030D00C3120C9E600302049690643FE0FCA3E0D0
:10031D00FDA3E0FEA3E02401FFE43EFEE43DFDE489
:10032D003CFC90643F120D1AE4FFFEFD7C019064CD
:10033D000CE0F8A3E0F9A3E0FAA3E0FBC3120C9ED6
:10034D00702B7F96FEFDFC90643FE0F8A3E0F9A3CF
:10035D00E0FAA3E0FBC3120C9E50030204899064E3
:10036D003F120D26000000007D01020484E4FF7E93
:10037D0008FDFC90640CE0F8A3E0F9A3E0FAA3E01B
:10038D00FBC3120C9E702B7F96FEFDFC90643FE02C
:10039D00F8A3E0F9A3E0FAA3E0FBC3120C9E50030F
:1003AD0002048990643F120D26000000007D0202B8
:1003BD000484E4FFFE7D80FC90640CE0F8A3E0F97A
:1003CD00A3E0FAA3E0FBC3120C9E702B7F96FEFDFB
:1003DD00FC90643FE0F8A3E0F9A3E0FAA3E0FBC3CF
:1003ED00120C9E500302048990643F120D260000EA
:1003FD0000007D03020484E4FFFE7D02FC90640C8A
:10040D00E0F8A3E0F9A3E0FAA3E0FBC3120C9E70A1
:10041D00277F96FEFDFC90643FE0F8A3E0F9A3E092
:10042D00FAA3E0FBC3120C9E405290643F120D26BE
:10043D00000000007D04803FE4FF7E10FDFC906411
:10044D000CE0F8A3E0F9A3E0FAA3E0FBC3120C9EC5
:10045D00702A7F96FEFDFC90643FE0F8A3E0F9A3BF
:10046D00E0FAA3E0FBC3120C9E401190643F120D05
:10047D0026000000007D057F021220E87F017E002E
:10048D007D007C0012208B80069064437406F090F2
:0F049D006443E064066008E0640560030205A59F
:1004AC00E4FFFEFDFC90640CE0F8A3E0F9A3E0FA95
:1004BC00A3E0FBC3120C9E701B90643AE004F07036
:1004CC0006906439E004F07F017E007D007C001210
:1004DC00208B8007E4906439F0A3F0C390643AE079
:1004EC00941E906439E0940050030205A5E4F0A337
:1004FC00F0906443E06406600302059FFFFEFD7C00
:10050C000190643BE0F8A3E0F9A3E0FAA3E0FB124E
:10051C000C9E70047D018076E4FF7E08FDFC9064E7
:10052C003BE0F8A3E0F9A3E0FAA3E0FBC3120C9EB6
:10053C0070047D028058E4FFFE7D80FC90643BE0FB
:10054C00F8A3E0F9A3E0FAA3E0FBC3120C9E70043D
:10055C007D03803AE4FFFE7D02FC90643BE0F8A34F
:10056C00E0F9A3E0FAA3E0FBC3120C9E70047D0437
:10057C00801CE4FF7E10FDFC90643BE0F8A3E0F9E6
:10058C00A3E0FAA3E0FBC3120C9E70077D057F036A
:09059C001220E89064437407F09A
:1005A500906443E0B4072390640C120D260000000C
:1005B5000090643B120D260000000090643F120D70
:0A05C5002600000000E4906443F0FB
:0105CF002209
:101AFC00C103426026000041602300416024004184
:031B0C0060250051
:1021270078D2E254F3F2E24404F2907187E4F0D2F9
:022137009122F3
:101F3100E5B154CF42B1789CE254F3F2E24414F299
:101F4100E254FCF2E24401F208E2547FF2E244205E
:101F5100F278A07432F2087401F2789EE4F208F289
:0E1F6100789CE2541FF2E244A0F253A8BF2283
:0E000F00789CE2541FF2E244C0F243A8402263
:10211300789CE2541FF2E244A0F2789EE4F208F2C3
:0421230053A8BF22DC
:03002100021405C1
:10140500C0E0C083C082C0D075D000C000C006C097
:0114150007CF
:10141600789DE220E7030214E1E24480F220030310
:101426000214E1906024E0FFC3740F9FFF7E0074F6
:1014360001A807088005C333CE33CED8F9FF9060E4
:1014460026E05EFEA3E05F4E6021906023E014601C
:101456000E14600F1460102403702FD291802BD2CB
:10146600918027D2918023C291801F906023E0143F
:10147600600E14600F1460102403700ED291800A5F
:10148600C2918006C2918002C291906023E004F06E
:10149600E0C394044009A3E004F0906023E4F090D4
:1014A6006024E0C394104014A3E0701004F0906030
:1014B60024E014F09060237403F0801F906024E011
:1014C600C394104016A3E0B40111906024E4F09098
:0B14D6006023F0906025F0C203D2916B
:0F14E100D007D006D000D0D0D082D083D0E03258
:101FE900906026EEF0A3EFF0C2917F057E007D00A0
:101FF9007C0012208B12000FD20330030575D9AA79
:1020090080F81221137F0A7E007D007C0002208B5C
:0220E800A90548
:1020EA00EFC43354E0FCE9541F4CFCECF4FFEFFD61
:0520FA00AE04021FE925
:101B0F0041603C0142603D000041603F0041604048
:0E1B1F0000416041004160427F426043FFFF91
:101FAC00E4F561AE3EAD3DAC3C853F178E168D150C
:101FBC008C14787EE254FCF2E24514F218E515F22A
:101FCC0018E516F218E517F2787FE254FBF2E254AA
:0D1FDC00FB4404F2E24401F27F010218BB55
:10090F00906419EFF0E0FF24DAF582E43463F583A5
:10091F00E004F074E42FF582E43463F583E4F074BB
:10092F00DA2FF582E43463F583E0C3956350030255
:10093F000B60906419E0FB24DAF582E43463F583ED
:10094F00E4F090202A9364016003020B117F01FEF3
:10095F00FDFC74E92BF582E43463F583E0F9F812BA
:10096F000CC2E51F4FF51FE51E4EF51EE51D4DF59B
:10097F001DE51C4CF51CAF1FAE1EAD1DFC78011202
:10098F000CAFEF5455FBEE5455FAED5455F9EC54AA
:10099F0055F8C3E51F9BF53BE51E9AF53AE51D9902
:1009AF00F539E51C98F538AF3BAE3AAD39FC780216
:1009BF00120CAFEF5433FBEE5433FAED5433F9EC22
:1009CF005433F8E53B5433FFE53A5433FEE53954DD
:1009DF0033FDE5385433FCEB2FF53BEA3EF53AE9AE
:1009EF003DF539E83CF538AF3BAE3AAD39FC78040C
:1009FF00120CAFEF253BFFEE353AFEED3539FDEC2E
:100A0F003538FCEF540FF53BEE540FF53AED540F1C
:100A1F00F539EC540FF538AF3BAE3AAD39FC7808E9
:100A2F00120CAFEF253BFFEE353AED3539FDEC35C6
:100A3F0038EFF53BE4F53AEDF539E4F538AE3AAC7D
:100A4F00387810120CAFEF253BFFEE353AFEEFF57D
:100A5F003BEEF53AE4F539F538906419E025E024DA
:100A6F00EEF582E43463F583E0FEA3E0D39553EE15
:100A7F0095524024906419E0FF25E024EEF582E4BE
:100A8F003463F583E0F552A3E0F55374E92FF58253
:100A9F00E43463F583E0F56490202AE493FFE4FCEB
:100AAF00FDFEAB3BAA3AA939A838D3120C9E40528F
:100ABF00AF650565D3EF9403748094805003020BE8
:100ACF0060E4F565F51FF51EF51DF51C7F01FEFDB4
:100ADF00FCA964A801120CC28F1B8E1A8D198C18D9
:100AEF00E47F01FEFDFCA801120CC28F338E328D04
:100AFF00318C30E4F552F55375642012193F4337AA
:100B0F000222E4F5657F01FEFDFC906419E0FB24F1
:100B1F00E9F582E43463F583E0F9F8120CC2E51BC2
:100B2F004FF51BE51A4EF51AE5194DF519E5184C59
:100B3F00F518E47F01FEFDFCA803120CC2E5334F4C
:100B4F00F533E5324EF532E5314DF531E5304CF503
:020B5F00302242
:1005D000E4F56690202EE493FFE566C39F40030296
:1005E000090EE56625E02400F582E4346085828A00
:1005F0007F548F8B7E0E8E8C758903758889E56696
:1006000025E02400F582E4346085828A8F8B758C26
:1006100012758904758889E56625E02414F582E45D
:100620003460F583E0FCA3E0C3950FEC950E502EEB
:10063000E56625E02432F582E43460F583E0FCA32E
:10064000E0C39513EC95125015AF600560EF94026E
:1006500074809480400BE4F5605337FD8003E4F52B
:1006600060E53730E125E56625E024EEF582E434E7
:1006700063F583E4F0A3F0E56625E024F8F582E471
:100680003463F583E4F0A3F002071EE56625E02459
:1006900014F582E4346085828A8E8B758C0A7589A4
:1006A000267588892088FDE5F130E00875F107E4BA
:1006B000F50AF50BAE0AE50B7802C333CE33CED87C
:1006C000F9FFE56625E024EEF582E43463F583EE78
:1006D000F0A3EFF0E56625E02432F582E43460858E
:1006E000828A758B12758C0A75892775888920888E
:1006F000FDE5F130E00875F107E4F50AF50BAE0A07
:10070000E50B7802C333CE33CED8F9FFE56625E09A
:1007100024F8F582E43463F583EEF0A3EFF0E566A8
:1007200025E02402F582E43464F583E0FEA3E0785A
:1007300002CEC313CE13D8F9F5518E50E56625E0ED
:1007400024EEF582E43463F583E0FEA3E0FF90201D
:1007500026E493FC740193FDC3EF9DEE9C4017E5E6
:100760006625E024F8F582E43463F583E0FEA3E037
:10077000C39DEE9C50028068E56625E024EEF5827C
:10078000E43463F583E0FEA3E0C39551EE95504059
:100790001CE56625E024F8F582E43463F583E0FE89
:1007A000A3E0C39551EE9550400302082A74DF255B
:1007B00066F582E43463F583E004F074DF2566F5C2
:1007C00082E43463F583E0FF90202BE493FEEFD3C3
:1007D0009E406474DF2566F582E43463F583E4F0BB
:1007E000E56625E0240AF582E43460F583E0FEA3A3
:1007F000E0FFE56625E02414F582E43460F583EE3D
:10080000F0A3EFF0E56625E02428F582E43460F5F6
:1008100083E0FEA3E0FFE56625E02432F582E434C0
:1008200060F583EEF0A3EFF0800D74DF2566F582AE
:10083000E43463F583E4F0E56625E0240AF582E418
:10084000346085828AE56625E02400F582E4346020
:1008500085828B758C0A7589207588CB2088FDE58B
:10086000F130E00875F107E4F50AF50BE56625E0DF
:10087000240AF582E4346085828A758B547F0E8F5A
:100880008C7589237588897E0A8E8A8F8BE566250B
:10089000E0240AF582E4346085828CE4F589758869
:1008A00029E56625E02428F582E4346085828AE51E
:1008B0006625E02400F582E4346085828B8E8C7599
:1008C00089207588CB2088FDE5F130E00875F107B7
:1008D000E4F50AF50BE56625E02428F582E43460AA
:1008E00085828A758B547F0E8F8C758924758889D3
:1008F000758A0A8F8BE56625E02428F582E434604A
:0F09000085828CE4F58975882905660205D32266
:100FAA00E4F56690202EE493FFE566C39F400302B2
:100FBA001162E56625E02402F582E43464F583E0F3
:100FCA00FEA3E07802CEC313CE13D8F9F5518E50A2
:100FDA00E56625E024EEF582E43463F583E0FEA3BA
:100FEA00E0D39551EE9550402EE56625E024F8F5BC
:100FFA0082E43463F583E0FEA3E0D39551EE955085
:10100A00401574E42566F582E43463F583E4F0AFB1
:10101A006612090F02115D90202DE493FFC3E5517A
:10102A009FFFE5509400FED3EF9400EE9400400237
:10103A0080047E007F00E56625E024EEF582E43434
:10104A0063F583E0FCA3E0C39FEC9E4003021150CA
:10105A0090202DE493FFC3E5519FFFE5509400FED5
:10106A00D3EF9400EE9400400280047E007F00E5F6
:10107A006625E024F8F582E43463F583E0FCA3E016
:10108A00C39FEC9E400302115074DA2566F582E490
:10109A003463F583E4F074E42566F582E43463F599
:1010AA0083E004F074E42566F582E43463F583E0B2
:1010BA00C39563500302115D74E42566F582E43436
:1010CA0063F583E4F07F01FEFDFC74E92566F58291
:1010DA00E43463F583E0F9F8120CC2120C6DE51FD3
:1010EA005FF51FE51E5EF51EE51D5DF51DE51C5C41
:1010FA00F51CE47F01FEFDFCA966A801120CC212D0
:10110A000C6DE5335FF533E5325EF532E5315DF5B9
:10111A0031E5305CF530E47F01FEFDFC74E92566BB
:10112A00F582E43463F583E0F9F8120CC2120C6D0F
:10113A00E51B5FF51BE51A5EF51AE5195DF519E57C
:10114A00185CF518800D74E42566F582E43463F5BD
:09115A0083E4F00566020FAD22EA
:10193F00E4F56690202EE493FFE566C39F506EE5B5
:10194F006625E024EEF582E43463F583E4F0A3F03A
:10195F00E56625E024F8F582E43463F583E4F0A32B
:10196F00F0E56625E0240AF582E43460F583E0FEB5
:10197F00A3E0FFE56625E02414F582E43460F583E7
:10198F00EEF0A3EFF0E56625E02428F582E434605D
:10199F00F583E0FEA3E0FFE56625E02432F582E45F
:0E19AF003460F583EEF0A3EFF005668086222B
:10179A00E4F56690202EE493FFE566C39F506790B8
:1017AA00603CE0FF7E00C39410748094805053EF35
:1017BA009408748094804025E56625E02400F5822B
:1017CA00E43460F583E0FEA3E0FFE56625E0240A41
:1017DA00F582E43460F583EE8FF0120C57E5662546
:1017EA00E02400F582E43460F583E0FEA3E0FFE53F
:1017FA006625E02428F582E43460F583EE8FF01242
:10180A000C570566808D90603CE0C39410748094F8
:10181A00804005433704800690603CE004F07F0175
:03182A000218BBE6
:1019BD00E4FFFEFDFCAB1BAA1AA919A818C3120C53
:1019CD009E606390603EE004F0700690603DE00420
:1019DD00F0902022E493FE740193FF4E602ED3907D
:1019ED00603EE09F90603DE09E4021E4F0A3F0F565
:1019FD001FF51EF51DF51CF533F532F531F530F5F6
:101A0D001BF51AF519F518C20102193F902024E4AF
:101A1D0093FE740193FFD390603EE09F90603DE094
:0D1A2D009E400AD20122E490603DF0A3F03B
:011A3A002289
:0511630090641FEFF095
:10116800A3E0FCA3E0FDA3E0FEA3E0F5288E278D15
:10117800268C257884E2F50A08E2F50B758A08754D
:101188008B25758C2175881D2088FDE4FFFEFDFCEC
:10119800AB24AA23A922A821D3120C884006AC218B
:1011A800A8048013AF24AE23AD22AC21120C7AAB75
:1011B80007AA06A905A804906043E0FEA3E0FFE49F
:1011C800FCFDC3120C885041E4FFFEFDFCAB24AAD1
:1011D80023A922A821120C884006AF24AE23800B35
:1011E800AF24AE23AD22AC21120C7A906043EEF00E
:1011F800A3EFF090641FE025E024D0F582E4346387
:10120800F583E0A3E0906042F090201FE493FE7421
:101218000193FFD3906044E09F906043E09E501B91
:1012280090641FE025E024D0F582E43463F583E080
:10123800A3E0906042F090603F8079E4FFFEFDFCFF
:10124800AB24AA23A922A821D3120C884034906485
:101258001FE0FF25E024D0F582E43463F583E0FC49
:10126800A3E0D39400EC9400404DEF25E024D0F5A2
:1012780082E43463F58374FFF5F0120C57906040F4
:10128800803290641FE0FF25E024D0F582E43463C7
:10129800F583E0FCA3E0C3947FEC94005019EF259C
:1012A800E024D0F582E43463F583E475F001120C90
:1012B800579060417401F0906040E064017011A3A0
:1012C800E06401700B906040F0A3F090603F04F080
:1012D80090603FE064017035906042E0FF90641FC9
:1012E800E025E024D0F582E43463F583E4F0A3EF4D
:1012F800F074FF906043F0A3F0906042747FF0E4D4
:0F130800906040F0A3F090603FF07F01227F00E3
:0113170022B3
:101C1400E490641EF0902019120CD57801120CC2C5
:101C2400906420120D1AAF61121163EF60220561F6
:101C3400E53730E4095337EF90641E7401F09020C7
:101C44002EE493FFE561C39F4006E4F5614337103A
:101C5400C390201D7401939562E49394004008900E
:101C6400641EE064017005D200021FACE4FF121888
:011C7400BBB4
:011C7500224C
:1018BB00EF70607F01FEFDFC74E92561F582E43475
:1018CB0063F583E0F9F8120CC28F178E168D158C09
:1018DB0014787EE254FCF2E24514F218E515F21886
:1018EB00E516F218E517F2E56125E024D0F582E460
:1018FB003463F583E0A3E0547FFF7878E254804FA4
:10190B00F2787FE254FBF2E254FB4404F2E244012E
:10191B00F2801CE56125E024D0F582E43463F58385
:10192B00E0A3E0547FFF7878E254804FF2787FE2B7
:04193B004402F2224E
:1015D100E490640CF0A3F090640CE0FEA3E0FFC380
:1015E1009488EE94035031EF24D0FFEE34058F82BE
:1015F100F583E493FF90640DE02445FD90640CE0D5
:1016010034608D82F583EFF090640DE004F070C7D3
:0816110090640CE004F080BFBE
:101619009063CD7401F0A37460F0A37445F0E4F510
:1016290061F537F536F535F534C200C201F51FF518
:101639001EF51DF51CF533F532F531F530F51BF5C1
:101649001AF519F51890202893FF90202CE493FEA1
:10165900A807088002C333D8FCF563756420E4FF4A
:031669000218BBA9
:101B2E007884E2F50A08E2F50BAE0A7803CEC31309
:101B3E00CE13D8F97802C333CE33CED8F9FFE56190
:101B4E0025E02400F582E43460F583EEF0A3EFF097
:101B5E0020000F902021E4937005D200021FAC02EA
:101B6E001C14056190202EE493FFE561C39F401F76
:101B7E00787FE254FBF2E254FB4404F2E24401F2B9
:101B8E00E4F561E53720E20302179A433701227F1D
:051B9E00011218BB223A
:05215A0005620219BD41
:1020AC00E53730E01A9063CDA3E0FAA3E0F9120D06
:1020BC0057120FAAE4F5617F011218BB5337FE22A9
:10168600021C76E493A3F8E493A34003F68001F2E8
:1016960008DFF48029E493A3F85407240CC8C33365
:1016A600C4540F4420C8834004F456800146F6DF34
:1016B600E4800B0102040810204080901AB6E47EF4
:1016C600019360BCA3FF543F30E509541FFEE49329
:1016D600A360010ECF54C025E060A840B8E493A3F0
:1016E600FAE493A3F8E493A3C8C582C8CAC583CA1B
:1016F600F0A3C8C582C8CAC583CADFE9DEE780BED3
:011B2D0000B7
:100B6100E709F608DFFA8046E709F208DFFA803E76
:100B710088828C83E709F0A3DFFA8032E309F60863
:100B8100DFFA8078E309F208DFFA807088828C83CB
:100B9100E309F0A3DFFA806489828A83E0A3F6087F
:100BA100DFFA805889828A83E0A3F208DFFA804C59
:100BB10080D280FA80C680D4806980F28033801030
:100BC10080A680EA809A80A880DA80E280CA803399
:100BD10089828A83ECFAE493A3C8C582C8CCC58311
:100BE100CCF0A3C8C582C8CCC583CCDFE9DEE780E1
:100BF1000D89828A83E493A3F608DFF9ECFAA9F060
:100C0100EDFB2289828A83ECFAE0A3C8C582C8CCB5
:100C1100C583CCF0A3C8C582C8CCC583CCDFEADECE
:100C2100E880DB89828A83E493A3F208DFF980CC30
:100C310088F0EF60010E4E60C388F0ED2402B40429
:100C41000050B9F582EB2402B4040050AF232345D0
:060C51008223900BB17339
:100C5700C5F0F8A3E028F0C5F0F8E5821582700228
:060C67001583E038F022C5
:0D0C6D00CFF4CFCEF4CECDF4CDCCF4CC221C
:0E0C7A00C3E49FFFE49EFEE49DFDE49CFC228B
:100C8800EB9FF5F0EA9E42F0E99D42F0EC6480C8E3
:060C980064809845F02283
:100C9E00EB9FF5F0EA9E42F0E99D42F0E89C45F0AC
:010CAE002223
:100CAF00E8600FECC313FCED13FDEE13FEEF13FF23
:030CBF00D8F12247
:100CC200E8600FEFC333FFEE33FEED33FDEC33FC90
:030CD200D8F12234
:100CD500E493FC740193FD740293FE740393FF2265
:100CE5007401FF3395E0FEFDFCA3A3A3E0CF2FF035
:100CF500E582158270021583E0CE3EF0E58215820D
:100D050070021583E0CD3DF0E582158270021583F2
:050D1500E0CC3CF022DF
:0C0D1A00ECF0A3EDF0A3EEF0A3EFF0224C
:100D2600A8828583F0D083D082120D3D120D3D122C
:100D36000D3D120D3DE473E493A3C583C5F0C58351
:100D4600C8C582C8F0A3C583C5F0C583C8C582C817
:010D5600227A
:060D57008A838982E47327
:100D5D00EF4E6012EF60010EEDBB010B89828A83AD
:100D6D00F0A3DFFCDEFA2289F05007F709DFFCA9BA
:0C0D7D00F022BBFEFCF309DFFCA9F02211
:00000001FF
